{
	"first.sol": {
		"CounterfeitDrugDetection": {
			"abi": [
				{
					"anonymous": false,
					"inputs": [
						{
							"indexed": true,
							"internalType": "uint256",
							"name": "batchNumber",
							"type": "uint256"
						},
						{
							"indexed": false,
							"internalType": "string",
							"name": "name",
							"type": "string"
						},
						{
							"indexed": false,
							"internalType": "uint256",
							"name": "manufacturingDate",
							"type": "uint256"
						},
						{
							"indexed": false,
							"internalType": "address",
							"name": "manufacturer",
							"type": "address"
						}
					],
					"name": "DrugRegistered",
					"type": "event"
				},
				{
					"inputs": [
						{
							"internalType": "uint256",
							"name": "",
							"type": "uint256"
						}
					],
					"name": "drugs",
					"outputs": [
						{
							"internalType": "uint256",
							"name": "batchNumber",
							"type": "uint256"
						},
						{
							"internalType": "string",
							"name": "name",
							"type": "string"
						},
						{
							"internalType": "uint256",
							"name": "manufacturingDate",
							"type": "uint256"
						},
						{
							"internalType": "address",
							"name": "manufacturer",
							"type": "address"
						},
						{
							"internalType": "bool",
							"name": "isRegistered",
							"type": "bool"
						}
					],
					"stateMutability": "view",
					"type": "function"
				},
				{
					"inputs": [
						{
							"internalType": "uint256",
							"name": "_batchNumber",
							"type": "uint256"
						},
						{
							"internalType": "string",
							"name": "_name",
							"type": "string"
						},
						{
							"internalType": "uint256",
							"name": "_manufacturingDate",
							"type": "uint256"
						}
					],
					"name": "registerDrug",
					"outputs": [],
					"stateMutability": "nonpayable",
					"type": "function"
				},
				{
					"inputs": [
						{
							"internalType": "uint256",
							"name": "_batchNumber",
							"type": "uint256"
						}
					],
					"name": "verifyDrug",
					"outputs": [
						{
							"internalType": "bool",
							"name": "",
							"type": "bool"
						}
					],
					"stateMutability": "view",
					"type": "function"
				}
			],
			"devdoc": {
				"kind": "dev",
				"methods": {},
				"version": 1
			},
			"evm": {
				"assembly": "    /* \"first.sol\":60:1235  contract CounterfeitDrugDetection {... */\n  mstore(0x40, 0x80)\n  callvalue\n  dup1\n  iszero\n  tag_1\n  jumpi\n  0x00\n  dup1\n  revert\ntag_1:\n  pop\n  dataSize(sub_0)\n  dup1\n  dataOffset(sub_0)\n  0x00\n  codecopy\n  0x00\n  return\nstop\n\nsub_0: assembly {\n        /* \"first.sol\":60:1235  contract CounterfeitDrugDetection {... */\n      mstore(0x40, 0x80)\n      callvalue\n      dup1\n      iszero\n      tag_1\n      jumpi\n      0x00\n      dup1\n      revert\n    tag_1:\n      pop\n      jumpi(tag_2, lt(calldatasize, 0x04))\n      shr(0xe0, calldataload(0x00))\n      dup1\n      0x412b46e4\n      eq\n      tag_3\n      jumpi\n      dup1\n      0xaecf5efd\n      eq\n      tag_4\n      jumpi\n      dup1\n      0xfca5e61e\n      eq\n      tag_5\n      jumpi\n    tag_2:\n      0x00\n      dup1\n      revert\n        /* \"first.sol\":1105:1232  function verifyDrug(uint256 _batchNumber) public view returns (bool) {... */\n    tag_3:\n      tag_6\n      0x04\n      dup1\n      calldatasize\n      sub\n      dup2\n      add\n      swap1\n      tag_7\n      swap2\n      swap1\n      tag_8\n      jump\t// in\n    tag_7:\n      tag_9\n      jump\t// in\n    tag_6:\n      mload(0x40)\n      tag_10\n      swap2\n      swap1\n      tag_11\n      jump\t// in\n    tag_10:\n      mload(0x40)\n      dup1\n      swap2\n      sub\n      swap1\n      return\n        /* \"first.sol\":609:1043  function registerDrug(uint256 _batchNumber, string memory _name, uint256 _manufacturingDate) public {... */\n    tag_4:\n      tag_12\n      0x04\n      dup1\n      calldatasize\n      sub\n      dup2\n      add\n      swap1\n      tag_13\n      swap2\n      swap1\n      tag_14\n      jump\t// in\n    tag_13:\n      tag_15\n      jump\t// in\n    tag_12:\n      stop\n        /* \"first.sol\":356:393  mapping(uint256 => Drug) public drugs */\n    tag_5:\n      tag_16\n      0x04\n      dup1\n      calldatasize\n      sub\n      dup2\n      add\n      swap1\n      tag_17\n      swap2\n      swap1\n      tag_8\n      jump\t// in\n    tag_17:\n      tag_18\n      jump\t// in\n    tag_16:\n      mload(0x40)\n      tag_19\n      swap6\n      swap5\n      swap4\n      swap3\n      swap2\n      swap1\n      tag_20\n      jump\t// in\n    tag_19:\n      mload(0x40)\n      dup1\n      swap2\n      sub\n      swap1\n      return\n        /* \"first.sol\":1105:1232  function verifyDrug(uint256 _batchNumber) public view returns (bool) {... */\n    tag_9:\n        /* \"first.sol\":1168:1172  bool */\n      0x00\n        /* \"first.sol\":1192:1197  drugs */\n      dup1\n        /* \"first.sol\":1192:1211  drugs[_batchNumber] */\n      0x00\n        /* \"first.sol\":1198:1210  _batchNumber */\n      dup4\n        /* \"first.sol\":1192:1211  drugs[_batchNumber] */\n      dup2\n      mstore\n      0x20\n      add\n      swap1\n      dup2\n      mstore\n      0x20\n      add\n      0x00\n      keccak256\n        /* \"first.sol\":1192:1224  drugs[_batchNumber].isRegistered */\n      0x03\n      add\n      0x14\n      swap1\n      sload\n      swap1\n      0x0100\n      exp\n      swap1\n      div\n      0xff\n      and\n        /* \"first.sol\":1185:1224  return drugs[_batchNumber].isRegistered */\n      swap1\n      pop\n        /* \"first.sol\":1105:1232  function verifyDrug(uint256 _batchNumber) public view returns (bool) {... */\n      swap2\n      swap1\n      pop\n      jump\t// out\n        /* \"first.sol\":609:1043  function registerDrug(uint256 _batchNumber, string memory _name, uint256 _manufacturingDate) public {... */\n    tag_15:\n        /* \"first.sol\":729:734  drugs */\n      0x00\n        /* \"first.sol\":729:748  drugs[_batchNumber] */\n      dup1\n        /* \"first.sol\":735:747  _batchNumber */\n      dup5\n        /* \"first.sol\":729:748  drugs[_batchNumber] */\n      dup2\n      mstore\n      0x20\n      add\n      swap1\n      dup2\n      mstore\n      0x20\n      add\n      0x00\n      keccak256\n        /* \"first.sol\":729:761  drugs[_batchNumber].isRegistered */\n      0x03\n      add\n      0x14\n      swap1\n      sload\n      swap1\n      0x0100\n      exp\n      swap1\n      div\n      0xff\n      and\n        /* \"first.sol\":728:761  !drugs[_batchNumber].isRegistered */\n      iszero\n        /* \"first.sol\":720:812  require(!drugs[_batchNumber].isRegistered, \"Drug with this batch number already registered\") */\n      tag_23\n      jumpi\n      mload(0x40)\n      0x08c379a000000000000000000000000000000000000000000000000000000000\n      dup2\n      mstore\n      0x04\n      add\n      tag_24\n      swap1\n      tag_25\n      jump\t// in\n    tag_24:\n      mload(0x40)\n      dup1\n      swap2\n      sub\n      swap1\n      revert\n    tag_23:\n        /* \"first.sol\":825:844  Drug memory newDrug */\n      0x00\n        /* \"first.sol\":847:910  Drug(_batchNumber, _name, _manufacturingDate, msg.sender, true) */\n      mload(0x40)\n      dup1\n      0xa0\n      add\n      0x40\n      mstore\n      dup1\n        /* \"first.sol\":852:864  _batchNumber */\n      dup6\n        /* \"first.sol\":847:910  Drug(_batchNumber, _name, _manufacturingDate, msg.sender, true) */\n      dup2\n      mstore\n      0x20\n      add\n        /* \"first.sol\":866:871  _name */\n      dup5\n        /* \"first.sol\":847:910  Drug(_batchNumber, _name, _manufacturingDate, msg.sender, true) */\n      dup2\n      mstore\n      0x20\n      add\n        /* \"first.sol\":873:891  _manufacturingDate */\n      dup4\n        /* \"first.sol\":847:910  Drug(_batchNumber, _name, _manufacturingDate, msg.sender, true) */\n      dup2\n      mstore\n      0x20\n      add\n        /* \"first.sol\":893:903  msg.sender */\n      caller\n        /* \"first.sol\":847:910  Drug(_batchNumber, _name, _manufacturingDate, msg.sender, true) */\n      0xffffffffffffffffffffffffffffffffffffffff\n      and\n      dup2\n      mstore\n      0x20\n      add\n        /* \"first.sol\":905:909  true */\n      0x01\n        /* \"first.sol\":847:910  Drug(_batchNumber, _name, _manufacturingDate, msg.sender, true) */\n      iszero\n      iszero\n      dup2\n      mstore\n      pop\n        /* \"first.sol\":825:910  Drug memory newDrug = Drug(_batchNumber, _name, _manufacturingDate, msg.sender, true) */\n      swap1\n      pop\n        /* \"first.sol\":943:950  newDrug */\n      dup1\n        /* \"first.sol\":921:926  drugs */\n      0x00\n        /* \"first.sol\":921:940  drugs[_batchNumber] */\n      dup1\n        /* \"first.sol\":927:939  _batchNumber */\n      dup7\n        /* \"first.sol\":921:940  drugs[_batchNumber] */\n      dup2\n      mstore\n      0x20\n      add\n      swap1\n      dup2\n      mstore\n      0x20\n      add\n      0x00\n      keccak256\n        /* \"first.sol\":921:950  drugs[_batchNumber] = newDrug */\n      0x00\n      dup3\n      add\n      mload\n      dup2\n      0x00\n      add\n      sstore\n      0x20\n      dup3\n      add\n      mload\n      dup2\n      0x01\n      add\n      swap1\n      dup2\n      tag_26\n      swap2\n      swap1\n      tag_27\n      jump\t// in\n    tag_26:\n      pop\n      0x40\n      dup3\n      add\n      mload\n      dup2\n      0x02\n      add\n      sstore\n      0x60\n      dup3\n      add\n      mload\n      dup2\n      0x03\n      add\n      exp(0x0100, 0x00)\n      dup2\n      sload\n      dup2\n      0xffffffffffffffffffffffffffffffffffffffff\n      mul\n      not\n      and\n      swap1\n      dup4\n      0xffffffffffffffffffffffffffffffffffffffff\n      and\n      mul\n      or\n      swap1\n      sstore\n      pop\n      0x80\n      dup3\n      add\n      mload\n      dup2\n      0x03\n      add\n      exp(0x0100, 0x14)\n      dup2\n      sload\n      dup2\n      0xff\n      mul\n      not\n      and\n      swap1\n      dup4\n      iszero\n      iszero\n      mul\n      or\n      swap1\n      sstore\n      pop\n      swap1\n      pop\n      pop\n        /* \"first.sol\":983:995  _batchNumber */\n      dup4\n        /* \"first.sol\":968:1035  DrugRegistered(_batchNumber, _name, _manufacturingDate, msg.sender) */\n      0x09c2d004856187b64755ea1e296c13e718698037c4d5e5fd4aa5933c0b332f56\n        /* \"first.sol\":997:1002  _name */\n      dup5\n        /* \"first.sol\":1004:1022  _manufacturingDate */\n      dup5\n        /* \"first.sol\":1024:1034  msg.sender */\n      caller\n        /* \"first.sol\":968:1035  DrugRegistered(_batchNumber, _name, _manufacturingDate, msg.sender) */\n      mload(0x40)\n      tag_28\n      swap4\n      swap3\n      swap2\n      swap1\n      tag_29\n      jump\t// in\n    tag_28:\n      mload(0x40)\n      dup1\n      swap2\n      sub\n      swap1\n      log2\n        /* \"first.sol\":709:1043  {... */\n      pop\n        /* \"first.sol\":609:1043  function registerDrug(uint256 _batchNumber, string memory _name, uint256 _manufacturingDate) public {... */\n      pop\n      pop\n      pop\n      jump\t// out\n        /* \"first.sol\":356:393  mapping(uint256 => Drug) public drugs */\n    tag_18:\n      mstore(0x20, 0x00)\n      dup1\n      0x00\n      mstore\n      keccak256(0x00, 0x40)\n      0x00\n      swap2\n      pop\n      swap1\n      pop\n      dup1\n      0x00\n      add\n      sload\n      swap1\n      dup1\n      0x01\n      add\n      dup1\n      sload\n      tag_30\n      swap1\n      tag_31\n      jump\t// in\n    tag_30:\n      dup1\n      0x1f\n      add\n      0x20\n      dup1\n      swap2\n      div\n      mul\n      0x20\n      add\n      mload(0x40)\n      swap1\n      dup2\n      add\n      0x40\n      mstore\n      dup1\n      swap3\n      swap2\n      swap1\n      dup2\n      dup2\n      mstore\n      0x20\n      add\n      dup3\n      dup1\n      sload\n      tag_32\n      swap1\n      tag_31\n      jump\t// in\n    tag_32:\n      dup1\n      iszero\n      tag_33\n      jumpi\n      dup1\n      0x1f\n      lt\n      tag_34\n      jumpi\n      0x0100\n      dup1\n      dup4\n      sload\n      div\n      mul\n      dup4\n      mstore\n      swap2\n      0x20\n      add\n      swap2\n      jump(tag_33)\n    tag_34:\n      dup3\n      add\n      swap2\n      swap1\n      0x00\n      mstore\n      keccak256(0x00, 0x20)\n      swap1\n    tag_35:\n      dup2\n      sload\n      dup2\n      mstore\n      swap1\n      0x01\n      add\n      swap1\n      0x20\n      add\n      dup1\n      dup4\n      gt\n      tag_35\n      jumpi\n      dup3\n      swap1\n      sub\n      0x1f\n      and\n      dup3\n      add\n      swap2\n    tag_33:\n      pop\n      pop\n      pop\n      pop\n      pop\n      swap1\n      dup1\n      0x02\n      add\n      sload\n      swap1\n      dup1\n      0x03\n      add\n      0x00\n      swap1\n      sload\n      swap1\n      0x0100\n      exp\n      swap1\n      div\n      0xffffffffffffffffffffffffffffffffffffffff\n      and\n      swap1\n      dup1\n      0x03\n      add\n      0x14\n      swap1\n      sload\n      swap1\n      0x0100\n      exp\n      swap1\n      div\n      0xff\n      and\n      swap1\n      pop\n      dup6\n      jump\t// out\n        /* \"#utility.yul\":7:82   */\n    tag_36:\n        /* \"#utility.yul\":40:46   */\n      0x00\n        /* \"#utility.yul\":73:75   */\n      0x40\n        /* \"#utility.yul\":67:76   */\n      mload\n        /* \"#utility.yul\":57:76   */\n      swap1\n      pop\n        /* \"#utility.yul\":7:82   */\n      swap1\n      jump\t// out\n        /* \"#utility.yul\":88:205   */\n    tag_37:\n        /* \"#utility.yul\":197:198   */\n      0x00\n        /* \"#utility.yul\":194:195   */\n      dup1\n        /* \"#utility.yul\":187:199   */\n      revert\n        /* \"#utility.yul\":211:328   */\n    tag_38:\n        /* \"#utility.yul\":320:321   */\n      0x00\n        /* \"#utility.yul\":317:318   */\n      dup1\n        /* \"#utility.yul\":310:322   */\n      revert\n        /* \"#utility.yul\":334:411   */\n    tag_39:\n        /* \"#utility.yul\":371:378   */\n      0x00\n        /* \"#utility.yul\":400:405   */\n      dup2\n        /* \"#utility.yul\":389:405   */\n      swap1\n      pop\n        /* \"#utility.yul\":334:411   */\n      swap2\n      swap1\n      pop\n      jump\t// out\n        /* \"#utility.yul\":417:539   */\n    tag_40:\n        /* \"#utility.yul\":490:514   */\n      tag_86\n        /* \"#utility.yul\":508:513   */\n      dup2\n        /* \"#utility.yul\":490:514   */\n      tag_39\n      jump\t// in\n    tag_86:\n        /* \"#utility.yul\":483:488   */\n      dup2\n        /* \"#utility.yul\":480:515   */\n      eq\n        /* \"#utility.yul\":470:533   */\n      tag_87\n      jumpi\n        /* \"#utility.yul\":529:530   */\n      0x00\n        /* \"#utility.yul\":526:527   */\n      dup1\n        /* \"#utility.yul\":519:531   */\n      revert\n        /* \"#utility.yul\":470:533   */\n    tag_87:\n        /* \"#utility.yul\":417:539   */\n      pop\n      jump\t// out\n        /* \"#utility.yul\":545:684   */\n    tag_41:\n        /* \"#utility.yul\":591:596   */\n      0x00\n        /* \"#utility.yul\":629:635   */\n      dup2\n        /* \"#utility.yul\":616:636   */\n      calldataload\n        /* \"#utility.yul\":607:636   */\n      swap1\n      pop\n        /* \"#utility.yul\":645:678   */\n      tag_89\n        /* \"#utility.yul\":672:677   */\n      dup2\n        /* \"#utility.yul\":645:678   */\n      tag_40\n      jump\t// in\n    tag_89:\n        /* \"#utility.yul\":545:684   */\n      swap3\n      swap2\n      pop\n      pop\n      jump\t// out\n        /* \"#utility.yul\":690:1019   */\n    tag_8:\n        /* \"#utility.yul\":749:755   */\n      0x00\n        /* \"#utility.yul\":798:800   */\n      0x20\n        /* \"#utility.yul\":786:795   */\n      dup3\n        /* \"#utility.yul\":777:784   */\n      dup5\n        /* \"#utility.yul\":773:796   */\n      sub\n        /* \"#utility.yul\":769:801   */\n      slt\n        /* \"#utility.yul\":766:885   */\n      iszero\n      tag_91\n      jumpi\n        /* \"#utility.yul\":804:883   */\n      tag_92\n      tag_37\n      jump\t// in\n    tag_92:\n        /* \"#utility.yul\":766:885   */\n    tag_91:\n        /* \"#utility.yul\":924:925   */\n      0x00\n        /* \"#utility.yul\":949:1002   */\n      tag_93\n        /* \"#utility.yul\":994:1001   */\n      dup5\n        /* \"#utility.yul\":985:991   */\n      dup3\n        /* \"#utility.yul\":974:983   */\n      dup6\n        /* \"#utility.yul\":970:992   */\n      add\n        /* \"#utility.yul\":949:1002   */\n      tag_41\n      jump\t// in\n    tag_93:\n        /* \"#utility.yul\":939:1002   */\n      swap2\n      pop\n        /* \"#utility.yul\":895:1012   */\n      pop\n        /* \"#utility.yul\":690:1019   */\n      swap3\n      swap2\n      pop\n      pop\n      jump\t// out\n        /* \"#utility.yul\":1025:1115   */\n    tag_42:\n        /* \"#utility.yul\":1059:1066   */\n      0x00\n        /* \"#utility.yul\":1102:1107   */\n      dup2\n        /* \"#utility.yul\":1095:1108   */\n      iszero\n        /* \"#utility.yul\":1088:1109   */\n      iszero\n        /* \"#utility.yul\":1077:1109   */\n      swap1\n      pop\n        /* \"#utility.yul\":1025:1115   */\n      swap2\n      swap1\n      pop\n      jump\t// out\n        /* \"#utility.yul\":1121:1230   */\n    tag_43:\n        /* \"#utility.yul\":1202:1223   */\n      tag_96\n        /* \"#utility.yul\":1217:1222   */\n      dup2\n        /* \"#utility.yul\":1202:1223   */\n      tag_42\n      jump\t// in\n    tag_96:\n        /* \"#utility.yul\":1197:1200   */\n      dup3\n        /* \"#utility.yul\":1190:1224   */\n      mstore\n        /* \"#utility.yul\":1121:1230   */\n      pop\n      pop\n      jump\t// out\n        /* \"#utility.yul\":1236:1446   */\n    tag_11:\n        /* \"#utility.yul\":1323:1327   */\n      0x00\n        /* \"#utility.yul\":1361:1363   */\n      0x20\n        /* \"#utility.yul\":1350:1359   */\n      dup3\n        /* \"#utility.yul\":1346:1364   */\n      add\n        /* \"#utility.yul\":1338:1364   */\n      swap1\n      pop\n        /* \"#utility.yul\":1374:1439   */\n      tag_98\n        /* \"#utility.yul\":1436:1437   */\n      0x00\n        /* \"#utility.yul\":1425:1434   */\n      dup4\n        /* \"#utility.yul\":1421:1438   */\n      add\n        /* \"#utility.yul\":1412:1418   */\n      dup5\n        /* \"#utility.yul\":1374:1439   */\n      tag_43\n      jump\t// in\n    tag_98:\n        /* \"#utility.yul\":1236:1446   */\n      swap3\n      swap2\n      pop\n      pop\n      jump\t// out\n        /* \"#utility.yul\":1452:1569   */\n    tag_44:\n        /* \"#utility.yul\":1561:1562   */\n      0x00\n        /* \"#utility.yul\":1558:1559   */\n      dup1\n        /* \"#utility.yul\":1551:1563   */\n      revert\n        /* \"#utility.yul\":1575:1692   */\n    tag_45:\n        /* \"#utility.yul\":1684:1685   */\n      0x00\n        /* \"#utility.yul\":1681:1682   */\n      dup1\n        /* \"#utility.yul\":1674:1686   */\n      revert\n        /* \"#utility.yul\":1698:1800   */\n    tag_46:\n        /* \"#utility.yul\":1739:1745   */\n      0x00\n        /* \"#utility.yul\":1790:1792   */\n      0x1f\n        /* \"#utility.yul\":1786:1793   */\n      not\n        /* \"#utility.yul\":1781:1783   */\n      0x1f\n        /* \"#utility.yul\":1774:1779   */\n      dup4\n        /* \"#utility.yul\":1770:1784   */\n      add\n        /* \"#utility.yul\":1766:1794   */\n      and\n        /* \"#utility.yul\":1756:1794   */\n      swap1\n      pop\n        /* \"#utility.yul\":1698:1800   */\n      swap2\n      swap1\n      pop\n      jump\t// out\n        /* \"#utility.yul\":1806:1986   */\n    tag_47:\n        /* \"#utility.yul\":1854:1931   */\n      0x4e487b7100000000000000000000000000000000000000000000000000000000\n        /* \"#utility.yul\":1851:1852   */\n      0x00\n        /* \"#utility.yul\":1844:1932   */\n      mstore\n        /* \"#utility.yul\":1951:1955   */\n      0x41\n        /* \"#utility.yul\":1948:1949   */\n      0x04\n        /* \"#utility.yul\":1941:1956   */\n      mstore\n        /* \"#utility.yul\":1975:1979   */\n      0x24\n        /* \"#utility.yul\":1972:1973   */\n      0x00\n        /* \"#utility.yul\":1965:1980   */\n      revert\n        /* \"#utility.yul\":1992:2273   */\n    tag_48:\n        /* \"#utility.yul\":2075:2102   */\n      tag_104\n        /* \"#utility.yul\":2097:2101   */\n      dup3\n        /* \"#utility.yul\":2075:2102   */\n      tag_46\n      jump\t// in\n    tag_104:\n        /* \"#utility.yul\":2067:2073   */\n      dup2\n        /* \"#utility.yul\":2063:2103   */\n      add\n        /* \"#utility.yul\":2205:2211   */\n      dup2\n        /* \"#utility.yul\":2193:2203   */\n      dup2\n        /* \"#utility.yul\":2190:2212   */\n      lt\n        /* \"#utility.yul\":2169:2187   */\n      0xffffffffffffffff\n        /* \"#utility.yul\":2157:2167   */\n      dup3\n        /* \"#utility.yul\":2154:2188   */\n      gt\n        /* \"#utility.yul\":2151:2213   */\n      or\n        /* \"#utility.yul\":2148:2236   */\n      iszero\n      tag_105\n      jumpi\n        /* \"#utility.yul\":2216:2234   */\n      tag_106\n      tag_47\n      jump\t// in\n    tag_106:\n        /* \"#utility.yul\":2148:2236   */\n    tag_105:\n        /* \"#utility.yul\":2256:2266   */\n      dup1\n        /* \"#utility.yul\":2252:2254   */\n      0x40\n        /* \"#utility.yul\":2245:2267   */\n      mstore\n        /* \"#utility.yul\":2035:2273   */\n      pop\n        /* \"#utility.yul\":1992:2273   */\n      pop\n      pop\n      jump\t// out\n        /* \"#utility.yul\":2279:2408   */\n    tag_49:\n        /* \"#utility.yul\":2313:2319   */\n      0x00\n        /* \"#utility.yul\":2340:2360   */\n      tag_108\n      tag_36\n      jump\t// in\n    tag_108:\n        /* \"#utility.yul\":2330:2360   */\n      swap1\n      pop\n        /* \"#utility.yul\":2369:2402   */\n      tag_109\n        /* \"#utility.yul\":2397:2401   */\n      dup3\n        /* \"#utility.yul\":2389:2395   */\n      dup3\n        /* \"#utility.yul\":2369:2402   */\n      tag_48\n      jump\t// in\n    tag_109:\n        /* \"#utility.yul\":2279:2408   */\n      swap2\n      swap1\n      pop\n      jump\t// out\n        /* \"#utility.yul\":2414:2722   */\n    tag_50:\n        /* \"#utility.yul\":2476:2480   */\n      0x00\n        /* \"#utility.yul\":2566:2584   */\n      0xffffffffffffffff\n        /* \"#utility.yul\":2558:2564   */\n      dup3\n        /* \"#utility.yul\":2555:2585   */\n      gt\n        /* \"#utility.yul\":2552:2608   */\n      iszero\n      tag_111\n      jumpi\n        /* \"#utility.yul\":2588:2606   */\n      tag_112\n      tag_47\n      jump\t// in\n    tag_112:\n        /* \"#utility.yul\":2552:2608   */\n    tag_111:\n        /* \"#utility.yul\":2626:2655   */\n      tag_113\n        /* \"#utility.yul\":2648:2654   */\n      dup3\n        /* \"#utility.yul\":2626:2655   */\n      tag_46\n      jump\t// in\n    tag_113:\n        /* \"#utility.yul\":2618:2655   */\n      swap1\n      pop\n        /* \"#utility.yul\":2710:2714   */\n      0x20\n        /* \"#utility.yul\":2704:2708   */\n      dup2\n        /* \"#utility.yul\":2700:2715   */\n      add\n        /* \"#utility.yul\":2692:2715   */\n      swap1\n      pop\n        /* \"#utility.yul\":2414:2722   */\n      swap2\n      swap1\n      pop\n      jump\t// out\n        /* \"#utility.yul\":2728:2876   */\n    tag_51:\n        /* \"#utility.yul\":2826:2832   */\n      dup3\n        /* \"#utility.yul\":2821:2824   */\n      dup2\n        /* \"#utility.yul\":2816:2819   */\n      dup4\n        /* \"#utility.yul\":2803:2833   */\n      calldatacopy\n        /* \"#utility.yul\":2867:2868   */\n      0x00\n        /* \"#utility.yul\":2858:2864   */\n      dup4\n        /* \"#utility.yul\":2853:2856   */\n      dup4\n        /* \"#utility.yul\":2849:2865   */\n      add\n        /* \"#utility.yul\":2842:2869   */\n      mstore\n        /* \"#utility.yul\":2728:2876   */\n      pop\n      pop\n      pop\n      jump\t// out\n        /* \"#utility.yul\":2882:3307   */\n    tag_52:\n        /* \"#utility.yul\":2960:2965   */\n      0x00\n        /* \"#utility.yul\":2985:3051   */\n      tag_116\n        /* \"#utility.yul\":3001:3050   */\n      tag_117\n        /* \"#utility.yul\":3043:3049   */\n      dup5\n        /* \"#utility.yul\":3001:3050   */\n      tag_50\n      jump\t// in\n    tag_117:\n        /* \"#utility.yul\":2985:3051   */\n      tag_49\n      jump\t// in\n    tag_116:\n        /* \"#utility.yul\":2976:3051   */\n      swap1\n      pop\n        /* \"#utility.yul\":3074:3080   */\n      dup3\n        /* \"#utility.yul\":3067:3072   */\n      dup2\n        /* \"#utility.yul\":3060:3081   */\n      mstore\n        /* \"#utility.yul\":3112:3116   */\n      0x20\n        /* \"#utility.yul\":3105:3110   */\n      dup2\n        /* \"#utility.yul\":3101:3117   */\n      add\n        /* \"#utility.yul\":3150:3153   */\n      dup5\n        /* \"#utility.yul\":3141:3147   */\n      dup5\n        /* \"#utility.yul\":3136:3139   */\n      dup5\n        /* \"#utility.yul\":3132:3148   */\n      add\n        /* \"#utility.yul\":3129:3154   */\n      gt\n        /* \"#utility.yul\":3126:3238   */\n      iszero\n      tag_118\n      jumpi\n        /* \"#utility.yul\":3157:3236   */\n      tag_119\n      tag_45\n      jump\t// in\n    tag_119:\n        /* \"#utility.yul\":3126:3238   */\n    tag_118:\n        /* \"#utility.yul\":3247:3301   */\n      tag_120\n        /* \"#utility.yul\":3294:3300   */\n      dup5\n        /* \"#utility.yul\":3289:3292   */\n      dup3\n        /* \"#utility.yul\":3284:3287   */\n      dup6\n        /* \"#utility.yul\":3247:3301   */\n      tag_51\n      jump\t// in\n    tag_120:\n        /* \"#utility.yul\":2966:3307   */\n      pop\n        /* \"#utility.yul\":2882:3307   */\n      swap4\n      swap3\n      pop\n      pop\n      pop\n      jump\t// out\n        /* \"#utility.yul\":3327:3667   */\n    tag_53:\n        /* \"#utility.yul\":3383:3388   */\n      0x00\n        /* \"#utility.yul\":3432:3435   */\n      dup3\n        /* \"#utility.yul\":3425:3429   */\n      0x1f\n        /* \"#utility.yul\":3417:3423   */\n      dup4\n        /* \"#utility.yul\":3413:3430   */\n      add\n        /* \"#utility.yul\":3409:3436   */\n      slt\n        /* \"#utility.yul\":3399:3521   */\n      tag_122\n      jumpi\n        /* \"#utility.yul\":3440:3519   */\n      tag_123\n      tag_44\n      jump\t// in\n    tag_123:\n        /* \"#utility.yul\":3399:3521   */\n    tag_122:\n        /* \"#utility.yul\":3557:3563   */\n      dup2\n        /* \"#utility.yul\":3544:3564   */\n      calldataload\n        /* \"#utility.yul\":3582:3661   */\n      tag_124\n        /* \"#utility.yul\":3657:3660   */\n      dup5\n        /* \"#utility.yul\":3649:3655   */\n      dup3\n        /* \"#utility.yul\":3642:3646   */\n      0x20\n        /* \"#utility.yul\":3634:3640   */\n      dup7\n        /* \"#utility.yul\":3630:3647   */\n      add\n        /* \"#utility.yul\":3582:3661   */\n      tag_52\n      jump\t// in\n    tag_124:\n        /* \"#utility.yul\":3573:3661   */\n      swap2\n      pop\n        /* \"#utility.yul\":3389:3667   */\n      pop\n        /* \"#utility.yul\":3327:3667   */\n      swap3\n      swap2\n      pop\n      pop\n      jump\t// out\n        /* \"#utility.yul\":3673:4472   */\n    tag_14:\n        /* \"#utility.yul\":3760:3766   */\n      0x00\n        /* \"#utility.yul\":3768:3774   */\n      dup1\n        /* \"#utility.yul\":3776:3782   */\n      0x00\n        /* \"#utility.yul\":3825:3827   */\n      0x60\n        /* \"#utility.yul\":3813:3822   */\n      dup5\n        /* \"#utility.yul\":3804:3811   */\n      dup7\n        /* \"#utility.yul\":3800:3823   */\n      sub\n        /* \"#utility.yul\":3796:3828   */\n      slt\n        /* \"#utility.yul\":3793:3912   */\n      iszero\n      tag_126\n      jumpi\n        /* \"#utility.yul\":3831:3910   */\n      tag_127\n      tag_37\n      jump\t// in\n    tag_127:\n        /* \"#utility.yul\":3793:3912   */\n    tag_126:\n        /* \"#utility.yul\":3951:3952   */\n      0x00\n        /* \"#utility.yul\":3976:4029   */\n      tag_128\n        /* \"#utility.yul\":4021:4028   */\n      dup7\n        /* \"#utility.yul\":4012:4018   */\n      dup3\n        /* \"#utility.yul\":4001:4010   */\n      dup8\n        /* \"#utility.yul\":3997:4019   */\n      add\n        /* \"#utility.yul\":3976:4029   */\n      tag_41\n      jump\t// in\n    tag_128:\n        /* \"#utility.yul\":3966:4029   */\n      swap4\n      pop\n        /* \"#utility.yul\":3922:4039   */\n      pop\n        /* \"#utility.yul\":4106:4108   */\n      0x20\n        /* \"#utility.yul\":4095:4104   */\n      dup5\n        /* \"#utility.yul\":4091:4109   */\n      add\n        /* \"#utility.yul\":4078:4110   */\n      calldataload\n        /* \"#utility.yul\":4137:4155   */\n      0xffffffffffffffff\n        /* \"#utility.yul\":4129:4135   */\n      dup2\n        /* \"#utility.yul\":4126:4156   */\n      gt\n        /* \"#utility.yul\":4123:4240   */\n      iszero\n      tag_129\n      jumpi\n        /* \"#utility.yul\":4159:4238   */\n      tag_130\n      tag_38\n      jump\t// in\n    tag_130:\n        /* \"#utility.yul\":4123:4240   */\n    tag_129:\n        /* \"#utility.yul\":4264:4327   */\n      tag_131\n        /* \"#utility.yul\":4319:4326   */\n      dup7\n        /* \"#utility.yul\":4310:4316   */\n      dup3\n        /* \"#utility.yul\":4299:4308   */\n      dup8\n        /* \"#utility.yul\":4295:4317   */\n      add\n        /* \"#utility.yul\":4264:4327   */\n      tag_53\n      jump\t// in\n    tag_131:\n        /* \"#utility.yul\":4254:4327   */\n      swap3\n      pop\n        /* \"#utility.yul\":4049:4337   */\n      pop\n        /* \"#utility.yul\":4376:4378   */\n      0x40\n        /* \"#utility.yul\":4402:4455   */\n      tag_132\n        /* \"#utility.yul\":4447:4454   */\n      dup7\n        /* \"#utility.yul\":4438:4444   */\n      dup3\n        /* \"#utility.yul\":4427:4436   */\n      dup8\n        /* \"#utility.yul\":4423:4445   */\n      add\n        /* \"#utility.yul\":4402:4455   */\n      tag_41\n      jump\t// in\n    tag_132:\n        /* \"#utility.yul\":4392:4455   */\n      swap2\n      pop\n        /* \"#utility.yul\":4347:4465   */\n      pop\n        /* \"#utility.yul\":3673:4472   */\n      swap3\n      pop\n      swap3\n      pop\n      swap3\n      jump\t// out\n        /* \"#utility.yul\":4478:4596   */\n    tag_54:\n        /* \"#utility.yul\":4565:4589   */\n      tag_134\n        /* \"#utility.yul\":4583:4588   */\n      dup2\n        /* \"#utility.yul\":4565:4589   */\n      tag_39\n      jump\t// in\n    tag_134:\n        /* \"#utility.yul\":4560:4563   */\n      dup3\n        /* \"#utility.yul\":4553:4590   */\n      mstore\n        /* \"#utility.yul\":4478:4596   */\n      pop\n      pop\n      jump\t// out\n        /* \"#utility.yul\":4602:4701   */\n    tag_55:\n        /* \"#utility.yul\":4654:4660   */\n      0x00\n        /* \"#utility.yul\":4688:4693   */\n      dup2\n        /* \"#utility.yul\":4682:4694   */\n      mload\n        /* \"#utility.yul\":4672:4694   */\n      swap1\n      pop\n        /* \"#utility.yul\":4602:4701   */\n      swap2\n      swap1\n      pop\n      jump\t// out\n        /* \"#utility.yul\":4707:4876   */\n    tag_56:\n        /* \"#utility.yul\":4791:4802   */\n      0x00\n        /* \"#utility.yul\":4825:4831   */\n      dup3\n        /* \"#utility.yul\":4820:4823   */\n      dup3\n        /* \"#utility.yul\":4813:4832   */\n      mstore\n        /* \"#utility.yul\":4865:4869   */\n      0x20\n        /* \"#utility.yul\":4860:4863   */\n      dup3\n        /* \"#utility.yul\":4856:4870   */\n      add\n        /* \"#utility.yul\":4841:4870   */\n      swap1\n      pop\n        /* \"#utility.yul\":4707:4876   */\n      swap3\n      swap2\n      pop\n      pop\n      jump\t// out\n        /* \"#utility.yul\":4882:5021   */\n    tag_57:\n        /* \"#utility.yul\":4971:4977   */\n      dup3\n        /* \"#utility.yul\":4966:4969   */\n      dup2\n        /* \"#utility.yul\":4961:4964   */\n      dup4\n        /* \"#utility.yul\":4955:4978   */\n      mcopy\n        /* \"#utility.yul\":5012:5013   */\n      0x00\n        /* \"#utility.yul\":5003:5009   */\n      dup4\n        /* \"#utility.yul\":4998:5001   */\n      dup4\n        /* \"#utility.yul\":4994:5010   */\n      add\n        /* \"#utility.yul\":4987:5014   */\n      mstore\n        /* \"#utility.yul\":4882:5021   */\n      pop\n      pop\n      pop\n      jump\t// out\n        /* \"#utility.yul\":5027:5404   */\n    tag_58:\n        /* \"#utility.yul\":5115:5118   */\n      0x00\n        /* \"#utility.yul\":5143:5182   */\n      tag_139\n        /* \"#utility.yul\":5176:5181   */\n      dup3\n        /* \"#utility.yul\":5143:5182   */\n      tag_55\n      jump\t// in\n    tag_139:\n        /* \"#utility.yul\":5198:5269   */\n      tag_140\n        /* \"#utility.yul\":5262:5268   */\n      dup2\n        /* \"#utility.yul\":5257:5260   */\n      dup6\n        /* \"#utility.yul\":5198:5269   */\n      tag_56\n      jump\t// in\n    tag_140:\n        /* \"#utility.yul\":5191:5269   */\n      swap4\n      pop\n        /* \"#utility.yul\":5278:5343   */\n      tag_141\n        /* \"#utility.yul\":5336:5342   */\n      dup2\n        /* \"#utility.yul\":5331:5334   */\n      dup6\n        /* \"#utility.yul\":5324:5328   */\n      0x20\n        /* \"#utility.yul\":5317:5322   */\n      dup7\n        /* \"#utility.yul\":5313:5329   */\n      add\n        /* \"#utility.yul\":5278:5343   */\n      tag_57\n      jump\t// in\n    tag_141:\n        /* \"#utility.yul\":5368:5397   */\n      tag_142\n        /* \"#utility.yul\":5390:5396   */\n      dup2\n        /* \"#utility.yul\":5368:5397   */\n      tag_46\n      jump\t// in\n    tag_142:\n        /* \"#utility.yul\":5363:5366   */\n      dup5\n        /* \"#utility.yul\":5359:5398   */\n      add\n        /* \"#utility.yul\":5352:5398   */\n      swap2\n      pop\n        /* \"#utility.yul\":5119:5404   */\n      pop\n        /* \"#utility.yul\":5027:5404   */\n      swap3\n      swap2\n      pop\n      pop\n      jump\t// out\n        /* \"#utility.yul\":5410:5536   */\n    tag_59:\n        /* \"#utility.yul\":5447:5454   */\n      0x00\n        /* \"#utility.yul\":5487:5529   */\n      0xffffffffffffffffffffffffffffffffffffffff\n        /* \"#utility.yul\":5480:5485   */\n      dup3\n        /* \"#utility.yul\":5476:5530   */\n      and\n        /* \"#utility.yul\":5465:5530   */\n      swap1\n      pop\n        /* \"#utility.yul\":5410:5536   */\n      swap2\n      swap1\n      pop\n      jump\t// out\n        /* \"#utility.yul\":5542:5638   */\n    tag_60:\n        /* \"#utility.yul\":5579:5586   */\n      0x00\n        /* \"#utility.yul\":5608:5632   */\n      tag_145\n        /* \"#utility.yul\":5626:5631   */\n      dup3\n        /* \"#utility.yul\":5608:5632   */\n      tag_59\n      jump\t// in\n    tag_145:\n        /* \"#utility.yul\":5597:5632   */\n      swap1\n      pop\n        /* \"#utility.yul\":5542:5638   */\n      swap2\n      swap1\n      pop\n      jump\t// out\n        /* \"#utility.yul\":5644:5762   */\n    tag_61:\n        /* \"#utility.yul\":5731:5755   */\n      tag_147\n        /* \"#utility.yul\":5749:5754   */\n      dup2\n        /* \"#utility.yul\":5731:5755   */\n      tag_60\n      jump\t// in\n    tag_147:\n        /* \"#utility.yul\":5726:5729   */\n      dup3\n        /* \"#utility.yul\":5719:5756   */\n      mstore\n        /* \"#utility.yul\":5644:5762   */\n      pop\n      pop\n      jump\t// out\n        /* \"#utility.yul\":5768:6511   */\n    tag_20:\n        /* \"#utility.yul\":5987:5991   */\n      0x00\n        /* \"#utility.yul\":6025:6028   */\n      0xa0\n        /* \"#utility.yul\":6014:6023   */\n      dup3\n        /* \"#utility.yul\":6010:6029   */\n      add\n        /* \"#utility.yul\":6002:6029   */\n      swap1\n      pop\n        /* \"#utility.yul\":6039:6110   */\n      tag_149\n        /* \"#utility.yul\":6107:6108   */\n      0x00\n        /* \"#utility.yul\":6096:6105   */\n      dup4\n        /* \"#utility.yul\":6092:6109   */\n      add\n        /* \"#utility.yul\":6083:6089   */\n      dup9\n        /* \"#utility.yul\":6039:6110   */\n      tag_54\n      jump\t// in\n    tag_149:\n        /* \"#utility.yul\":6157:6166   */\n      dup2\n        /* \"#utility.yul\":6151:6155   */\n      dup2\n        /* \"#utility.yul\":6147:6167   */\n      sub\n        /* \"#utility.yul\":6142:6144   */\n      0x20\n        /* \"#utility.yul\":6131:6140   */\n      dup4\n        /* \"#utility.yul\":6127:6145   */\n      add\n        /* \"#utility.yul\":6120:6168   */\n      mstore\n        /* \"#utility.yul\":6185:6263   */\n      tag_150\n        /* \"#utility.yul\":6258:6262   */\n      dup2\n        /* \"#utility.yul\":6249:6255   */\n      dup8\n        /* \"#utility.yul\":6185:6263   */\n      tag_58\n      jump\t// in\n    tag_150:\n        /* \"#utility.yul\":6177:6263   */\n      swap1\n      pop\n        /* \"#utility.yul\":6273:6345   */\n      tag_151\n        /* \"#utility.yul\":6341:6343   */\n      0x40\n        /* \"#utility.yul\":6330:6339   */\n      dup4\n        /* \"#utility.yul\":6326:6344   */\n      add\n        /* \"#utility.yul\":6317:6323   */\n      dup7\n        /* \"#utility.yul\":6273:6345   */\n      tag_54\n      jump\t// in\n    tag_151:\n        /* \"#utility.yul\":6355:6427   */\n      tag_152\n        /* \"#utility.yul\":6423:6425   */\n      0x60\n        /* \"#utility.yul\":6412:6421   */\n      dup4\n        /* \"#utility.yul\":6408:6426   */\n      add\n        /* \"#utility.yul\":6399:6405   */\n      dup6\n        /* \"#utility.yul\":6355:6427   */\n      tag_61\n      jump\t// in\n    tag_152:\n        /* \"#utility.yul\":6437:6504   */\n      tag_153\n        /* \"#utility.yul\":6499:6502   */\n      0x80\n        /* \"#utility.yul\":6488:6497   */\n      dup4\n        /* \"#utility.yul\":6484:6503   */\n      add\n        /* \"#utility.yul\":6475:6481   */\n      dup5\n        /* \"#utility.yul\":6437:6504   */\n      tag_43\n      jump\t// in\n    tag_153:\n        /* \"#utility.yul\":5768:6511   */\n      swap7\n      swap6\n      pop\n      pop\n      pop\n      pop\n      pop\n      pop\n      jump\t// out\n        /* \"#utility.yul\":6517:6750   */\n    tag_62:\n        /* \"#utility.yul\":6657:6691   */\n      0x4472756720776974682074686973206261746368206e756d62657220616c7265\n        /* \"#utility.yul\":6653:6654   */\n      0x00\n        /* \"#utility.yul\":6645:6651   */\n      dup3\n        /* \"#utility.yul\":6641:6655   */\n      add\n        /* \"#utility.yul\":6634:6692   */\n      mstore\n        /* \"#utility.yul\":6726:6742   */\n      0x6164792072656769737465726564000000000000000000000000000000000000\n        /* \"#utility.yul\":6721:6723   */\n      0x20\n        /* \"#utility.yul\":6713:6719   */\n      dup3\n        /* \"#utility.yul\":6709:6724   */\n      add\n        /* \"#utility.yul\":6702:6743   */\n      mstore\n        /* \"#utility.yul\":6517:6750   */\n      pop\n      jump\t// out\n        /* \"#utility.yul\":6756:7122   */\n    tag_63:\n        /* \"#utility.yul\":6898:6901   */\n      0x00\n        /* \"#utility.yul\":6919:6986   */\n      tag_156\n        /* \"#utility.yul\":6983:6985   */\n      0x2e\n        /* \"#utility.yul\":6978:6981   */\n      dup4\n        /* \"#utility.yul\":6919:6986   */\n      tag_56\n      jump\t// in\n    tag_156:\n        /* \"#utility.yul\":6912:6986   */\n      swap2\n      pop\n        /* \"#utility.yul\":6995:7088   */\n      tag_157\n        /* \"#utility.yul\":7084:7087   */\n      dup3\n        /* \"#utility.yul\":6995:7088   */\n      tag_62\n      jump\t// in\n    tag_157:\n        /* \"#utility.yul\":7113:7115   */\n      0x40\n        /* \"#utility.yul\":7108:7111   */\n      dup3\n        /* \"#utility.yul\":7104:7116   */\n      add\n        /* \"#utility.yul\":7097:7116   */\n      swap1\n      pop\n        /* \"#utility.yul\":6756:7122   */\n      swap2\n      swap1\n      pop\n      jump\t// out\n        /* \"#utility.yul\":7128:7547   */\n    tag_25:\n        /* \"#utility.yul\":7294:7298   */\n      0x00\n        /* \"#utility.yul\":7332:7334   */\n      0x20\n        /* \"#utility.yul\":7321:7330   */\n      dup3\n        /* \"#utility.yul\":7317:7335   */\n      add\n        /* \"#utility.yul\":7309:7335   */\n      swap1\n      pop\n        /* \"#utility.yul\":7381:7390   */\n      dup2\n        /* \"#utility.yul\":7375:7379   */\n      dup2\n        /* \"#utility.yul\":7371:7391   */\n      sub\n        /* \"#utility.yul\":7367:7368   */\n      0x00\n        /* \"#utility.yul\":7356:7365   */\n      dup4\n        /* \"#utility.yul\":7352:7369   */\n      add\n        /* \"#utility.yul\":7345:7392   */\n      mstore\n        /* \"#utility.yul\":7409:7540   */\n      tag_159\n        /* \"#utility.yul\":7535:7539   */\n      dup2\n        /* \"#utility.yul\":7409:7540   */\n      tag_63\n      jump\t// in\n    tag_159:\n        /* \"#utility.yul\":7401:7540   */\n      swap1\n      pop\n        /* \"#utility.yul\":7128:7547   */\n      swap2\n      swap1\n      pop\n      jump\t// out\n        /* \"#utility.yul\":7553:7733   */\n    tag_64:\n        /* \"#utility.yul\":7601:7678   */\n      0x4e487b7100000000000000000000000000000000000000000000000000000000\n        /* \"#utility.yul\":7598:7599   */\n      0x00\n        /* \"#utility.yul\":7591:7679   */\n      mstore\n        /* \"#utility.yul\":7698:7702   */\n      0x22\n        /* \"#utility.yul\":7695:7696   */\n      0x04\n        /* \"#utility.yul\":7688:7703   */\n      mstore\n        /* \"#utility.yul\":7722:7726   */\n      0x24\n        /* \"#utility.yul\":7719:7720   */\n      0x00\n        /* \"#utility.yul\":7712:7727   */\n      revert\n        /* \"#utility.yul\":7739:8059   */\n    tag_31:\n        /* \"#utility.yul\":7783:7789   */\n      0x00\n        /* \"#utility.yul\":7820:7821   */\n      0x02\n        /* \"#utility.yul\":7814:7818   */\n      dup3\n        /* \"#utility.yul\":7810:7822   */\n      div\n        /* \"#utility.yul\":7800:7822   */\n      swap1\n      pop\n        /* \"#utility.yul\":7867:7868   */\n      0x01\n        /* \"#utility.yul\":7861:7865   */\n      dup3\n        /* \"#utility.yul\":7857:7869   */\n      and\n        /* \"#utility.yul\":7888:7906   */\n      dup1\n        /* \"#utility.yul\":7878:7959   */\n      tag_162\n      jumpi\n        /* \"#utility.yul\":7944:7948   */\n      0x7f\n        /* \"#utility.yul\":7936:7942   */\n      dup3\n        /* \"#utility.yul\":7932:7949   */\n      and\n        /* \"#utility.yul\":7922:7949   */\n      swap2\n      pop\n        /* \"#utility.yul\":7878:7959   */\n    tag_162:\n        /* \"#utility.yul\":8006:8008   */\n      0x20\n        /* \"#utility.yul\":7998:8004   */\n      dup3\n        /* \"#utility.yul\":7995:8009   */\n      lt\n        /* \"#utility.yul\":7975:7993   */\n      dup2\n        /* \"#utility.yul\":7972:8010   */\n      sub\n        /* \"#utility.yul\":7969:8053   */\n      tag_163\n      jumpi\n        /* \"#utility.yul\":8025:8043   */\n      tag_164\n      tag_64\n      jump\t// in\n    tag_164:\n        /* \"#utility.yul\":7969:8053   */\n    tag_163:\n        /* \"#utility.yul\":7790:8059   */\n      pop\n        /* \"#utility.yul\":7739:8059   */\n      swap2\n      swap1\n      pop\n      jump\t// out\n        /* \"#utility.yul\":8065:8206   */\n    tag_65:\n        /* \"#utility.yul\":8114:8118   */\n      0x00\n        /* \"#utility.yul\":8137:8140   */\n      dup2\n        /* \"#utility.yul\":8129:8140   */\n      swap1\n      pop\n        /* \"#utility.yul\":8160:8163   */\n      dup2\n        /* \"#utility.yul\":8157:8158   */\n      0x00\n        /* \"#utility.yul\":8150:8164   */\n      mstore\n        /* \"#utility.yul\":8194:8198   */\n      0x20\n        /* \"#utility.yul\":8191:8192   */\n      0x00\n        /* \"#utility.yul\":8181:8199   */\n      keccak256\n        /* \"#utility.yul\":8173:8199   */\n      swap1\n      pop\n        /* \"#utility.yul\":8065:8206   */\n      swap2\n      swap1\n      pop\n      jump\t// out\n        /* \"#utility.yul\":8212:8305   */\n    tag_66:\n        /* \"#utility.yul\":8249:8255   */\n      0x00\n        /* \"#utility.yul\":8296:8298   */\n      0x20\n        /* \"#utility.yul\":8291:8293   */\n      0x1f\n        /* \"#utility.yul\":8284:8289   */\n      dup4\n        /* \"#utility.yul\":8280:8294   */\n      add\n        /* \"#utility.yul\":8276:8299   */\n      div\n        /* \"#utility.yul\":8266:8299   */\n      swap1\n      pop\n        /* \"#utility.yul\":8212:8305   */\n      swap2\n      swap1\n      pop\n      jump\t// out\n        /* \"#utility.yul\":8311:8418   */\n    tag_67:\n        /* \"#utility.yul\":8355:8363   */\n      0x00\n        /* \"#utility.yul\":8405:8410   */\n      dup3\n        /* \"#utility.yul\":8399:8403   */\n      dup3\n        /* \"#utility.yul\":8395:8411   */\n      shl\n        /* \"#utility.yul\":8374:8411   */\n      swap1\n      pop\n        /* \"#utility.yul\":8311:8418   */\n      swap3\n      swap2\n      pop\n      pop\n      jump\t// out\n        /* \"#utility.yul\":8424:8817   */\n    tag_68:\n        /* \"#utility.yul\":8493:8499   */\n      0x00\n        /* \"#utility.yul\":8543:8544   */\n      0x08\n        /* \"#utility.yul\":8531:8541   */\n      dup4\n        /* \"#utility.yul\":8527:8545   */\n      mul\n        /* \"#utility.yul\":8566:8663   */\n      tag_169\n        /* \"#utility.yul\":8596:8662   */\n      0xffffffffffffffffffffffffffffffffffffffffffffffffffffffffffffffff\n        /* \"#utility.yul\":8585:8594   */\n      dup3\n        /* \"#utility.yul\":8566:8663   */\n      tag_67\n      jump\t// in\n    tag_169:\n        /* \"#utility.yul\":8684:8723   */\n      tag_170\n        /* \"#utility.yul\":8714:8722   */\n      dup7\n        /* \"#utility.yul\":8703:8712   */\n      dup4\n        /* \"#utility.yul\":8684:8723   */\n      tag_67\n      jump\t// in\n    tag_170:\n        /* \"#utility.yul\":8672:8723   */\n      swap6\n      pop\n        /* \"#utility.yul\":8756:8760   */\n      dup1\n        /* \"#utility.yul\":8752:8761   */\n      not\n        /* \"#utility.yul\":8745:8750   */\n      dup5\n        /* \"#utility.yul\":8741:8762   */\n      and\n        /* \"#utility.yul\":8732:8762   */\n      swap4\n      pop\n        /* \"#utility.yul\":8805:8809   */\n      dup1\n        /* \"#utility.yul\":8795:8803   */\n      dup7\n        /* \"#utility.yul\":8791:8810   */\n      and\n        /* \"#utility.yul\":8784:8789   */\n      dup5\n        /* \"#utility.yul\":8781:8811   */\n      or\n        /* \"#utility.yul\":8771:8811   */\n      swap3\n      pop\n        /* \"#utility.yul\":8500:8817   */\n      pop\n      pop\n        /* \"#utility.yul\":8424:8817   */\n      swap4\n      swap3\n      pop\n      pop\n      pop\n      jump\t// out\n        /* \"#utility.yul\":8823:8883   */\n    tag_69:\n        /* \"#utility.yul\":8851:8854   */\n      0x00\n        /* \"#utility.yul\":8872:8877   */\n      dup2\n        /* \"#utility.yul\":8865:8877   */\n      swap1\n      pop\n        /* \"#utility.yul\":8823:8883   */\n      swap2\n      swap1\n      pop\n      jump\t// out\n        /* \"#utility.yul\":8889:9031   */\n    tag_70:\n        /* \"#utility.yul\":8939:8948   */\n      0x00\n        /* \"#utility.yul\":8972:9025   */\n      tag_173\n        /* \"#utility.yul\":8990:9024   */\n      tag_174\n        /* \"#utility.yul\":8999:9023   */\n      tag_175\n        /* \"#utility.yul\":9017:9022   */\n      dup5\n        /* \"#utility.yul\":8999:9023   */\n      tag_39\n      jump\t// in\n    tag_175:\n        /* \"#utility.yul\":8990:9024   */\n      tag_69\n      jump\t// in\n    tag_174:\n        /* \"#utility.yul\":8972:9025   */\n      tag_39\n      jump\t// in\n    tag_173:\n        /* \"#utility.yul\":8959:9025   */\n      swap1\n      pop\n        /* \"#utility.yul\":8889:9031   */\n      swap2\n      swap1\n      pop\n      jump\t// out\n        /* \"#utility.yul\":9037:9112   */\n    tag_71:\n        /* \"#utility.yul\":9080:9083   */\n      0x00\n        /* \"#utility.yul\":9101:9106   */\n      dup2\n        /* \"#utility.yul\":9094:9106   */\n      swap1\n      pop\n        /* \"#utility.yul\":9037:9112   */\n      swap2\n      swap1\n      pop\n      jump\t// out\n        /* \"#utility.yul\":9118:9387   */\n    tag_72:\n        /* \"#utility.yul\":9228:9267   */\n      tag_178\n        /* \"#utility.yul\":9259:9266   */\n      dup4\n        /* \"#utility.yul\":9228:9267   */\n      tag_70\n      jump\t// in\n    tag_178:\n        /* \"#utility.yul\":9289:9380   */\n      tag_179\n        /* \"#utility.yul\":9338:9379   */\n      tag_180\n        /* \"#utility.yul\":9362:9378   */\n      dup3\n        /* \"#utility.yul\":9338:9379   */\n      tag_71\n      jump\t// in\n    tag_180:\n        /* \"#utility.yul\":9330:9336   */\n      dup5\n        /* \"#utility.yul\":9323:9327   */\n      dup5\n        /* \"#utility.yul\":9317:9328   */\n      sload\n        /* \"#utility.yul\":9289:9380   */\n      tag_68\n      jump\t// in\n    tag_179:\n        /* \"#utility.yul\":9283:9287   */\n      dup3\n        /* \"#utility.yul\":9276:9381   */\n      sstore\n        /* \"#utility.yul\":9194:9387   */\n      pop\n        /* \"#utility.yul\":9118:9387   */\n      pop\n      pop\n      pop\n      jump\t// out\n        /* \"#utility.yul\":9393:9466   */\n    tag_73:\n        /* \"#utility.yul\":9438:9441   */\n      0x00\n        /* \"#utility.yul\":9393:9466   */\n      swap1\n      jump\t// out\n        /* \"#utility.yul\":9472:9661   */\n    tag_74:\n        /* \"#utility.yul\":9549:9581   */\n      tag_183\n      tag_73\n      jump\t// in\n    tag_183:\n        /* \"#utility.yul\":9590:9655   */\n      tag_184\n        /* \"#utility.yul\":9648:9654   */\n      dup2\n        /* \"#utility.yul\":9640:9646   */\n      dup5\n        /* \"#utility.yul\":9634:9638   */\n      dup5\n        /* \"#utility.yul\":9590:9655   */\n      tag_72\n      jump\t// in\n    tag_184:\n        /* \"#utility.yul\":9525:9661   */\n      pop\n        /* \"#utility.yul\":9472:9661   */\n      pop\n      pop\n      jump\t// out\n        /* \"#utility.yul\":9667:9853   */\n    tag_75:\n        /* \"#utility.yul\":9727:9847   */\n    tag_186:\n        /* \"#utility.yul\":9744:9747   */\n      dup2\n        /* \"#utility.yul\":9737:9742   */\n      dup2\n        /* \"#utility.yul\":9734:9748   */\n      lt\n        /* \"#utility.yul\":9727:9847   */\n      iszero\n      tag_188\n      jumpi\n        /* \"#utility.yul\":9798:9837   */\n      tag_189\n        /* \"#utility.yul\":9835:9836   */\n      0x00\n        /* \"#utility.yul\":9828:9833   */\n      dup3\n        /* \"#utility.yul\":9798:9837   */\n      tag_74\n      jump\t// in\n    tag_189:\n        /* \"#utility.yul\":9771:9772   */\n      0x01\n        /* \"#utility.yul\":9764:9769   */\n      dup2\n        /* \"#utility.yul\":9760:9773   */\n      add\n        /* \"#utility.yul\":9751:9773   */\n      swap1\n      pop\n        /* \"#utility.yul\":9727:9847   */\n      jump(tag_186)\n    tag_188:\n        /* \"#utility.yul\":9667:9853   */\n      pop\n      pop\n      jump\t// out\n        /* \"#utility.yul\":9859:10402   */\n    tag_76:\n        /* \"#utility.yul\":9960:9962   */\n      0x1f\n        /* \"#utility.yul\":9955:9958   */\n      dup3\n        /* \"#utility.yul\":9952:9963   */\n      gt\n        /* \"#utility.yul\":9949:10395   */\n      iszero\n      tag_191\n      jumpi\n        /* \"#utility.yul\":9994:10032   */\n      tag_192\n        /* \"#utility.yul\":10026:10031   */\n      dup2\n        /* \"#utility.yul\":9994:10032   */\n      tag_65\n      jump\t// in\n    tag_192:\n        /* \"#utility.yul\":10078:10107   */\n      tag_193\n        /* \"#utility.yul\":10096:10106   */\n      dup5\n        /* \"#utility.yul\":10078:10107   */\n      tag_66\n      jump\t// in\n    tag_193:\n        /* \"#utility.yul\":10068:10076   */\n      dup2\n        /* \"#utility.yul\":10064:10108   */\n      add\n        /* \"#utility.yul\":10261:10263   */\n      0x20\n        /* \"#utility.yul\":10249:10259   */\n      dup6\n        /* \"#utility.yul\":10246:10264   */\n      lt\n        /* \"#utility.yul\":10243:10292   */\n      iszero\n      tag_194\n      jumpi\n        /* \"#utility.yul\":10282:10290   */\n      dup2\n        /* \"#utility.yul\":10267:10290   */\n      swap1\n      pop\n        /* \"#utility.yul\":10243:10292   */\n    tag_194:\n        /* \"#utility.yul\":10305:10385   */\n      tag_195\n        /* \"#utility.yul\":10361:10383   */\n      tag_196\n        /* \"#utility.yul\":10379:10382   */\n      dup6\n        /* \"#utility.yul\":10361:10383   */\n      tag_66\n      jump\t// in\n    tag_196:\n        /* \"#utility.yul\":10351:10359   */\n      dup4\n        /* \"#utility.yul\":10347:10384   */\n      add\n        /* \"#utility.yul\":10334:10345   */\n      dup3\n        /* \"#utility.yul\":10305:10385   */\n      tag_75\n      jump\t// in\n    tag_195:\n        /* \"#utility.yul\":9964:10395   */\n      pop\n      pop\n        /* \"#utility.yul\":9949:10395   */\n    tag_191:\n        /* \"#utility.yul\":9859:10402   */\n      pop\n      pop\n      pop\n      jump\t// out\n        /* \"#utility.yul\":10408:10525   */\n    tag_77:\n        /* \"#utility.yul\":10462:10470   */\n      0x00\n        /* \"#utility.yul\":10512:10517   */\n      dup3\n        /* \"#utility.yul\":10506:10510   */\n      dup3\n        /* \"#utility.yul\":10502:10518   */\n      shr\n        /* \"#utility.yul\":10481:10518   */\n      swap1\n      pop\n        /* \"#utility.yul\":10408:10525   */\n      swap3\n      swap2\n      pop\n      pop\n      jump\t// out\n        /* \"#utility.yul\":10531:10700   */\n    tag_78:\n        /* \"#utility.yul\":10575:10581   */\n      0x00\n        /* \"#utility.yul\":10608:10659   */\n      tag_199\n        /* \"#utility.yul\":10656:10657   */\n      0x00\n        /* \"#utility.yul\":10652:10658   */\n      not\n        /* \"#utility.yul\":10644:10649   */\n      dup5\n        /* \"#utility.yul\":10641:10642   */\n      0x08\n        /* \"#utility.yul\":10637:10650   */\n      mul\n        /* \"#utility.yul\":10608:10659   */\n      tag_77\n      jump\t// in\n    tag_199:\n        /* \"#utility.yul\":10604:10660   */\n      not\n        /* \"#utility.yul\":10689:10693   */\n      dup1\n        /* \"#utility.yul\":10683:10687   */\n      dup4\n        /* \"#utility.yul\":10679:10694   */\n      and\n        /* \"#utility.yul\":10669:10694   */\n      swap2\n      pop\n        /* \"#utility.yul\":10582:10700   */\n      pop\n        /* \"#utility.yul\":10531:10700   */\n      swap3\n      swap2\n      pop\n      pop\n      jump\t// out\n        /* \"#utility.yul\":10705:11000   */\n    tag_79:\n        /* \"#utility.yul\":10781:10785   */\n      0x00\n        /* \"#utility.yul\":10927:10956   */\n      tag_201\n        /* \"#utility.yul\":10952:10955   */\n      dup4\n        /* \"#utility.yul\":10946:10950   */\n      dup4\n        /* \"#utility.yul\":10927:10956   */\n      tag_78\n      jump\t// in\n    tag_201:\n        /* \"#utility.yul\":10919:10956   */\n      swap2\n      pop\n        /* \"#utility.yul\":10989:10992   */\n      dup3\n        /* \"#utility.yul\":10986:10987   */\n      0x02\n        /* \"#utility.yul\":10982:10993   */\n      mul\n        /* \"#utility.yul\":10976:10980   */\n      dup3\n        /* \"#utility.yul\":10973:10994   */\n      or\n        /* \"#utility.yul\":10965:10994   */\n      swap1\n      pop\n        /* \"#utility.yul\":10705:11000   */\n      swap3\n      swap2\n      pop\n      pop\n      jump\t// out\n        /* \"#utility.yul\":11005:12400   */\n    tag_27:\n        /* \"#utility.yul\":11122:11159   */\n      tag_203\n        /* \"#utility.yul\":11155:11158   */\n      dup3\n        /* \"#utility.yul\":11122:11159   */\n      tag_55\n      jump\t// in\n    tag_203:\n        /* \"#utility.yul\":11224:11242   */\n      0xffffffffffffffff\n        /* \"#utility.yul\":11216:11222   */\n      dup2\n        /* \"#utility.yul\":11213:11243   */\n      gt\n        /* \"#utility.yul\":11210:11266   */\n      iszero\n      tag_204\n      jumpi\n        /* \"#utility.yul\":11246:11264   */\n      tag_205\n      tag_47\n      jump\t// in\n    tag_205:\n        /* \"#utility.yul\":11210:11266   */\n    tag_204:\n        /* \"#utility.yul\":11290:11328   */\n      tag_206\n        /* \"#utility.yul\":11322:11326   */\n      dup3\n        /* \"#utility.yul\":11316:11327   */\n      sload\n        /* \"#utility.yul\":11290:11328   */\n      tag_31\n      jump\t// in\n    tag_206:\n        /* \"#utility.yul\":11375:11442   */\n      tag_207\n        /* \"#utility.yul\":11435:11441   */\n      dup3\n        /* \"#utility.yul\":11427:11433   */\n      dup3\n        /* \"#utility.yul\":11421:11425   */\n      dup6\n        /* \"#utility.yul\":11375:11442   */\n      tag_76\n      jump\t// in\n    tag_207:\n        /* \"#utility.yul\":11469:11470   */\n      0x00\n        /* \"#utility.yul\":11493:11497   */\n      0x20\n        /* \"#utility.yul\":11480:11497   */\n      swap1\n      pop\n        /* \"#utility.yul\":11525:11527   */\n      0x1f\n        /* \"#utility.yul\":11517:11523   */\n      dup4\n        /* \"#utility.yul\":11514:11528   */\n      gt\n        /* \"#utility.yul\":11542:11543   */\n      0x01\n        /* \"#utility.yul\":11537:12155   */\n      dup2\n      eq\n      tag_209\n      jumpi\n        /* \"#utility.yul\":12199:12200   */\n      0x00\n        /* \"#utility.yul\":12216:12222   */\n      dup5\n        /* \"#utility.yul\":12213:12290   */\n      iszero\n      tag_210\n      jumpi\n        /* \"#utility.yul\":12265:12274   */\n      dup3\n        /* \"#utility.yul\":12260:12263   */\n      dup8\n        /* \"#utility.yul\":12256:12275   */\n      add\n        /* \"#utility.yul\":12250:12276   */\n      mload\n        /* \"#utility.yul\":12241:12276   */\n      swap1\n      pop\n        /* \"#utility.yul\":12213:12290   */\n    tag_210:\n        /* \"#utility.yul\":12316:12383   */\n      tag_211\n        /* \"#utility.yul\":12376:12382   */\n      dup6\n        /* \"#utility.yul\":12369:12374   */\n      dup3\n        /* \"#utility.yul\":12316:12383   */\n      tag_79\n      jump\t// in\n    tag_211:\n        /* \"#utility.yul\":12310:12314   */\n      dup7\n        /* \"#utility.yul\":12303:12384   */\n      sstore\n        /* \"#utility.yul\":12172:12394   */\n      pop\n        /* \"#utility.yul\":11507:12394   */\n      jump(tag_208)\n        /* \"#utility.yul\":11537:12155   */\n    tag_209:\n        /* \"#utility.yul\":11589:11593   */\n      0x1f\n        /* \"#utility.yul\":11585:11594   */\n      not\n        /* \"#utility.yul\":11577:11583   */\n      dup5\n        /* \"#utility.yul\":11573:11595   */\n      and\n        /* \"#utility.yul\":11623:11660   */\n      tag_212\n        /* \"#utility.yul\":11655:11659   */\n      dup7\n        /* \"#utility.yul\":11623:11660   */\n      tag_65\n      jump\t// in\n    tag_212:\n        /* \"#utility.yul\":11682:11683   */\n      0x00\n        /* \"#utility.yul\":11696:11904   */\n    tag_213:\n        /* \"#utility.yul\":11710:11717   */\n      dup3\n        /* \"#utility.yul\":11707:11708   */\n      dup2\n        /* \"#utility.yul\":11704:11718   */\n      lt\n        /* \"#utility.yul\":11696:11904   */\n      iszero\n      tag_215\n      jumpi\n        /* \"#utility.yul\":11789:11798   */\n      dup5\n        /* \"#utility.yul\":11784:11787   */\n      dup10\n        /* \"#utility.yul\":11780:11799   */\n      add\n        /* \"#utility.yul\":11774:11800   */\n      mload\n        /* \"#utility.yul\":11766:11772   */\n      dup3\n        /* \"#utility.yul\":11759:11801   */\n      sstore\n        /* \"#utility.yul\":11840:11841   */\n      0x01\n        /* \"#utility.yul\":11832:11838   */\n      dup3\n        /* \"#utility.yul\":11828:11842   */\n      add\n        /* \"#utility.yul\":11818:11842   */\n      swap2\n      pop\n        /* \"#utility.yul\":11887:11889   */\n      0x20\n        /* \"#utility.yul\":11876:11885   */\n      dup6\n        /* \"#utility.yul\":11872:11890   */\n      add\n        /* \"#utility.yul\":11859:11890   */\n      swap5\n      pop\n        /* \"#utility.yul\":11733:11737   */\n      0x20\n        /* \"#utility.yul\":11730:11731   */\n      dup2\n        /* \"#utility.yul\":11726:11738   */\n      add\n        /* \"#utility.yul\":11721:11738   */\n      swap1\n      pop\n        /* \"#utility.yul\":11696:11904   */\n      jump(tag_213)\n    tag_215:\n        /* \"#utility.yul\":11932:11938   */\n      dup7\n        /* \"#utility.yul\":11923:11930   */\n      dup4\n        /* \"#utility.yul\":11920:11939   */\n      lt\n        /* \"#utility.yul\":11917:12096   */\n      iszero\n      tag_216\n      jumpi\n        /* \"#utility.yul\":11990:11999   */\n      dup5\n        /* \"#utility.yul\":11985:11988   */\n      dup10\n        /* \"#utility.yul\":11981:12000   */\n      add\n        /* \"#utility.yul\":11975:12001   */\n      mload\n        /* \"#utility.yul\":12033:12081   */\n      tag_217\n        /* \"#utility.yul\":12075:12079   */\n      0x1f\n        /* \"#utility.yul\":12067:12073   */\n      dup10\n        /* \"#utility.yul\":12063:12080   */\n      and\n        /* \"#utility.yul\":12052:12061   */\n      dup3\n        /* \"#utility.yul\":12033:12081   */\n      tag_78\n      jump\t// in\n    tag_217:\n        /* \"#utility.yul\":12025:12031   */\n      dup4\n        /* \"#utility.yul\":12018:12082   */\n      sstore\n        /* \"#utility.yul\":11940:12096   */\n      pop\n        /* \"#utility.yul\":11917:12096   */\n    tag_216:\n        /* \"#utility.yul\":12142:12143   */\n      0x01\n        /* \"#utility.yul\":12138:12139   */\n      0x02\n        /* \"#utility.yul\":12130:12136   */\n      dup9\n        /* \"#utility.yul\":12126:12140   */\n      mul\n        /* \"#utility.yul\":12122:12144   */\n      add\n        /* \"#utility.yul\":12116:12120   */\n      dup9\n        /* \"#utility.yul\":12109:12145   */\n      sstore\n        /* \"#utility.yul\":11544:12155   */\n      pop\n      pop\n      pop\n        /* \"#utility.yul\":11507:12394   */\n    tag_208:\n      pop\n        /* \"#utility.yul\":11097:12400   */\n      pop\n      pop\n      pop\n        /* \"#utility.yul\":11005:12400   */\n      pop\n      pop\n      jump\t// out\n        /* \"#utility.yul\":12406:12939   */\n    tag_29:\n        /* \"#utility.yul\":12575:12579   */\n      0x00\n        /* \"#utility.yul\":12613:12615   */\n      0x60\n        /* \"#utility.yul\":12602:12611   */\n      dup3\n        /* \"#utility.yul\":12598:12616   */\n      add\n        /* \"#utility.yul\":12590:12616   */\n      swap1\n      pop\n        /* \"#utility.yul\":12662:12671   */\n      dup2\n        /* \"#utility.yul\":12656:12660   */\n      dup2\n        /* \"#utility.yul\":12652:12672   */\n      sub\n        /* \"#utility.yul\":12648:12649   */\n      0x00\n        /* \"#utility.yul\":12637:12646   */\n      dup4\n        /* \"#utility.yul\":12633:12650   */\n      add\n        /* \"#utility.yul\":12626:12673   */\n      mstore\n        /* \"#utility.yul\":12690:12768   */\n      tag_219\n        /* \"#utility.yul\":12763:12767   */\n      dup2\n        /* \"#utility.yul\":12754:12760   */\n      dup7\n        /* \"#utility.yul\":12690:12768   */\n      tag_58\n      jump\t// in\n    tag_219:\n        /* \"#utility.yul\":12682:12768   */\n      swap1\n      pop\n        /* \"#utility.yul\":12778:12850   */\n      tag_220\n        /* \"#utility.yul\":12846:12848   */\n      0x20\n        /* \"#utility.yul\":12835:12844   */\n      dup4\n        /* \"#utility.yul\":12831:12849   */\n      add\n        /* \"#utility.yul\":12822:12828   */\n      dup6\n        /* \"#utility.yul\":12778:12850   */\n      tag_54\n      jump\t// in\n    tag_220:\n        /* \"#utility.yul\":12860:12932   */\n      tag_221\n        /* \"#utility.yul\":12928:12930   */\n      0x40\n        /* \"#utility.yul\":12917:12926   */\n      dup4\n        /* \"#utility.yul\":12913:12931   */\n      add\n        /* \"#utility.yul\":12904:12910   */\n      dup5\n        /* \"#utility.yul\":12860:12932   */\n      tag_61\n      jump\t// in\n    tag_221:\n        /* \"#utility.yul\":12406:12939   */\n      swap5\n      swap4\n      pop\n      pop\n      pop\n      pop\n      jump\t// out\n\n    auxdata: 0xa2646970667358221220f1c359aa2fff3cd0560c9f943fe58b8e2e466ea825dae2cef69e9e4dd8390c7b64736f6c63430008190033\n}\n",
				"bytecode": {
					"linkReferences": {},
					"object": "6080604052348015600e575f80fd5b50610a708061001c5f395ff3fe608060405234801561000f575f80fd5b506004361061003f575f3560e01c8063412b46e414610043578063aecf5efd14610073578063fca5e61e1461008f575b5f80fd5b61005d6004803603810190610058919061039b565b6100c3565b60405161006a91906103e0565b60405180910390f35b61008d60048036038101906100889190610535565b6100ec565b005b6100a960048036038101906100a4919061039b565b610274565b6040516100ba95949392919061064f565b60405180910390f35b5f805f8381526020019081526020015f2060030160149054906101000a900460ff169050919050565b5f808481526020019081526020015f2060030160149054906101000a900460ff161561014d576040517f08c379a000000000000000000000000000000000000000000000000000000000815260040161014490610717565b60405180910390fd5b5f6040518060a001604052808581526020018481526020018381526020013373ffffffffffffffffffffffffffffffffffffffff168152602001600115158152509050805f808681526020019081526020015f205f820151815f015560208201518160010190816101be919061092f565b50604082015181600201556060820151816003015f6101000a81548173ffffffffffffffffffffffffffffffffffffffff021916908373ffffffffffffffffffffffffffffffffffffffff16021790555060808201518160030160146101000a81548160ff021916908315150217905550905050837f09c2d004856187b64755ea1e296c13e718698037c4d5e5fd4aa5933c0b332f56848433604051610266939291906109fe565b60405180910390a250505050565b5f602052805f5260405f205f91509050805f01549080600101805461029890610762565b80601f01602080910402602001604051908101604052809291908181526020018280546102c490610762565b801561030f5780601f106102e65761010080835404028352916020019161030f565b820191905f5260205f20905b8154815290600101906020018083116102f257829003601f168201915b505050505090806002015490806003015f9054906101000a900473ffffffffffffffffffffffffffffffffffffffff16908060030160149054906101000a900460ff16905085565b5f604051905090565b5f80fd5b5f80fd5b5f819050919050565b61037a81610368565b8114610384575f80fd5b50565b5f8135905061039581610371565b92915050565b5f602082840312156103b0576103af610360565b5b5f6103bd84828501610387565b91505092915050565b5f8115159050919050565b6103da816103c6565b82525050565b5f6020820190506103f35f8301846103d1565b92915050565b5f80fd5b5f80fd5b5f601f19601f8301169050919050565b7f4e487b71000000000000000000000000000000000000000000000000000000005f52604160045260245ffd5b61044782610401565b810181811067ffffffffffffffff8211171561046657610465610411565b5b80604052505050565b5f610478610357565b9050610484828261043e565b919050565b5f67ffffffffffffffff8211156104a3576104a2610411565b5b6104ac82610401565b9050602081019050919050565b828183375f83830152505050565b5f6104d96104d484610489565b61046f565b9050828152602081018484840111156104f5576104f46103fd565b5b6105008482856104b9565b509392505050565b5f82601f83011261051c5761051b6103f9565b5b813561052c8482602086016104c7565b91505092915050565b5f805f6060848603121561054c5761054b610360565b5b5f61055986828701610387565b935050602084013567ffffffffffffffff81111561057a57610579610364565b5b61058686828701610508565b925050604061059786828701610387565b9150509250925092565b6105aa81610368565b82525050565b5f81519050919050565b5f82825260208201905092915050565b8281835e5f83830152505050565b5f6105e2826105b0565b6105ec81856105ba565b93506105fc8185602086016105ca565b61060581610401565b840191505092915050565b5f73ffffffffffffffffffffffffffffffffffffffff82169050919050565b5f61063982610610565b9050919050565b6106498161062f565b82525050565b5f60a0820190506106625f8301886105a1565b818103602083015261067481876105d8565b905061068360408301866105a1565b6106906060830185610640565b61069d60808301846103d1565b9695505050505050565b7f4472756720776974682074686973206261746368206e756d62657220616c72655f8201527f6164792072656769737465726564000000000000000000000000000000000000602082015250565b5f610701602e836105ba565b915061070c826106a7565b604082019050919050565b5f6020820190508181035f83015261072e816106f5565b9050919050565b7f4e487b71000000000000000000000000000000000000000000000000000000005f52602260045260245ffd5b5f600282049050600182168061077957607f821691505b60208210810361078c5761078b610735565b5b50919050565b5f819050815f5260205f209050919050565b5f6020601f8301049050919050565b5f82821b905092915050565b5f600883026107ee7fffffffffffffffffffffffffffffffffffffffffffffffffffffffffffffffff826107b3565b6107f886836107b3565b95508019841693508086168417925050509392505050565b5f819050919050565b5f61083361082e61082984610368565b610810565b610368565b9050919050565b5f819050919050565b61084c83610819565b6108606108588261083a565b8484546107bf565b825550505050565b5f90565b610874610868565b61087f818484610843565b505050565b5b818110156108a2576108975f8261086c565b600181019050610885565b5050565b601f8211156108e7576108b881610792565b6108c1846107a4565b810160208510156108d0578190505b6108e46108dc856107a4565b830182610884565b50505b505050565b5f82821c905092915050565b5f6109075f19846008026108ec565b1980831691505092915050565b5f61091f83836108f8565b9150826002028217905092915050565b610938826105b0565b67ffffffffffffffff81111561095157610950610411565b5b61095b8254610762565b6109668282856108a6565b5f60209050601f831160018114610997575f8415610985578287015190505b61098f8582610914565b8655506109f6565b601f1984166109a586610792565b5f5b828110156109cc578489015182556001820191506020850194506020810190506109a7565b868310156109e957848901516109e5601f8916826108f8565b8355505b6001600288020188555050505b505050505050565b5f6060820190508181035f830152610a1681866105d8565b9050610a2560208301856105a1565b610a326040830184610640565b94935050505056fea2646970667358221220f1c359aa2fff3cd0560c9f943fe58b8e2e466ea825dae2cef69e9e4dd8390c7b64736f6c63430008190033",
					"opcodes": "PUSH1 0x80 PUSH1 0x40 MSTORE CALLVALUE DUP1 ISZERO PUSH1 0xE JUMPI PUSH0 DUP1 REVERT JUMPDEST POP PUSH2 0xA70 DUP1 PUSH2 0x1C PUSH0 CODECOPY PUSH0 RETURN INVALID PUSH1 0x80 PUSH1 0x40 MSTORE CALLVALUE DUP1 ISZERO PUSH2 0xF JUMPI PUSH0 DUP1 REVERT JUMPDEST POP PUSH1 0x4 CALLDATASIZE LT PUSH2 0x3F JUMPI PUSH0 CALLDATALOAD PUSH1 0xE0 SHR DUP1 PUSH4 0x412B46E4 EQ PUSH2 0x43 JUMPI DUP1 PUSH4 0xAECF5EFD EQ PUSH2 0x73 JUMPI DUP1 PUSH4 0xFCA5E61E EQ PUSH2 0x8F JUMPI JUMPDEST PUSH0 DUP1 REVERT JUMPDEST PUSH2 0x5D PUSH1 0x4 DUP1 CALLDATASIZE SUB DUP2 ADD SWAP1 PUSH2 0x58 SWAP2 SWAP1 PUSH2 0x39B JUMP JUMPDEST PUSH2 0xC3 JUMP JUMPDEST PUSH1 0x40 MLOAD PUSH2 0x6A SWAP2 SWAP1 PUSH2 0x3E0 JUMP JUMPDEST PUSH1 0x40 MLOAD DUP1 SWAP2 SUB SWAP1 RETURN JUMPDEST PUSH2 0x8D PUSH1 0x4 DUP1 CALLDATASIZE SUB DUP2 ADD SWAP1 PUSH2 0x88 SWAP2 SWAP1 PUSH2 0x535 JUMP JUMPDEST PUSH2 0xEC JUMP JUMPDEST STOP JUMPDEST PUSH2 0xA9 PUSH1 0x4 DUP1 CALLDATASIZE SUB DUP2 ADD SWAP1 PUSH2 0xA4 SWAP2 SWAP1 PUSH2 0x39B JUMP JUMPDEST PUSH2 0x274 JUMP JUMPDEST PUSH1 0x40 MLOAD PUSH2 0xBA SWAP6 SWAP5 SWAP4 SWAP3 SWAP2 SWAP1 PUSH2 0x64F JUMP JUMPDEST PUSH1 0x40 MLOAD DUP1 SWAP2 SUB SWAP1 RETURN JUMPDEST PUSH0 DUP1 PUSH0 DUP4 DUP2 MSTORE PUSH1 0x20 ADD SWAP1 DUP2 MSTORE PUSH1 0x20 ADD PUSH0 KECCAK256 PUSH1 0x3 ADD PUSH1 0x14 SWAP1 SLOAD SWAP1 PUSH2 0x100 EXP SWAP1 DIV PUSH1 0xFF AND SWAP1 POP SWAP2 SWAP1 POP JUMP JUMPDEST PUSH0 DUP1 DUP5 DUP2 MSTORE PUSH1 0x20 ADD SWAP1 DUP2 MSTORE PUSH1 0x20 ADD PUSH0 KECCAK256 PUSH1 0x3 ADD PUSH1 0x14 SWAP1 SLOAD SWAP1 PUSH2 0x100 EXP SWAP1 DIV PUSH1 0xFF AND ISZERO PUSH2 0x14D JUMPI PUSH1 0x40 MLOAD PUSH32 0x8C379A000000000000000000000000000000000000000000000000000000000 DUP2 MSTORE PUSH1 0x4 ADD PUSH2 0x144 SWAP1 PUSH2 0x717 JUMP JUMPDEST PUSH1 0x40 MLOAD DUP1 SWAP2 SUB SWAP1 REVERT JUMPDEST PUSH0 PUSH1 0x40 MLOAD DUP1 PUSH1 0xA0 ADD PUSH1 0x40 MSTORE DUP1 DUP6 DUP2 MSTORE PUSH1 0x20 ADD DUP5 DUP2 MSTORE PUSH1 0x20 ADD DUP4 DUP2 MSTORE PUSH1 0x20 ADD CALLER PUSH20 0xFFFFFFFFFFFFFFFFFFFFFFFFFFFFFFFFFFFFFFFF AND DUP2 MSTORE PUSH1 0x20 ADD PUSH1 0x1 ISZERO ISZERO DUP2 MSTORE POP SWAP1 POP DUP1 PUSH0 DUP1 DUP7 DUP2 MSTORE PUSH1 0x20 ADD SWAP1 DUP2 MSTORE PUSH1 0x20 ADD PUSH0 KECCAK256 PUSH0 DUP3 ADD MLOAD DUP2 PUSH0 ADD SSTORE PUSH1 0x20 DUP3 ADD MLOAD DUP2 PUSH1 0x1 ADD SWAP1 DUP2 PUSH2 0x1BE SWAP2 SWAP1 PUSH2 0x92F JUMP JUMPDEST POP PUSH1 0x40 DUP3 ADD MLOAD DUP2 PUSH1 0x2 ADD SSTORE PUSH1 0x60 DUP3 ADD MLOAD DUP2 PUSH1 0x3 ADD PUSH0 PUSH2 0x100 EXP DUP2 SLOAD DUP2 PUSH20 0xFFFFFFFFFFFFFFFFFFFFFFFFFFFFFFFFFFFFFFFF MUL NOT AND SWAP1 DUP4 PUSH20 0xFFFFFFFFFFFFFFFFFFFFFFFFFFFFFFFFFFFFFFFF AND MUL OR SWAP1 SSTORE POP PUSH1 0x80 DUP3 ADD MLOAD DUP2 PUSH1 0x3 ADD PUSH1 0x14 PUSH2 0x100 EXP DUP2 SLOAD DUP2 PUSH1 0xFF MUL NOT AND SWAP1 DUP4 ISZERO ISZERO MUL OR SWAP1 SSTORE POP SWAP1 POP POP DUP4 PUSH32 0x9C2D004856187B64755EA1E296C13E718698037C4D5E5FD4AA5933C0B332F56 DUP5 DUP5 CALLER PUSH1 0x40 MLOAD PUSH2 0x266 SWAP4 SWAP3 SWAP2 SWAP1 PUSH2 0x9FE JUMP JUMPDEST PUSH1 0x40 MLOAD DUP1 SWAP2 SUB SWAP1 LOG2 POP POP POP POP JUMP JUMPDEST PUSH0 PUSH1 0x20 MSTORE DUP1 PUSH0 MSTORE PUSH1 0x40 PUSH0 KECCAK256 PUSH0 SWAP2 POP SWAP1 POP DUP1 PUSH0 ADD SLOAD SWAP1 DUP1 PUSH1 0x1 ADD DUP1 SLOAD PUSH2 0x298 SWAP1 PUSH2 0x762 JUMP JUMPDEST DUP1 PUSH1 0x1F ADD PUSH1 0x20 DUP1 SWAP2 DIV MUL PUSH1 0x20 ADD PUSH1 0x40 MLOAD SWAP1 DUP2 ADD PUSH1 0x40 MSTORE DUP1 SWAP3 SWAP2 SWAP1 DUP2 DUP2 MSTORE PUSH1 0x20 ADD DUP3 DUP1 SLOAD PUSH2 0x2C4 SWAP1 PUSH2 0x762 JUMP JUMPDEST DUP1 ISZERO PUSH2 0x30F JUMPI DUP1 PUSH1 0x1F LT PUSH2 0x2E6 JUMPI PUSH2 0x100 DUP1 DUP4 SLOAD DIV MUL DUP4 MSTORE SWAP2 PUSH1 0x20 ADD SWAP2 PUSH2 0x30F JUMP JUMPDEST DUP3 ADD SWAP2 SWAP1 PUSH0 MSTORE PUSH1 0x20 PUSH0 KECCAK256 SWAP1 JUMPDEST DUP2 SLOAD DUP2 MSTORE SWAP1 PUSH1 0x1 ADD SWAP1 PUSH1 0x20 ADD DUP1 DUP4 GT PUSH2 0x2F2 JUMPI DUP3 SWAP1 SUB PUSH1 0x1F AND DUP3 ADD SWAP2 JUMPDEST POP POP POP POP POP SWAP1 DUP1 PUSH1 0x2 ADD SLOAD SWAP1 DUP1 PUSH1 0x3 ADD PUSH0 SWAP1 SLOAD SWAP1 PUSH2 0x100 EXP SWAP1 DIV PUSH20 0xFFFFFFFFFFFFFFFFFFFFFFFFFFFFFFFFFFFFFFFF AND SWAP1 DUP1 PUSH1 0x3 ADD PUSH1 0x14 SWAP1 SLOAD SWAP1 PUSH2 0x100 EXP SWAP1 DIV PUSH1 0xFF AND SWAP1 POP DUP6 JUMP JUMPDEST PUSH0 PUSH1 0x40 MLOAD SWAP1 POP SWAP1 JUMP JUMPDEST PUSH0 DUP1 REVERT JUMPDEST PUSH0 DUP1 REVERT JUMPDEST PUSH0 DUP2 SWAP1 POP SWAP2 SWAP1 POP JUMP JUMPDEST PUSH2 0x37A DUP2 PUSH2 0x368 JUMP JUMPDEST DUP2 EQ PUSH2 0x384 JUMPI PUSH0 DUP1 REVERT JUMPDEST POP JUMP JUMPDEST PUSH0 DUP2 CALLDATALOAD SWAP1 POP PUSH2 0x395 DUP2 PUSH2 0x371 JUMP JUMPDEST SWAP3 SWAP2 POP POP JUMP JUMPDEST PUSH0 PUSH1 0x20 DUP3 DUP5 SUB SLT ISZERO PUSH2 0x3B0 JUMPI PUSH2 0x3AF PUSH2 0x360 JUMP JUMPDEST JUMPDEST PUSH0 PUSH2 0x3BD DUP5 DUP3 DUP6 ADD PUSH2 0x387 JUMP JUMPDEST SWAP2 POP POP SWAP3 SWAP2 POP POP JUMP JUMPDEST PUSH0 DUP2 ISZERO ISZERO SWAP1 POP SWAP2 SWAP1 POP JUMP JUMPDEST PUSH2 0x3DA DUP2 PUSH2 0x3C6 JUMP JUMPDEST DUP3 MSTORE POP POP JUMP JUMPDEST PUSH0 PUSH1 0x20 DUP3 ADD SWAP1 POP PUSH2 0x3F3 PUSH0 DUP4 ADD DUP5 PUSH2 0x3D1 JUMP JUMPDEST SWAP3 SWAP2 POP POP JUMP JUMPDEST PUSH0 DUP1 REVERT JUMPDEST PUSH0 DUP1 REVERT JUMPDEST PUSH0 PUSH1 0x1F NOT PUSH1 0x1F DUP4 ADD AND SWAP1 POP SWAP2 SWAP1 POP JUMP JUMPDEST PUSH32 0x4E487B7100000000000000000000000000000000000000000000000000000000 PUSH0 MSTORE PUSH1 0x41 PUSH1 0x4 MSTORE PUSH1 0x24 PUSH0 REVERT JUMPDEST PUSH2 0x447 DUP3 PUSH2 0x401 JUMP JUMPDEST DUP2 ADD DUP2 DUP2 LT PUSH8 0xFFFFFFFFFFFFFFFF DUP3 GT OR ISZERO PUSH2 0x466 JUMPI PUSH2 0x465 PUSH2 0x411 JUMP JUMPDEST JUMPDEST DUP1 PUSH1 0x40 MSTORE POP POP POP JUMP JUMPDEST PUSH0 PUSH2 0x478 PUSH2 0x357 JUMP JUMPDEST SWAP1 POP PUSH2 0x484 DUP3 DUP3 PUSH2 0x43E JUMP JUMPDEST SWAP2 SWAP1 POP JUMP JUMPDEST PUSH0 PUSH8 0xFFFFFFFFFFFFFFFF DUP3 GT ISZERO PUSH2 0x4A3 JUMPI PUSH2 0x4A2 PUSH2 0x411 JUMP JUMPDEST JUMPDEST PUSH2 0x4AC DUP3 PUSH2 0x401 JUMP JUMPDEST SWAP1 POP PUSH1 0x20 DUP2 ADD SWAP1 POP SWAP2 SWAP1 POP JUMP JUMPDEST DUP3 DUP2 DUP4 CALLDATACOPY PUSH0 DUP4 DUP4 ADD MSTORE POP POP POP JUMP JUMPDEST PUSH0 PUSH2 0x4D9 PUSH2 0x4D4 DUP5 PUSH2 0x489 JUMP JUMPDEST PUSH2 0x46F JUMP JUMPDEST SWAP1 POP DUP3 DUP2 MSTORE PUSH1 0x20 DUP2 ADD DUP5 DUP5 DUP5 ADD GT ISZERO PUSH2 0x4F5 JUMPI PUSH2 0x4F4 PUSH2 0x3FD JUMP JUMPDEST JUMPDEST PUSH2 0x500 DUP5 DUP3 DUP6 PUSH2 0x4B9 JUMP JUMPDEST POP SWAP4 SWAP3 POP POP POP JUMP JUMPDEST PUSH0 DUP3 PUSH1 0x1F DUP4 ADD SLT PUSH2 0x51C JUMPI PUSH2 0x51B PUSH2 0x3F9 JUMP JUMPDEST JUMPDEST DUP2 CALLDATALOAD PUSH2 0x52C DUP5 DUP3 PUSH1 0x20 DUP7 ADD PUSH2 0x4C7 JUMP JUMPDEST SWAP2 POP POP SWAP3 SWAP2 POP POP JUMP JUMPDEST PUSH0 DUP1 PUSH0 PUSH1 0x60 DUP5 DUP7 SUB SLT ISZERO PUSH2 0x54C JUMPI PUSH2 0x54B PUSH2 0x360 JUMP JUMPDEST JUMPDEST PUSH0 PUSH2 0x559 DUP7 DUP3 DUP8 ADD PUSH2 0x387 JUMP JUMPDEST SWAP4 POP POP PUSH1 0x20 DUP5 ADD CALLDATALOAD PUSH8 0xFFFFFFFFFFFFFFFF DUP2 GT ISZERO PUSH2 0x57A JUMPI PUSH2 0x579 PUSH2 0x364 JUMP JUMPDEST JUMPDEST PUSH2 0x586 DUP7 DUP3 DUP8 ADD PUSH2 0x508 JUMP JUMPDEST SWAP3 POP POP PUSH1 0x40 PUSH2 0x597 DUP7 DUP3 DUP8 ADD PUSH2 0x387 JUMP JUMPDEST SWAP2 POP POP SWAP3 POP SWAP3 POP SWAP3 JUMP JUMPDEST PUSH2 0x5AA DUP2 PUSH2 0x368 JUMP JUMPDEST DUP3 MSTORE POP POP JUMP JUMPDEST PUSH0 DUP2 MLOAD SWAP1 POP SWAP2 SWAP1 POP JUMP JUMPDEST PUSH0 DUP3 DUP3 MSTORE PUSH1 0x20 DUP3 ADD SWAP1 POP SWAP3 SWAP2 POP POP JUMP JUMPDEST DUP3 DUP2 DUP4 MCOPY PUSH0 DUP4 DUP4 ADD MSTORE POP POP POP JUMP JUMPDEST PUSH0 PUSH2 0x5E2 DUP3 PUSH2 0x5B0 JUMP JUMPDEST PUSH2 0x5EC DUP2 DUP6 PUSH2 0x5BA JUMP JUMPDEST SWAP4 POP PUSH2 0x5FC DUP2 DUP6 PUSH1 0x20 DUP7 ADD PUSH2 0x5CA JUMP JUMPDEST PUSH2 0x605 DUP2 PUSH2 0x401 JUMP JUMPDEST DUP5 ADD SWAP2 POP POP SWAP3 SWAP2 POP POP JUMP JUMPDEST PUSH0 PUSH20 0xFFFFFFFFFFFFFFFFFFFFFFFFFFFFFFFFFFFFFFFF DUP3 AND SWAP1 POP SWAP2 SWAP1 POP JUMP JUMPDEST PUSH0 PUSH2 0x639 DUP3 PUSH2 0x610 JUMP JUMPDEST SWAP1 POP SWAP2 SWAP1 POP JUMP JUMPDEST PUSH2 0x649 DUP2 PUSH2 0x62F JUMP JUMPDEST DUP3 MSTORE POP POP JUMP JUMPDEST PUSH0 PUSH1 0xA0 DUP3 ADD SWAP1 POP PUSH2 0x662 PUSH0 DUP4 ADD DUP9 PUSH2 0x5A1 JUMP JUMPDEST DUP2 DUP2 SUB PUSH1 0x20 DUP4 ADD MSTORE PUSH2 0x674 DUP2 DUP8 PUSH2 0x5D8 JUMP JUMPDEST SWAP1 POP PUSH2 0x683 PUSH1 0x40 DUP4 ADD DUP7 PUSH2 0x5A1 JUMP JUMPDEST PUSH2 0x690 PUSH1 0x60 DUP4 ADD DUP6 PUSH2 0x640 JUMP JUMPDEST PUSH2 0x69D PUSH1 0x80 DUP4 ADD DUP5 PUSH2 0x3D1 JUMP JUMPDEST SWAP7 SWAP6 POP POP POP POP POP POP JUMP JUMPDEST PUSH32 0x4472756720776974682074686973206261746368206E756D62657220616C7265 PUSH0 DUP3 ADD MSTORE PUSH32 0x6164792072656769737465726564000000000000000000000000000000000000 PUSH1 0x20 DUP3 ADD MSTORE POP JUMP JUMPDEST PUSH0 PUSH2 0x701 PUSH1 0x2E DUP4 PUSH2 0x5BA JUMP JUMPDEST SWAP2 POP PUSH2 0x70C DUP3 PUSH2 0x6A7 JUMP JUMPDEST PUSH1 0x40 DUP3 ADD SWAP1 POP SWAP2 SWAP1 POP JUMP JUMPDEST PUSH0 PUSH1 0x20 DUP3 ADD SWAP1 POP DUP2 DUP2 SUB PUSH0 DUP4 ADD MSTORE PUSH2 0x72E DUP2 PUSH2 0x6F5 JUMP JUMPDEST SWAP1 POP SWAP2 SWAP1 POP JUMP JUMPDEST PUSH32 0x4E487B7100000000000000000000000000000000000000000000000000000000 PUSH0 MSTORE PUSH1 0x22 PUSH1 0x4 MSTORE PUSH1 0x24 PUSH0 REVERT JUMPDEST PUSH0 PUSH1 0x2 DUP3 DIV SWAP1 POP PUSH1 0x1 DUP3 AND DUP1 PUSH2 0x779 JUMPI PUSH1 0x7F DUP3 AND SWAP2 POP JUMPDEST PUSH1 0x20 DUP3 LT DUP2 SUB PUSH2 0x78C JUMPI PUSH2 0x78B PUSH2 0x735 JUMP JUMPDEST JUMPDEST POP SWAP2 SWAP1 POP JUMP JUMPDEST PUSH0 DUP2 SWAP1 POP DUP2 PUSH0 MSTORE PUSH1 0x20 PUSH0 KECCAK256 SWAP1 POP SWAP2 SWAP1 POP JUMP JUMPDEST PUSH0 PUSH1 0x20 PUSH1 0x1F DUP4 ADD DIV SWAP1 POP SWAP2 SWAP1 POP JUMP JUMPDEST PUSH0 DUP3 DUP3 SHL SWAP1 POP SWAP3 SWAP2 POP POP JUMP JUMPDEST PUSH0 PUSH1 0x8 DUP4 MUL PUSH2 0x7EE PUSH32 0xFFFFFFFFFFFFFFFFFFFFFFFFFFFFFFFFFFFFFFFFFFFFFFFFFFFFFFFFFFFFFFFF DUP3 PUSH2 0x7B3 JUMP JUMPDEST PUSH2 0x7F8 DUP7 DUP4 PUSH2 0x7B3 JUMP JUMPDEST SWAP6 POP DUP1 NOT DUP5 AND SWAP4 POP DUP1 DUP7 AND DUP5 OR SWAP3 POP POP POP SWAP4 SWAP3 POP POP POP JUMP JUMPDEST PUSH0 DUP2 SWAP1 POP SWAP2 SWAP1 POP JUMP JUMPDEST PUSH0 PUSH2 0x833 PUSH2 0x82E PUSH2 0x829 DUP5 PUSH2 0x368 JUMP JUMPDEST PUSH2 0x810 JUMP JUMPDEST PUSH2 0x368 JUMP JUMPDEST SWAP1 POP SWAP2 SWAP1 POP JUMP JUMPDEST PUSH0 DUP2 SWAP1 POP SWAP2 SWAP1 POP JUMP JUMPDEST PUSH2 0x84C DUP4 PUSH2 0x819 JUMP JUMPDEST PUSH2 0x860 PUSH2 0x858 DUP3 PUSH2 0x83A JUMP JUMPDEST DUP5 DUP5 SLOAD PUSH2 0x7BF JUMP JUMPDEST DUP3 SSTORE POP POP POP POP JUMP JUMPDEST PUSH0 SWAP1 JUMP JUMPDEST PUSH2 0x874 PUSH2 0x868 JUMP JUMPDEST PUSH2 0x87F DUP2 DUP5 DUP5 PUSH2 0x843 JUMP JUMPDEST POP POP POP JUMP JUMPDEST JUMPDEST DUP2 DUP2 LT ISZERO PUSH2 0x8A2 JUMPI PUSH2 0x897 PUSH0 DUP3 PUSH2 0x86C JUMP JUMPDEST PUSH1 0x1 DUP2 ADD SWAP1 POP PUSH2 0x885 JUMP JUMPDEST POP POP JUMP JUMPDEST PUSH1 0x1F DUP3 GT ISZERO PUSH2 0x8E7 JUMPI PUSH2 0x8B8 DUP2 PUSH2 0x792 JUMP JUMPDEST PUSH2 0x8C1 DUP5 PUSH2 0x7A4 JUMP JUMPDEST DUP2 ADD PUSH1 0x20 DUP6 LT ISZERO PUSH2 0x8D0 JUMPI DUP2 SWAP1 POP JUMPDEST PUSH2 0x8E4 PUSH2 0x8DC DUP6 PUSH2 0x7A4 JUMP JUMPDEST DUP4 ADD DUP3 PUSH2 0x884 JUMP JUMPDEST POP POP JUMPDEST POP POP POP JUMP JUMPDEST PUSH0 DUP3 DUP3 SHR SWAP1 POP SWAP3 SWAP2 POP POP JUMP JUMPDEST PUSH0 PUSH2 0x907 PUSH0 NOT DUP5 PUSH1 0x8 MUL PUSH2 0x8EC JUMP JUMPDEST NOT DUP1 DUP4 AND SWAP2 POP POP SWAP3 SWAP2 POP POP JUMP JUMPDEST PUSH0 PUSH2 0x91F DUP4 DUP4 PUSH2 0x8F8 JUMP JUMPDEST SWAP2 POP DUP3 PUSH1 0x2 MUL DUP3 OR SWAP1 POP SWAP3 SWAP2 POP POP JUMP JUMPDEST PUSH2 0x938 DUP3 PUSH2 0x5B0 JUMP JUMPDEST PUSH8 0xFFFFFFFFFFFFFFFF DUP2 GT ISZERO PUSH2 0x951 JUMPI PUSH2 0x950 PUSH2 0x411 JUMP JUMPDEST JUMPDEST PUSH2 0x95B DUP3 SLOAD PUSH2 0x762 JUMP JUMPDEST PUSH2 0x966 DUP3 DUP3 DUP6 PUSH2 0x8A6 JUMP JUMPDEST PUSH0 PUSH1 0x20 SWAP1 POP PUSH1 0x1F DUP4 GT PUSH1 0x1 DUP2 EQ PUSH2 0x997 JUMPI PUSH0 DUP5 ISZERO PUSH2 0x985 JUMPI DUP3 DUP8 ADD MLOAD SWAP1 POP JUMPDEST PUSH2 0x98F DUP6 DUP3 PUSH2 0x914 JUMP JUMPDEST DUP7 SSTORE POP PUSH2 0x9F6 JUMP JUMPDEST PUSH1 0x1F NOT DUP5 AND PUSH2 0x9A5 DUP7 PUSH2 0x792 JUMP JUMPDEST PUSH0 JUMPDEST DUP3 DUP2 LT ISZERO PUSH2 0x9CC JUMPI DUP5 DUP10 ADD MLOAD DUP3 SSTORE PUSH1 0x1 DUP3 ADD SWAP2 POP PUSH1 0x20 DUP6 ADD SWAP5 POP PUSH1 0x20 DUP2 ADD SWAP1 POP PUSH2 0x9A7 JUMP JUMPDEST DUP7 DUP4 LT ISZERO PUSH2 0x9E9 JUMPI DUP5 DUP10 ADD MLOAD PUSH2 0x9E5 PUSH1 0x1F DUP10 AND DUP3 PUSH2 0x8F8 JUMP JUMPDEST DUP4 SSTORE POP JUMPDEST PUSH1 0x1 PUSH1 0x2 DUP9 MUL ADD DUP9 SSTORE POP POP POP JUMPDEST POP POP POP POP POP POP JUMP JUMPDEST PUSH0 PUSH1 0x60 DUP3 ADD SWAP1 POP DUP2 DUP2 SUB PUSH0 DUP4 ADD MSTORE PUSH2 0xA16 DUP2 DUP7 PUSH2 0x5D8 JUMP JUMPDEST SWAP1 POP PUSH2 0xA25 PUSH1 0x20 DUP4 ADD DUP6 PUSH2 0x5A1 JUMP JUMPDEST PUSH2 0xA32 PUSH1 0x40 DUP4 ADD DUP5 PUSH2 0x640 JUMP JUMPDEST SWAP5 SWAP4 POP POP POP POP JUMP INVALID LOG2 PUSH5 0x6970667358 0x22 SLT KECCAK256 CALL 0xC3 MSIZE 0xAA 0x2F SELFDESTRUCT EXTCODECOPY 0xD0 JUMP 0xC SWAP16 SWAP5 EXTCODEHASH 0xE5 DUP12 DUP15 0x2E CHAINID PUSH15 0xA825DAE2CEF69E9E4DD8390C7B6473 PUSH16 0x6C634300081900330000000000000000 "
				},
				"gasEstimates": {
					"creation": {
						"codeDepositCost": "534400",
						"executionCost": "566",
						"totalCost": "534966"
					},
					"external": {
						"drugs(uint256)": "infinite",
						"registerDrug(uint256,string,uint256)": "infinite",
						"verifyDrug(uint256)": "2845"
					}
				},
				"methodIdentifiers": {
					"drugs(uint256)": "fca5e61e",
					"registerDrug(uint256,string,uint256)": "aecf5efd",
					"verifyDrug(uint256)": "412b46e4"
				}
			},
			"storageLayout": {
				"storage": [
					{
						"astId": 17,
						"contract": "first.sol:CounterfeitDrugDetection",
						"label": "drugs",
						"offset": 0,
						"slot": "0",
						"type": "t_mapping(t_uint256,t_struct(Drug)12_storage)"
					}
				],
				"types": {
					"t_address": {
						"encoding": "inplace",
						"label": "address",
						"numberOfBytes": "20"
					},
					"t_bool": {
						"encoding": "inplace",
						"label": "bool",
						"numberOfBytes": "1"
					},
					"t_mapping(t_uint256,t_struct(Drug)12_storage)": {
						"encoding": "mapping",
						"key": "t_uint256",
						"label": "mapping(uint256 => struct CounterfeitDrugDetection.Drug)",
						"numberOfBytes": "32",
						"value": "t_struct(Drug)12_storage"
					},
					"t_string_storage": {
						"encoding": "bytes",
						"label": "string",
						"numberOfBytes": "32"
					},
					"t_struct(Drug)12_storage": {
						"encoding": "inplace",
						"label": "struct CounterfeitDrugDetection.Drug",
						"members": [
							{
								"astId": 3,
								"contract": "first.sol:CounterfeitDrugDetection",
								"label": "batchNumber",
								"offset": 0,
								"slot": "0",
								"type": "t_uint256"
							},
							{
								"astId": 5,
								"contract": "first.sol:CounterfeitDrugDetection",
								"label": "name",
								"offset": 0,
								"slot": "1",
								"type": "t_string_storage"
							},
							{
								"astId": 7,
								"contract": "first.sol:CounterfeitDrugDetection",
								"label": "manufacturingDate",
								"offset": 0,
								"slot": "2",
								"type": "t_uint256"
							},
							{
								"astId": 9,
								"contract": "first.sol:CounterfeitDrugDetection",
								"label": "manufacturer",
								"offset": 0,
								"slot": "3",
								"type": "t_address"
							},
							{
								"astId": 11,
								"contract": "first.sol:CounterfeitDrugDetection",
								"label": "isRegistered",
								"offset": 20,
								"slot": "3",
								"type": "t_bool"
							}
						],
						"numberOfBytes": "128"
					},
					"t_uint256": {
						"encoding": "inplace",
						"label": "uint256",
						"numberOfBytes": "32"
					}
				}
			},
			"userdoc": {
				"kind": "user",
				"methods": {},
				"version": 1
			}
		}
	}
}