{
	"CounterfeitDrugDetection.sol": {
		"CounterfeitDrugDetection": {
			"abi": [
				{
					"anonymous": false,
					"inputs": [
						{
							"indexed": true,
							"internalType": "uint256",
							"name": "batchNumber",
							"type": "uint256"
						},
						{
							"indexed": false,
							"internalType": "string",
							"name": "name",
							"type": "string"
						},
						{
							"indexed": false,
							"internalType": "uint256",
							"name": "manufacturingDate",
							"type": "uint256"
						},
						{
							"indexed": false,
							"internalType": "address",
							"name": "manufacturer",
							"type": "address"
						}
					],
					"name": "DrugRegistered",
					"type": "event"
				},
				{
					"inputs": [
						{
							"internalType": "uint256",
							"name": "",
							"type": "uint256"
						}
					],
					"name": "drugs",
					"outputs": [
						{
							"internalType": "uint256",
							"name": "batchNumber",
							"type": "uint256"
						},
						{
							"internalType": "string",
							"name": "name",
							"type": "string"
						},
						{
							"internalType": "uint256",
							"name": "manufacturingDate",
							"type": "uint256"
						},
						{
							"internalType": "address",
							"name": "manufacturer",
							"type": "address"
						},
						{
							"internalType": "bool",
							"name": "isRegistered",
							"type": "bool"
						}
					],
					"stateMutability": "view",
					"type": "function"
				},
				{
					"inputs": [
						{
							"internalType": "uint256",
							"name": "_batchNumber",
							"type": "uint256"
						},
						{
							"internalType": "string",
							"name": "_name",
							"type": "string"
						},
						{
							"internalType": "uint256",
							"name": "_manufacturingDate",
							"type": "uint256"
						}
					],
					"name": "registerDrug",
					"outputs": [],
					"stateMutability": "nonpayable",
					"type": "function"
				},
				{
					"inputs": [
						{
							"internalType": "uint256",
							"name": "_batchNumber",
							"type": "uint256"
						}
					],
					"name": "verifyDrug",
					"outputs": [
						{
							"internalType": "bool",
							"name": "",
							"type": "bool"
						}
					],
					"stateMutability": "view",
					"type": "function"
				}
			],
			"devdoc": {
				"kind": "dev",
				"methods": {},
				"version": 1
			},
			"evm": {
				"assembly": "    /* \"CounterfeitDrugDetection.sol\":60:1235  contract CounterfeitDrugDetection {... */\n  mstore(0x40, 0x80)\n  callvalue\n  dup1\n  iszero\n  tag_1\n  jumpi\n  0x00\n  dup1\n  revert\ntag_1:\n  pop\n  dataSize(sub_0)\n  dup1\n  dataOffset(sub_0)\n  0x00\n  codecopy\n  0x00\n  return\nstop\n\nsub_0: assembly {\n        /* \"CounterfeitDrugDetection.sol\":60:1235  contract CounterfeitDrugDetection {... */\n      mstore(0x40, 0x80)\n      callvalue\n      dup1\n      iszero\n      tag_1\n      jumpi\n      0x00\n      dup1\n      revert\n    tag_1:\n      pop\n      jumpi(tag_2, lt(calldatasize, 0x04))\n      shr(0xe0, calldataload(0x00))\n      dup1\n      0x412b46e4\n      eq\n      tag_3\n      jumpi\n      dup1\n      0xaecf5efd\n      eq\n      tag_4\n      jumpi\n      dup1\n      0xfca5e61e\n      eq\n      tag_5\n      jumpi\n    tag_2:\n      0x00\n      dup1\n      revert\n        /* \"CounterfeitDrugDetection.sol\":1105:1232  function verifyDrug(uint256 _batchNumber) public view returns (bool) {... */\n    tag_3:\n      tag_6\n      0x04\n      dup1\n      calldatasize\n      sub\n      dup2\n      add\n      swap1\n      tag_7\n      swap2\n      swap1\n      tag_8\n      jump\t// in\n    tag_7:\n      tag_9\n      jump\t// in\n    tag_6:\n      mload(0x40)\n      tag_10\n      swap2\n      swap1\n      tag_11\n      jump\t// in\n    tag_10:\n      mload(0x40)\n      dup1\n      swap2\n      sub\n      swap1\n      return\n        /* \"CounterfeitDrugDetection.sol\":609:1043  function registerDrug(uint256 _batchNumber, string memory _name, uint256 _manufacturingDate) public {... */\n    tag_4:\n      tag_12\n      0x04\n      dup1\n      calldatasize\n      sub\n      dup2\n      add\n      swap1\n      tag_13\n      swap2\n      swap1\n      tag_14\n      jump\t// in\n    tag_13:\n      tag_15\n      jump\t// in\n    tag_12:\n      stop\n        /* \"CounterfeitDrugDetection.sol\":356:393  mapping(uint256 => Drug) public drugs */\n    tag_5:\n      tag_16\n      0x04\n      dup1\n      calldatasize\n      sub\n      dup2\n      add\n      swap1\n      tag_17\n      swap2\n      swap1\n      tag_8\n      jump\t// in\n    tag_17:\n      tag_18\n      jump\t// in\n    tag_16:\n      mload(0x40)\n      tag_19\n      swap6\n      swap5\n      swap4\n      swap3\n      swap2\n      swap1\n      tag_20\n      jump\t// in\n    tag_19:\n      mload(0x40)\n      dup1\n      swap2\n      sub\n      swap1\n      return\n        /* \"CounterfeitDrugDetection.sol\":1105:1232  function verifyDrug(uint256 _batchNumber) public view returns (bool) {... */\n    tag_9:\n        /* \"CounterfeitDrugDetection.sol\":1168:1172  bool */\n      0x00\n        /* \"CounterfeitDrugDetection.sol\":1192:1197  drugs */\n      dup1\n        /* \"CounterfeitDrugDetection.sol\":1192:1211  drugs[_batchNumber] */\n      0x00\n        /* \"CounterfeitDrugDetection.sol\":1198:1210  _batchNumber */\n      dup4\n        /* \"CounterfeitDrugDetection.sol\":1192:1211  drugs[_batchNumber] */\n      dup2\n      mstore\n      0x20\n      add\n      swap1\n      dup2\n      mstore\n      0x20\n      add\n      0x00\n      keccak256\n        /* \"CounterfeitDrugDetection.sol\":1192:1224  drugs[_batchNumber].isRegistered */\n      0x03\n      add\n      0x14\n      swap1\n      sload\n      swap1\n      0x0100\n      exp\n      swap1\n      div\n      0xff\n      and\n        /* \"CounterfeitDrugDetection.sol\":1185:1224  return drugs[_batchNumber].isRegistered */\n      swap1\n      pop\n        /* \"CounterfeitDrugDetection.sol\":1105:1232  function verifyDrug(uint256 _batchNumber) public view returns (bool) {... */\n      swap2\n      swap1\n      pop\n      jump\t// out\n        /* \"CounterfeitDrugDetection.sol\":609:1043  function registerDrug(uint256 _batchNumber, string memory _name, uint256 _manufacturingDate) public {... */\n    tag_15:\n        /* \"CounterfeitDrugDetection.sol\":729:734  drugs */\n      0x00\n        /* \"CounterfeitDrugDetection.sol\":729:748  drugs[_batchNumber] */\n      dup1\n        /* \"CounterfeitDrugDetection.sol\":735:747  _batchNumber */\n      dup5\n        /* \"CounterfeitDrugDetection.sol\":729:748  drugs[_batchNumber] */\n      dup2\n      mstore\n      0x20\n      add\n      swap1\n      dup2\n      mstore\n      0x20\n      add\n      0x00\n      keccak256\n        /* \"CounterfeitDrugDetection.sol\":729:761  drugs[_batchNumber].isRegistered */\n      0x03\n      add\n      0x14\n      swap1\n      sload\n      swap1\n      0x0100\n      exp\n      swap1\n      div\n      0xff\n      and\n        /* \"CounterfeitDrugDetection.sol\":728:761  !drugs[_batchNumber].isRegistered */\n      iszero\n        /* \"CounterfeitDrugDetection.sol\":720:812  require(!drugs[_batchNumber].isRegistered, \"Drug with this batch number already registered\") */\n      tag_23\n      jumpi\n      mload(0x40)\n      0x08c379a000000000000000000000000000000000000000000000000000000000\n      dup2\n      mstore\n      0x04\n      add\n      tag_24\n      swap1\n      tag_25\n      jump\t// in\n    tag_24:\n      mload(0x40)\n      dup1\n      swap2\n      sub\n      swap1\n      revert\n    tag_23:\n        /* \"CounterfeitDrugDetection.sol\":825:844  Drug memory newDrug */\n      0x00\n        /* \"CounterfeitDrugDetection.sol\":847:910  Drug(_batchNumber, _name, _manufacturingDate, msg.sender, true) */\n      mload(0x40)\n      dup1\n      0xa0\n      add\n      0x40\n      mstore\n      dup1\n        /* \"CounterfeitDrugDetection.sol\":852:864  _batchNumber */\n      dup6\n        /* \"CounterfeitDrugDetection.sol\":847:910  Drug(_batchNumber, _name, _manufacturingDate, msg.sender, true) */\n      dup2\n      mstore\n      0x20\n      add\n        /* \"CounterfeitDrugDetection.sol\":866:871  _name */\n      dup5\n        /* \"CounterfeitDrugDetection.sol\":847:910  Drug(_batchNumber, _name, _manufacturingDate, msg.sender, true) */\n      dup2\n      mstore\n      0x20\n      add\n        /* \"CounterfeitDrugDetection.sol\":873:891  _manufacturingDate */\n      dup4\n        /* \"CounterfeitDrugDetection.sol\":847:910  Drug(_batchNumber, _name, _manufacturingDate, msg.sender, true) */\n      dup2\n      mstore\n      0x20\n      add\n        /* \"CounterfeitDrugDetection.sol\":893:903  msg.sender */\n      caller\n        /* \"CounterfeitDrugDetection.sol\":847:910  Drug(_batchNumber, _name, _manufacturingDate, msg.sender, true) */\n      0xffffffffffffffffffffffffffffffffffffffff\n      and\n      dup2\n      mstore\n      0x20\n      add\n        /* \"CounterfeitDrugDetection.sol\":905:909  true */\n      0x01\n        /* \"CounterfeitDrugDetection.sol\":847:910  Drug(_batchNumber, _name, _manufacturingDate, msg.sender, true) */\n      iszero\n      iszero\n      dup2\n      mstore\n      pop\n        /* \"CounterfeitDrugDetection.sol\":825:910  Drug memory newDrug = Drug(_batchNumber, _name, _manufacturingDate, msg.sender, true) */\n      swap1\n      pop\n        /* \"CounterfeitDrugDetection.sol\":943:950  newDrug */\n      dup1\n        /* \"CounterfeitDrugDetection.sol\":921:926  drugs */\n      0x00\n        /* \"CounterfeitDrugDetection.sol\":921:940  drugs[_batchNumber] */\n      dup1\n        /* \"CounterfeitDrugDetection.sol\":927:939  _batchNumber */\n      dup7\n        /* \"CounterfeitDrugDetection.sol\":921:940  drugs[_batchNumber] */\n      dup2\n      mstore\n      0x20\n      add\n      swap1\n      dup2\n      mstore\n      0x20\n      add\n      0x00\n      keccak256\n        /* \"CounterfeitDrugDetection.sol\":921:950  drugs[_batchNumber] = newDrug */\n      0x00\n      dup3\n      add\n      mload\n      dup2\n      0x00\n      add\n      sstore\n      0x20\n      dup3\n      add\n      mload\n      dup2\n      0x01\n      add\n      swap1\n      dup2\n      tag_26\n      swap2\n      swap1\n      tag_27\n      jump\t// in\n    tag_26:\n      pop\n      0x40\n      dup3\n      add\n      mload\n      dup2\n      0x02\n      add\n      sstore\n      0x60\n      dup3\n      add\n      mload\n      dup2\n      0x03\n      add\n      exp(0x0100, 0x00)\n      dup2\n      sload\n      dup2\n      0xffffffffffffffffffffffffffffffffffffffff\n      mul\n      not\n      and\n      swap1\n      dup4\n      0xffffffffffffffffffffffffffffffffffffffff\n      and\n      mul\n      or\n      swap1\n      sstore\n      pop\n      0x80\n      dup3\n      add\n      mload\n      dup2\n      0x03\n      add\n      exp(0x0100, 0x14)\n      dup2\n      sload\n      dup2\n      0xff\n      mul\n      not\n      and\n      swap1\n      dup4\n      iszero\n      iszero\n      mul\n      or\n      swap1\n      sstore\n      pop\n      swap1\n      pop\n      pop\n        /* \"CounterfeitDrugDetection.sol\":983:995  _batchNumber */\n      dup4\n        /* \"CounterfeitDrugDetection.sol\":968:1035  DrugRegistered(_batchNumber, _name, _manufacturingDate, msg.sender) */\n      0x09c2d004856187b64755ea1e296c13e718698037c4d5e5fd4aa5933c0b332f56\n        /* \"CounterfeitDrugDetection.sol\":997:1002  _name */\n      dup5\n        /* \"CounterfeitDrugDetection.sol\":1004:1022  _manufacturingDate */\n      dup5\n        /* \"CounterfeitDrugDetection.sol\":1024:1034  msg.sender */\n      caller\n        /* \"CounterfeitDrugDetection.sol\":968:1035  DrugRegistered(_batchNumber, _name, _manufacturingDate, msg.sender) */\n      mload(0x40)\n      tag_28\n      swap4\n      swap3\n      swap2\n      swap1\n      tag_29\n      jump\t// in\n    tag_28:\n      mload(0x40)\n      dup1\n      swap2\n      sub\n      swap1\n      log2\n        /* \"CounterfeitDrugDetection.sol\":709:1043  {... */\n      pop\n        /* \"CounterfeitDrugDetection.sol\":609:1043  function registerDrug(uint256 _batchNumber, string memory _name, uint256 _manufacturingDate) public {... */\n      pop\n      pop\n      pop\n      jump\t// out\n        /* \"CounterfeitDrugDetection.sol\":356:393  mapping(uint256 => Drug) public drugs */\n    tag_18:\n      mstore(0x20, 0x00)\n      dup1\n      0x00\n      mstore\n      keccak256(0x00, 0x40)\n      0x00\n      swap2\n      pop\n      swap1\n      pop\n      dup1\n      0x00\n      add\n      sload\n      swap1\n      dup1\n      0x01\n      add\n      dup1\n      sload\n      tag_30\n      swap1\n      tag_31\n      jump\t// in\n    tag_30:\n      dup1\n      0x1f\n      add\n      0x20\n      dup1\n      swap2\n      div\n      mul\n      0x20\n      add\n      mload(0x40)\n      swap1\n      dup2\n      add\n      0x40\n      mstore\n      dup1\n      swap3\n      swap2\n      swap1\n      dup2\n      dup2\n      mstore\n      0x20\n      add\n      dup3\n      dup1\n      sload\n      tag_32\n      swap1\n      tag_31\n      jump\t// in\n    tag_32:\n      dup1\n      iszero\n      tag_33\n      jumpi\n      dup1\n      0x1f\n      lt\n      tag_34\n      jumpi\n      0x0100\n      dup1\n      dup4\n      sload\n      div\n      mul\n      dup4\n      mstore\n      swap2\n      0x20\n      add\n      swap2\n      jump(tag_33)\n    tag_34:\n      dup3\n      add\n      swap2\n      swap1\n      0x00\n      mstore\n      keccak256(0x00, 0x20)\n      swap1\n    tag_35:\n      dup2\n      sload\n      dup2\n      mstore\n      swap1\n      0x01\n      add\n      swap1\n      0x20\n      add\n      dup1\n      dup4\n      gt\n      tag_35\n      jumpi\n      dup3\n      swap1\n      sub\n      0x1f\n      and\n      dup3\n      add\n      swap2\n    tag_33:\n      pop\n      pop\n      pop\n      pop\n      pop\n      swap1\n      dup1\n      0x02\n      add\n      sload\n      swap1\n      dup1\n      0x03\n      add\n      0x00\n      swap1\n      sload\n      swap1\n      0x0100\n      exp\n      swap1\n      div\n      0xffffffffffffffffffffffffffffffffffffffff\n      and\n      swap1\n      dup1\n      0x03\n      add\n      0x14\n      swap1\n      sload\n      swap1\n      0x0100\n      exp\n      swap1\n      div\n      0xff\n      and\n      swap1\n      pop\n      dup6\n      jump\t// out\n        /* \"#utility.yul\":7:82   */\n    tag_36:\n        /* \"#utility.yul\":40:46   */\n      0x00\n        /* \"#utility.yul\":73:75   */\n      0x40\n        /* \"#utility.yul\":67:76   */\n      mload\n        /* \"#utility.yul\":57:76   */\n      swap1\n      pop\n        /* \"#utility.yul\":7:82   */\n      swap1\n      jump\t// out\n        /* \"#utility.yul\":88:205   */\n    tag_37:\n        /* \"#utility.yul\":197:198   */\n      0x00\n        /* \"#utility.yul\":194:195   */\n      dup1\n        /* \"#utility.yul\":187:199   */\n      revert\n        /* \"#utility.yul\":211:328   */\n    tag_38:\n        /* \"#utility.yul\":320:321   */\n      0x00\n        /* \"#utility.yul\":317:318   */\n      dup1\n        /* \"#utility.yul\":310:322   */\n      revert\n        /* \"#utility.yul\":334:411   */\n    tag_39:\n        /* \"#utility.yul\":371:378   */\n      0x00\n        /* \"#utility.yul\":400:405   */\n      dup2\n        /* \"#utility.yul\":389:405   */\n      swap1\n      pop\n        /* \"#utility.yul\":334:411   */\n      swap2\n      swap1\n      pop\n      jump\t// out\n        /* \"#utility.yul\":417:539   */\n    tag_40:\n        /* \"#utility.yul\":490:514   */\n      tag_86\n        /* \"#utility.yul\":508:513   */\n      dup2\n        /* \"#utility.yul\":490:514   */\n      tag_39\n      jump\t// in\n    tag_86:\n        /* \"#utility.yul\":483:488   */\n      dup2\n        /* \"#utility.yul\":480:515   */\n      eq\n        /* \"#utility.yul\":470:533   */\n      tag_87\n      jumpi\n        /* \"#utility.yul\":529:530   */\n      0x00\n        /* \"#utility.yul\":526:527   */\n      dup1\n        /* \"#utility.yul\":519:531   */\n      revert\n        /* \"#utility.yul\":470:533   */\n    tag_87:\n        /* \"#utility.yul\":417:539   */\n      pop\n      jump\t// out\n        /* \"#utility.yul\":545:684   */\n    tag_41:\n        /* \"#utility.yul\":591:596   */\n      0x00\n        /* \"#utility.yul\":629:635   */\n      dup2\n        /* \"#utility.yul\":616:636   */\n      calldataload\n        /* \"#utility.yul\":607:636   */\n      swap1\n      pop\n        /* \"#utility.yul\":645:678   */\n      tag_89\n        /* \"#utility.yul\":672:677   */\n      dup2\n        /* \"#utility.yul\":645:678   */\n      tag_40\n      jump\t// in\n    tag_89:\n        /* \"#utility.yul\":545:684   */\n      swap3\n      swap2\n      pop\n      pop\n      jump\t// out\n        /* \"#utility.yul\":690:1019   */\n    tag_8:\n        /* \"#utility.yul\":749:755   */\n      0x00\n        /* \"#utility.yul\":798:800   */\n      0x20\n        /* \"#utility.yul\":786:795   */\n      dup3\n        /* \"#utility.yul\":777:784   */\n      dup5\n        /* \"#utility.yul\":773:796   */\n      sub\n        /* \"#utility.yul\":769:801   */\n      slt\n        /* \"#utility.yul\":766:885   */\n      iszero\n      tag_91\n      jumpi\n        /* \"#utility.yul\":804:883   */\n      tag_92\n      tag_37\n      jump\t// in\n    tag_92:\n        /* \"#utility.yul\":766:885   */\n    tag_91:\n        /* \"#utility.yul\":924:925   */\n      0x00\n        /* \"#utility.yul\":949:1002   */\n      tag_93\n        /* \"#utility.yul\":994:1001   */\n      dup5\n        /* \"#utility.yul\":985:991   */\n      dup3\n        /* \"#utility.yul\":974:983   */\n      dup6\n        /* \"#utility.yul\":970:992   */\n      add\n        /* \"#utility.yul\":949:1002   */\n      tag_41\n      jump\t// in\n    tag_93:\n        /* \"#utility.yul\":939:1002   */\n      swap2\n      pop\n        /* \"#utility.yul\":895:1012   */\n      pop\n        /* \"#utility.yul\":690:1019   */\n      swap3\n      swap2\n      pop\n      pop\n      jump\t// out\n        /* \"#utility.yul\":1025:1115   */\n    tag_42:\n        /* \"#utility.yul\":1059:1066   */\n      0x00\n        /* \"#utility.yul\":1102:1107   */\n      dup2\n        /* \"#utility.yul\":1095:1108   */\n      iszero\n        /* \"#utility.yul\":1088:1109   */\n      iszero\n        /* \"#utility.yul\":1077:1109   */\n      swap1\n      pop\n        /* \"#utility.yul\":1025:1115   */\n      swap2\n      swap1\n      pop\n      jump\t// out\n        /* \"#utility.yul\":1121:1230   */\n    tag_43:\n        /* \"#utility.yul\":1202:1223   */\n      tag_96\n        /* \"#utility.yul\":1217:1222   */\n      dup2\n        /* \"#utility.yul\":1202:1223   */\n      tag_42\n      jump\t// in\n    tag_96:\n        /* \"#utility.yul\":1197:1200   */\n      dup3\n        /* \"#utility.yul\":1190:1224   */\n      mstore\n        /* \"#utility.yul\":1121:1230   */\n      pop\n      pop\n      jump\t// out\n        /* \"#utility.yul\":1236:1446   */\n    tag_11:\n        /* \"#utility.yul\":1323:1327   */\n      0x00\n        /* \"#utility.yul\":1361:1363   */\n      0x20\n        /* \"#utility.yul\":1350:1359   */\n      dup3\n        /* \"#utility.yul\":1346:1364   */\n      add\n        /* \"#utility.yul\":1338:1364   */\n      swap1\n      pop\n        /* \"#utility.yul\":1374:1439   */\n      tag_98\n        /* \"#utility.yul\":1436:1437   */\n      0x00\n        /* \"#utility.yul\":1425:1434   */\n      dup4\n        /* \"#utility.yul\":1421:1438   */\n      add\n        /* \"#utility.yul\":1412:1418   */\n      dup5\n        /* \"#utility.yul\":1374:1439   */\n      tag_43\n      jump\t// in\n    tag_98:\n        /* \"#utility.yul\":1236:1446   */\n      swap3\n      swap2\n      pop\n      pop\n      jump\t// out\n        /* \"#utility.yul\":1452:1569   */\n    tag_44:\n        /* \"#utility.yul\":1561:1562   */\n      0x00\n        /* \"#utility.yul\":1558:1559   */\n      dup1\n        /* \"#utility.yul\":1551:1563   */\n      revert\n        /* \"#utility.yul\":1575:1692   */\n    tag_45:\n        /* \"#utility.yul\":1684:1685   */\n      0x00\n        /* \"#utility.yul\":1681:1682   */\n      dup1\n        /* \"#utility.yul\":1674:1686   */\n      revert\n        /* \"#utility.yul\":1698:1800   */\n    tag_46:\n        /* \"#utility.yul\":1739:1745   */\n      0x00\n        /* \"#utility.yul\":1790:1792   */\n      0x1f\n        /* \"#utility.yul\":1786:1793   */\n      not\n        /* \"#utility.yul\":1781:1783   */\n      0x1f\n        /* \"#utility.yul\":1774:1779   */\n      dup4\n        /* \"#utility.yul\":1770:1784   */\n      add\n        /* \"#utility.yul\":1766:1794   */\n      and\n        /* \"#utility.yul\":1756:1794   */\n      swap1\n      pop\n        /* \"#utility.yul\":1698:1800   */\n      swap2\n      swap1\n      pop\n      jump\t// out\n        /* \"#utility.yul\":1806:1986   */\n    tag_47:\n        /* \"#utility.yul\":1854:1931   */\n      0x4e487b7100000000000000000000000000000000000000000000000000000000\n        /* \"#utility.yul\":1851:1852   */\n      0x00\n        /* \"#utility.yul\":1844:1932   */\n      mstore\n        /* \"#utility.yul\":1951:1955   */\n      0x41\n        /* \"#utility.yul\":1948:1949   */\n      0x04\n        /* \"#utility.yul\":1941:1956   */\n      mstore\n        /* \"#utility.yul\":1975:1979   */\n      0x24\n        /* \"#utility.yul\":1972:1973   */\n      0x00\n        /* \"#utility.yul\":1965:1980   */\n      revert\n        /* \"#utility.yul\":1992:2273   */\n    tag_48:\n        /* \"#utility.yul\":2075:2102   */\n      tag_104\n        /* \"#utility.yul\":2097:2101   */\n      dup3\n        /* \"#utility.yul\":2075:2102   */\n      tag_46\n      jump\t// in\n    tag_104:\n        /* \"#utility.yul\":2067:2073   */\n      dup2\n        /* \"#utility.yul\":2063:2103   */\n      add\n        /* \"#utility.yul\":2205:2211   */\n      dup2\n        /* \"#utility.yul\":2193:2203   */\n      dup2\n        /* \"#utility.yul\":2190:2212   */\n      lt\n        /* \"#utility.yul\":2169:2187   */\n      0xffffffffffffffff\n        /* \"#utility.yul\":2157:2167   */\n      dup3\n        /* \"#utility.yul\":2154:2188   */\n      gt\n        /* \"#utility.yul\":2151:2213   */\n      or\n        /* \"#utility.yul\":2148:2236   */\n      iszero\n      tag_105\n      jumpi\n        /* \"#utility.yul\":2216:2234   */\n      tag_106\n      tag_47\n      jump\t// in\n    tag_106:\n        /* \"#utility.yul\":2148:2236   */\n    tag_105:\n        /* \"#utility.yul\":2256:2266   */\n      dup1\n        /* \"#utility.yul\":2252:2254   */\n      0x40\n        /* \"#utility.yul\":2245:2267   */\n      mstore\n        /* \"#utility.yul\":2035:2273   */\n      pop\n        /* \"#utility.yul\":1992:2273   */\n      pop\n      pop\n      jump\t// out\n        /* \"#utility.yul\":2279:2408   */\n    tag_49:\n        /* \"#utility.yul\":2313:2319   */\n      0x00\n        /* \"#utility.yul\":2340:2360   */\n      tag_108\n      tag_36\n      jump\t// in\n    tag_108:\n        /* \"#utility.yul\":2330:2360   */\n      swap1\n      pop\n        /* \"#utility.yul\":2369:2402   */\n      tag_109\n        /* \"#utility.yul\":2397:2401   */\n      dup3\n        /* \"#utility.yul\":2389:2395   */\n      dup3\n        /* \"#utility.yul\":2369:2402   */\n      tag_48\n      jump\t// in\n    tag_109:\n        /* \"#utility.yul\":2279:2408   */\n      swap2\n      swap1\n      pop\n      jump\t// out\n        /* \"#utility.yul\":2414:2722   */\n    tag_50:\n        /* \"#utility.yul\":2476:2480   */\n      0x00\n        /* \"#utility.yul\":2566:2584   */\n      0xffffffffffffffff\n        /* \"#utility.yul\":2558:2564   */\n      dup3\n        /* \"#utility.yul\":2555:2585   */\n      gt\n        /* \"#utility.yul\":2552:2608   */\n      iszero\n      tag_111\n      jumpi\n        /* \"#utility.yul\":2588:2606   */\n      tag_112\n      tag_47\n      jump\t// in\n    tag_112:\n        /* \"#utility.yul\":2552:2608   */\n    tag_111:\n        /* \"#utility.yul\":2626:2655   */\n      tag_113\n        /* \"#utility.yul\":2648:2654   */\n      dup3\n        /* \"#utility.yul\":2626:2655   */\n      tag_46\n      jump\t// in\n    tag_113:\n        /* \"#utility.yul\":2618:2655   */\n      swap1\n      pop\n        /* \"#utility.yul\":2710:2714   */\n      0x20\n        /* \"#utility.yul\":2704:2708   */\n      dup2\n        /* \"#utility.yul\":2700:2715   */\n      add\n        /* \"#utility.yul\":2692:2715   */\n      swap1\n      pop\n        /* \"#utility.yul\":2414:2722   */\n      swap2\n      swap1\n      pop\n      jump\t// out\n        /* \"#utility.yul\":2728:2874   */\n    tag_51:\n        /* \"#utility.yul\":2825:2831   */\n      dup3\n        /* \"#utility.yul\":2820:2823   */\n      dup2\n        /* \"#utility.yul\":2815:2818   */\n      dup4\n        /* \"#utility.yul\":2802:2832   */\n      calldatacopy\n        /* \"#utility.yul\":2866:2867   */\n      0x00\n        /* \"#utility.yul\":2857:2863   */\n      dup4\n        /* \"#utility.yul\":2852:2855   */\n      dup4\n        /* \"#utility.yul\":2848:2864   */\n      add\n        /* \"#utility.yul\":2841:2868   */\n      mstore\n        /* \"#utility.yul\":2728:2874   */\n      pop\n      pop\n      pop\n      jump\t// out\n        /* \"#utility.yul\":2880:3305   */\n    tag_52:\n        /* \"#utility.yul\":2958:2963   */\n      0x00\n        /* \"#utility.yul\":2983:3049   */\n      tag_116\n        /* \"#utility.yul\":2999:3048   */\n      tag_117\n        /* \"#utility.yul\":3041:3047   */\n      dup5\n        /* \"#utility.yul\":2999:3048   */\n      tag_50\n      jump\t// in\n    tag_117:\n        /* \"#utility.yul\":2983:3049   */\n      tag_49\n      jump\t// in\n    tag_116:\n        /* \"#utility.yul\":2974:3049   */\n      swap1\n      pop\n        /* \"#utility.yul\":3072:3078   */\n      dup3\n        /* \"#utility.yul\":3065:3070   */\n      dup2\n        /* \"#utility.yul\":3058:3079   */\n      mstore\n        /* \"#utility.yul\":3110:3114   */\n      0x20\n        /* \"#utility.yul\":3103:3108   */\n      dup2\n        /* \"#utility.yul\":3099:3115   */\n      add\n        /* \"#utility.yul\":3148:3151   */\n      dup5\n        /* \"#utility.yul\":3139:3145   */\n      dup5\n        /* \"#utility.yul\":3134:3137   */\n      dup5\n        /* \"#utility.yul\":3130:3146   */\n      add\n        /* \"#utility.yul\":3127:3152   */\n      gt\n        /* \"#utility.yul\":3124:3236   */\n      iszero\n      tag_118\n      jumpi\n        /* \"#utility.yul\":3155:3234   */\n      tag_119\n      tag_45\n      jump\t// in\n    tag_119:\n        /* \"#utility.yul\":3124:3236   */\n    tag_118:\n        /* \"#utility.yul\":3245:3299   */\n      tag_120\n        /* \"#utility.yul\":3292:3298   */\n      dup5\n        /* \"#utility.yul\":3287:3290   */\n      dup3\n        /* \"#utility.yul\":3282:3285   */\n      dup6\n        /* \"#utility.yul\":3245:3299   */\n      tag_51\n      jump\t// in\n    tag_120:\n        /* \"#utility.yul\":2964:3305   */\n      pop\n        /* \"#utility.yul\":2880:3305   */\n      swap4\n      swap3\n      pop\n      pop\n      pop\n      jump\t// out\n        /* \"#utility.yul\":3325:3665   */\n    tag_53:\n        /* \"#utility.yul\":3381:3386   */\n      0x00\n        /* \"#utility.yul\":3430:3433   */\n      dup3\n        /* \"#utility.yul\":3423:3427   */\n      0x1f\n        /* \"#utility.yul\":3415:3421   */\n      dup4\n        /* \"#utility.yul\":3411:3428   */\n      add\n        /* \"#utility.yul\":3407:3434   */\n      slt\n        /* \"#utility.yul\":3397:3519   */\n      tag_122\n      jumpi\n        /* \"#utility.yul\":3438:3517   */\n      tag_123\n      tag_44\n      jump\t// in\n    tag_123:\n        /* \"#utility.yul\":3397:3519   */\n    tag_122:\n        /* \"#utility.yul\":3555:3561   */\n      dup2\n        /* \"#utility.yul\":3542:3562   */\n      calldataload\n        /* \"#utility.yul\":3580:3659   */\n      tag_124\n        /* \"#utility.yul\":3655:3658   */\n      dup5\n        /* \"#utility.yul\":3647:3653   */\n      dup3\n        /* \"#utility.yul\":3640:3644   */\n      0x20\n        /* \"#utility.yul\":3632:3638   */\n      dup7\n        /* \"#utility.yul\":3628:3645   */\n      add\n        /* \"#utility.yul\":3580:3659   */\n      tag_52\n      jump\t// in\n    tag_124:\n        /* \"#utility.yul\":3571:3659   */\n      swap2\n      pop\n        /* \"#utility.yul\":3387:3665   */\n      pop\n        /* \"#utility.yul\":3325:3665   */\n      swap3\n      swap2\n      pop\n      pop\n      jump\t// out\n        /* \"#utility.yul\":3671:4470   */\n    tag_14:\n        /* \"#utility.yul\":3758:3764   */\n      0x00\n        /* \"#utility.yul\":3766:3772   */\n      dup1\n        /* \"#utility.yul\":3774:3780   */\n      0x00\n        /* \"#utility.yul\":3823:3825   */\n      0x60\n        /* \"#utility.yul\":3811:3820   */\n      dup5\n        /* \"#utility.yul\":3802:3809   */\n      dup7\n        /* \"#utility.yul\":3798:3821   */\n      sub\n        /* \"#utility.yul\":3794:3826   */\n      slt\n        /* \"#utility.yul\":3791:3910   */\n      iszero\n      tag_126\n      jumpi\n        /* \"#utility.yul\":3829:3908   */\n      tag_127\n      tag_37\n      jump\t// in\n    tag_127:\n        /* \"#utility.yul\":3791:3910   */\n    tag_126:\n        /* \"#utility.yul\":3949:3950   */\n      0x00\n        /* \"#utility.yul\":3974:4027   */\n      tag_128\n        /* \"#utility.yul\":4019:4026   */\n      dup7\n        /* \"#utility.yul\":4010:4016   */\n      dup3\n        /* \"#utility.yul\":3999:4008   */\n      dup8\n        /* \"#utility.yul\":3995:4017   */\n      add\n        /* \"#utility.yul\":3974:4027   */\n      tag_41\n      jump\t// in\n    tag_128:\n        /* \"#utility.yul\":3964:4027   */\n      swap4\n      pop\n        /* \"#utility.yul\":3920:4037   */\n      pop\n        /* \"#utility.yul\":4104:4106   */\n      0x20\n        /* \"#utility.yul\":4093:4102   */\n      dup5\n        /* \"#utility.yul\":4089:4107   */\n      add\n        /* \"#utility.yul\":4076:4108   */\n      calldataload\n        /* \"#utility.yul\":4135:4153   */\n      0xffffffffffffffff\n        /* \"#utility.yul\":4127:4133   */\n      dup2\n        /* \"#utility.yul\":4124:4154   */\n      gt\n        /* \"#utility.yul\":4121:4238   */\n      iszero\n      tag_129\n      jumpi\n        /* \"#utility.yul\":4157:4236   */\n      tag_130\n      tag_38\n      jump\t// in\n    tag_130:\n        /* \"#utility.yul\":4121:4238   */\n    tag_129:\n        /* \"#utility.yul\":4262:4325   */\n      tag_131\n        /* \"#utility.yul\":4317:4324   */\n      dup7\n        /* \"#utility.yul\":4308:4314   */\n      dup3\n        /* \"#utility.yul\":4297:4306   */\n      dup8\n        /* \"#utility.yul\":4293:4315   */\n      add\n        /* \"#utility.yul\":4262:4325   */\n      tag_53\n      jump\t// in\n    tag_131:\n        /* \"#utility.yul\":4252:4325   */\n      swap3\n      pop\n        /* \"#utility.yul\":4047:4335   */\n      pop\n        /* \"#utility.yul\":4374:4376   */\n      0x40\n        /* \"#utility.yul\":4400:4453   */\n      tag_132\n        /* \"#utility.yul\":4445:4452   */\n      dup7\n        /* \"#utility.yul\":4436:4442   */\n      dup3\n        /* \"#utility.yul\":4425:4434   */\n      dup8\n        /* \"#utility.yul\":4421:4443   */\n      add\n        /* \"#utility.yul\":4400:4453   */\n      tag_41\n      jump\t// in\n    tag_132:\n        /* \"#utility.yul\":4390:4453   */\n      swap2\n      pop\n        /* \"#utility.yul\":4345:4463   */\n      pop\n        /* \"#utility.yul\":3671:4470   */\n      swap3\n      pop\n      swap3\n      pop\n      swap3\n      jump\t// out\n        /* \"#utility.yul\":4476:4594   */\n    tag_54:\n        /* \"#utility.yul\":4563:4587   */\n      tag_134\n        /* \"#utility.yul\":4581:4586   */\n      dup2\n        /* \"#utility.yul\":4563:4587   */\n      tag_39\n      jump\t// in\n    tag_134:\n        /* \"#utility.yul\":4558:4561   */\n      dup3\n        /* \"#utility.yul\":4551:4588   */\n      mstore\n        /* \"#utility.yul\":4476:4594   */\n      pop\n      pop\n      jump\t// out\n        /* \"#utility.yul\":4600:4699   */\n    tag_55:\n        /* \"#utility.yul\":4652:4658   */\n      0x00\n        /* \"#utility.yul\":4686:4691   */\n      dup2\n        /* \"#utility.yul\":4680:4692   */\n      mload\n        /* \"#utility.yul\":4670:4692   */\n      swap1\n      pop\n        /* \"#utility.yul\":4600:4699   */\n      swap2\n      swap1\n      pop\n      jump\t// out\n        /* \"#utility.yul\":4705:4874   */\n    tag_56:\n        /* \"#utility.yul\":4789:4800   */\n      0x00\n        /* \"#utility.yul\":4823:4829   */\n      dup3\n        /* \"#utility.yul\":4818:4821   */\n      dup3\n        /* \"#utility.yul\":4811:4830   */\n      mstore\n        /* \"#utility.yul\":4863:4867   */\n      0x20\n        /* \"#utility.yul\":4858:4861   */\n      dup3\n        /* \"#utility.yul\":4854:4868   */\n      add\n        /* \"#utility.yul\":4839:4868   */\n      swap1\n      pop\n        /* \"#utility.yul\":4705:4874   */\n      swap3\n      swap2\n      pop\n      pop\n      jump\t// out\n        /* \"#utility.yul\":4880:5126   */\n    tag_57:\n        /* \"#utility.yul\":4961:4962   */\n      0x00\n        /* \"#utility.yul\":4971:5084   */\n    tag_138:\n        /* \"#utility.yul\":4985:4991   */\n      dup4\n        /* \"#utility.yul\":4982:4983   */\n      dup2\n        /* \"#utility.yul\":4979:4992   */\n      lt\n        /* \"#utility.yul\":4971:5084   */\n      iszero\n      tag_140\n      jumpi\n        /* \"#utility.yul\":5070:5071   */\n      dup1\n        /* \"#utility.yul\":5065:5068   */\n      dup3\n        /* \"#utility.yul\":5061:5072   */\n      add\n        /* \"#utility.yul\":5055:5073   */\n      mload\n        /* \"#utility.yul\":5051:5052   */\n      dup2\n        /* \"#utility.yul\":5046:5049   */\n      dup5\n        /* \"#utility.yul\":5042:5053   */\n      add\n        /* \"#utility.yul\":5035:5074   */\n      mstore\n        /* \"#utility.yul\":5007:5009   */\n      0x20\n        /* \"#utility.yul\":5004:5005   */\n      dup2\n        /* \"#utility.yul\":5000:5010   */\n      add\n        /* \"#utility.yul\":4995:5010   */\n      swap1\n      pop\n        /* \"#utility.yul\":4971:5084   */\n      jump(tag_138)\n    tag_140:\n        /* \"#utility.yul\":5118:5119   */\n      0x00\n        /* \"#utility.yul\":5109:5115   */\n      dup5\n        /* \"#utility.yul\":5104:5107   */\n      dup5\n        /* \"#utility.yul\":5100:5116   */\n      add\n        /* \"#utility.yul\":5093:5120   */\n      mstore\n        /* \"#utility.yul\":4942:5126   */\n      pop\n        /* \"#utility.yul\":4880:5126   */\n      pop\n      pop\n      pop\n      jump\t// out\n        /* \"#utility.yul\":5132:5509   */\n    tag_58:\n        /* \"#utility.yul\":5220:5223   */\n      0x00\n        /* \"#utility.yul\":5248:5287   */\n      tag_142\n        /* \"#utility.yul\":5281:5286   */\n      dup3\n        /* \"#utility.yul\":5248:5287   */\n      tag_55\n      jump\t// in\n    tag_142:\n        /* \"#utility.yul\":5303:5374   */\n      tag_143\n        /* \"#utility.yul\":5367:5373   */\n      dup2\n        /* \"#utility.yul\":5362:5365   */\n      dup6\n        /* \"#utility.yul\":5303:5374   */\n      tag_56\n      jump\t// in\n    tag_143:\n        /* \"#utility.yul\":5296:5374   */\n      swap4\n      pop\n        /* \"#utility.yul\":5383:5448   */\n      tag_144\n        /* \"#utility.yul\":5441:5447   */\n      dup2\n        /* \"#utility.yul\":5436:5439   */\n      dup6\n        /* \"#utility.yul\":5429:5433   */\n      0x20\n        /* \"#utility.yul\":5422:5427   */\n      dup7\n        /* \"#utility.yul\":5418:5434   */\n      add\n        /* \"#utility.yul\":5383:5448   */\n      tag_57\n      jump\t// in\n    tag_144:\n        /* \"#utility.yul\":5473:5502   */\n      tag_145\n        /* \"#utility.yul\":5495:5501   */\n      dup2\n        /* \"#utility.yul\":5473:5502   */\n      tag_46\n      jump\t// in\n    tag_145:\n        /* \"#utility.yul\":5468:5471   */\n      dup5\n        /* \"#utility.yul\":5464:5503   */\n      add\n        /* \"#utility.yul\":5457:5503   */\n      swap2\n      pop\n        /* \"#utility.yul\":5224:5509   */\n      pop\n        /* \"#utility.yul\":5132:5509   */\n      swap3\n      swap2\n      pop\n      pop\n      jump\t// out\n        /* \"#utility.yul\":5515:5641   */\n    tag_59:\n        /* \"#utility.yul\":5552:5559   */\n      0x00\n        /* \"#utility.yul\":5592:5634   */\n      0xffffffffffffffffffffffffffffffffffffffff\n        /* \"#utility.yul\":5585:5590   */\n      dup3\n        /* \"#utility.yul\":5581:5635   */\n      and\n        /* \"#utility.yul\":5570:5635   */\n      swap1\n      pop\n        /* \"#utility.yul\":5515:5641   */\n      swap2\n      swap1\n      pop\n      jump\t// out\n        /* \"#utility.yul\":5647:5743   */\n    tag_60:\n        /* \"#utility.yul\":5684:5691   */\n      0x00\n        /* \"#utility.yul\":5713:5737   */\n      tag_148\n        /* \"#utility.yul\":5731:5736   */\n      dup3\n        /* \"#utility.yul\":5713:5737   */\n      tag_59\n      jump\t// in\n    tag_148:\n        /* \"#utility.yul\":5702:5737   */\n      swap1\n      pop\n        /* \"#utility.yul\":5647:5743   */\n      swap2\n      swap1\n      pop\n      jump\t// out\n        /* \"#utility.yul\":5749:5867   */\n    tag_61:\n        /* \"#utility.yul\":5836:5860   */\n      tag_150\n        /* \"#utility.yul\":5854:5859   */\n      dup2\n        /* \"#utility.yul\":5836:5860   */\n      tag_60\n      jump\t// in\n    tag_150:\n        /* \"#utility.yul\":5831:5834   */\n      dup3\n        /* \"#utility.yul\":5824:5861   */\n      mstore\n        /* \"#utility.yul\":5749:5867   */\n      pop\n      pop\n      jump\t// out\n        /* \"#utility.yul\":5873:6616   */\n    tag_20:\n        /* \"#utility.yul\":6092:6096   */\n      0x00\n        /* \"#utility.yul\":6130:6133   */\n      0xa0\n        /* \"#utility.yul\":6119:6128   */\n      dup3\n        /* \"#utility.yul\":6115:6134   */\n      add\n        /* \"#utility.yul\":6107:6134   */\n      swap1\n      pop\n        /* \"#utility.yul\":6144:6215   */\n      tag_152\n        /* \"#utility.yul\":6212:6213   */\n      0x00\n        /* \"#utility.yul\":6201:6210   */\n      dup4\n        /* \"#utility.yul\":6197:6214   */\n      add\n        /* \"#utility.yul\":6188:6194   */\n      dup9\n        /* \"#utility.yul\":6144:6215   */\n      tag_54\n      jump\t// in\n    tag_152:\n        /* \"#utility.yul\":6262:6271   */\n      dup2\n        /* \"#utility.yul\":6256:6260   */\n      dup2\n        /* \"#utility.yul\":6252:6272   */\n      sub\n        /* \"#utility.yul\":6247:6249   */\n      0x20\n        /* \"#utility.yul\":6236:6245   */\n      dup4\n        /* \"#utility.yul\":6232:6250   */\n      add\n        /* \"#utility.yul\":6225:6273   */\n      mstore\n        /* \"#utility.yul\":6290:6368   */\n      tag_153\n        /* \"#utility.yul\":6363:6367   */\n      dup2\n        /* \"#utility.yul\":6354:6360   */\n      dup8\n        /* \"#utility.yul\":6290:6368   */\n      tag_58\n      jump\t// in\n    tag_153:\n        /* \"#utility.yul\":6282:6368   */\n      swap1\n      pop\n        /* \"#utility.yul\":6378:6450   */\n      tag_154\n        /* \"#utility.yul\":6446:6448   */\n      0x40\n        /* \"#utility.yul\":6435:6444   */\n      dup4\n        /* \"#utility.yul\":6431:6449   */\n      add\n        /* \"#utility.yul\":6422:6428   */\n      dup7\n        /* \"#utility.yul\":6378:6450   */\n      tag_54\n      jump\t// in\n    tag_154:\n        /* \"#utility.yul\":6460:6532   */\n      tag_155\n        /* \"#utility.yul\":6528:6530   */\n      0x60\n        /* \"#utility.yul\":6517:6526   */\n      dup4\n        /* \"#utility.yul\":6513:6531   */\n      add\n        /* \"#utility.yul\":6504:6510   */\n      dup6\n        /* \"#utility.yul\":6460:6532   */\n      tag_61\n      jump\t// in\n    tag_155:\n        /* \"#utility.yul\":6542:6609   */\n      tag_156\n        /* \"#utility.yul\":6604:6607   */\n      0x80\n        /* \"#utility.yul\":6593:6602   */\n      dup4\n        /* \"#utility.yul\":6589:6608   */\n      add\n        /* \"#utility.yul\":6580:6586   */\n      dup5\n        /* \"#utility.yul\":6542:6609   */\n      tag_43\n      jump\t// in\n    tag_156:\n        /* \"#utility.yul\":5873:6616   */\n      swap7\n      swap6\n      pop\n      pop\n      pop\n      pop\n      pop\n      pop\n      jump\t// out\n        /* \"#utility.yul\":6622:6855   */\n    tag_62:\n        /* \"#utility.yul\":6762:6796   */\n      0x4472756720776974682074686973206261746368206e756d62657220616c7265\n        /* \"#utility.yul\":6758:6759   */\n      0x00\n        /* \"#utility.yul\":6750:6756   */\n      dup3\n        /* \"#utility.yul\":6746:6760   */\n      add\n        /* \"#utility.yul\":6739:6797   */\n      mstore\n        /* \"#utility.yul\":6831:6847   */\n      0x6164792072656769737465726564000000000000000000000000000000000000\n        /* \"#utility.yul\":6826:6828   */\n      0x20\n        /* \"#utility.yul\":6818:6824   */\n      dup3\n        /* \"#utility.yul\":6814:6829   */\n      add\n        /* \"#utility.yul\":6807:6848   */\n      mstore\n        /* \"#utility.yul\":6622:6855   */\n      pop\n      jump\t// out\n        /* \"#utility.yul\":6861:7227   */\n    tag_63:\n        /* \"#utility.yul\":7003:7006   */\n      0x00\n        /* \"#utility.yul\":7024:7091   */\n      tag_159\n        /* \"#utility.yul\":7088:7090   */\n      0x2e\n        /* \"#utility.yul\":7083:7086   */\n      dup4\n        /* \"#utility.yul\":7024:7091   */\n      tag_56\n      jump\t// in\n    tag_159:\n        /* \"#utility.yul\":7017:7091   */\n      swap2\n      pop\n        /* \"#utility.yul\":7100:7193   */\n      tag_160\n        /* \"#utility.yul\":7189:7192   */\n      dup3\n        /* \"#utility.yul\":7100:7193   */\n      tag_62\n      jump\t// in\n    tag_160:\n        /* \"#utility.yul\":7218:7220   */\n      0x40\n        /* \"#utility.yul\":7213:7216   */\n      dup3\n        /* \"#utility.yul\":7209:7221   */\n      add\n        /* \"#utility.yul\":7202:7221   */\n      swap1\n      pop\n        /* \"#utility.yul\":6861:7227   */\n      swap2\n      swap1\n      pop\n      jump\t// out\n        /* \"#utility.yul\":7233:7652   */\n    tag_25:\n        /* \"#utility.yul\":7399:7403   */\n      0x00\n        /* \"#utility.yul\":7437:7439   */\n      0x20\n        /* \"#utility.yul\":7426:7435   */\n      dup3\n        /* \"#utility.yul\":7422:7440   */\n      add\n        /* \"#utility.yul\":7414:7440   */\n      swap1\n      pop\n        /* \"#utility.yul\":7486:7495   */\n      dup2\n        /* \"#utility.yul\":7480:7484   */\n      dup2\n        /* \"#utility.yul\":7476:7496   */\n      sub\n        /* \"#utility.yul\":7472:7473   */\n      0x00\n        /* \"#utility.yul\":7461:7470   */\n      dup4\n        /* \"#utility.yul\":7457:7474   */\n      add\n        /* \"#utility.yul\":7450:7497   */\n      mstore\n        /* \"#utility.yul\":7514:7645   */\n      tag_162\n        /* \"#utility.yul\":7640:7644   */\n      dup2\n        /* \"#utility.yul\":7514:7645   */\n      tag_63\n      jump\t// in\n    tag_162:\n        /* \"#utility.yul\":7506:7645   */\n      swap1\n      pop\n        /* \"#utility.yul\":7233:7652   */\n      swap2\n      swap1\n      pop\n      jump\t// out\n        /* \"#utility.yul\":7658:7838   */\n    tag_64:\n        /* \"#utility.yul\":7706:7783   */\n      0x4e487b7100000000000000000000000000000000000000000000000000000000\n        /* \"#utility.yul\":7703:7704   */\n      0x00\n        /* \"#utility.yul\":7696:7784   */\n      mstore\n        /* \"#utility.yul\":7803:7807   */\n      0x22\n        /* \"#utility.yul\":7800:7801   */\n      0x04\n        /* \"#utility.yul\":7793:7808   */\n      mstore\n        /* \"#utility.yul\":7827:7831   */\n      0x24\n        /* \"#utility.yul\":7824:7825   */\n      0x00\n        /* \"#utility.yul\":7817:7832   */\n      revert\n        /* \"#utility.yul\":7844:8164   */\n    tag_31:\n        /* \"#utility.yul\":7888:7894   */\n      0x00\n        /* \"#utility.yul\":7925:7926   */\n      0x02\n        /* \"#utility.yul\":7919:7923   */\n      dup3\n        /* \"#utility.yul\":7915:7927   */\n      div\n        /* \"#utility.yul\":7905:7927   */\n      swap1\n      pop\n        /* \"#utility.yul\":7972:7973   */\n      0x01\n        /* \"#utility.yul\":7966:7970   */\n      dup3\n        /* \"#utility.yul\":7962:7974   */\n      and\n        /* \"#utility.yul\":7993:8011   */\n      dup1\n        /* \"#utility.yul\":7983:8064   */\n      tag_165\n      jumpi\n        /* \"#utility.yul\":8049:8053   */\n      0x7f\n        /* \"#utility.yul\":8041:8047   */\n      dup3\n        /* \"#utility.yul\":8037:8054   */\n      and\n        /* \"#utility.yul\":8027:8054   */\n      swap2\n      pop\n        /* \"#utility.yul\":7983:8064   */\n    tag_165:\n        /* \"#utility.yul\":8111:8113   */\n      0x20\n        /* \"#utility.yul\":8103:8109   */\n      dup3\n        /* \"#utility.yul\":8100:8114   */\n      lt\n        /* \"#utility.yul\":8080:8098   */\n      dup2\n        /* \"#utility.yul\":8077:8115   */\n      sub\n        /* \"#utility.yul\":8074:8158   */\n      tag_166\n      jumpi\n        /* \"#utility.yul\":8130:8148   */\n      tag_167\n      tag_64\n      jump\t// in\n    tag_167:\n        /* \"#utility.yul\":8074:8158   */\n    tag_166:\n        /* \"#utility.yul\":7895:8164   */\n      pop\n        /* \"#utility.yul\":7844:8164   */\n      swap2\n      swap1\n      pop\n      jump\t// out\n        /* \"#utility.yul\":8170:8311   */\n    tag_65:\n        /* \"#utility.yul\":8219:8223   */\n      0x00\n        /* \"#utility.yul\":8242:8245   */\n      dup2\n        /* \"#utility.yul\":8234:8245   */\n      swap1\n      pop\n        /* \"#utility.yul\":8265:8268   */\n      dup2\n        /* \"#utility.yul\":8262:8263   */\n      0x00\n        /* \"#utility.yul\":8255:8269   */\n      mstore\n        /* \"#utility.yul\":8299:8303   */\n      0x20\n        /* \"#utility.yul\":8296:8297   */\n      0x00\n        /* \"#utility.yul\":8286:8304   */\n      keccak256\n        /* \"#utility.yul\":8278:8304   */\n      swap1\n      pop\n        /* \"#utility.yul\":8170:8311   */\n      swap2\n      swap1\n      pop\n      jump\t// out\n        /* \"#utility.yul\":8317:8410   */\n    tag_66:\n        /* \"#utility.yul\":8354:8360   */\n      0x00\n        /* \"#utility.yul\":8401:8403   */\n      0x20\n        /* \"#utility.yul\":8396:8398   */\n      0x1f\n        /* \"#utility.yul\":8389:8394   */\n      dup4\n        /* \"#utility.yul\":8385:8399   */\n      add\n        /* \"#utility.yul\":8381:8404   */\n      div\n        /* \"#utility.yul\":8371:8404   */\n      swap1\n      pop\n        /* \"#utility.yul\":8317:8410   */\n      swap2\n      swap1\n      pop\n      jump\t// out\n        /* \"#utility.yul\":8416:8523   */\n    tag_67:\n        /* \"#utility.yul\":8460:8468   */\n      0x00\n        /* \"#utility.yul\":8510:8515   */\n      dup3\n        /* \"#utility.yul\":8504:8508   */\n      dup3\n        /* \"#utility.yul\":8500:8516   */\n      shl\n        /* \"#utility.yul\":8479:8516   */\n      swap1\n      pop\n        /* \"#utility.yul\":8416:8523   */\n      swap3\n      swap2\n      pop\n      pop\n      jump\t// out\n        /* \"#utility.yul\":8529:8922   */\n    tag_68:\n        /* \"#utility.yul\":8598:8604   */\n      0x00\n        /* \"#utility.yul\":8648:8649   */\n      0x08\n        /* \"#utility.yul\":8636:8646   */\n      dup4\n        /* \"#utility.yul\":8632:8650   */\n      mul\n        /* \"#utility.yul\":8671:8768   */\n      tag_172\n        /* \"#utility.yul\":8701:8767   */\n      0xffffffffffffffffffffffffffffffffffffffffffffffffffffffffffffffff\n        /* \"#utility.yul\":8690:8699   */\n      dup3\n        /* \"#utility.yul\":8671:8768   */\n      tag_67\n      jump\t// in\n    tag_172:\n        /* \"#utility.yul\":8789:8828   */\n      tag_173\n        /* \"#utility.yul\":8819:8827   */\n      dup7\n        /* \"#utility.yul\":8808:8817   */\n      dup4\n        /* \"#utility.yul\":8789:8828   */\n      tag_67\n      jump\t// in\n    tag_173:\n        /* \"#utility.yul\":8777:8828   */\n      swap6\n      pop\n        /* \"#utility.yul\":8861:8865   */\n      dup1\n        /* \"#utility.yul\":8857:8866   */\n      not\n        /* \"#utility.yul\":8850:8855   */\n      dup5\n        /* \"#utility.yul\":8846:8867   */\n      and\n        /* \"#utility.yul\":8837:8867   */\n      swap4\n      pop\n        /* \"#utility.yul\":8910:8914   */\n      dup1\n        /* \"#utility.yul\":8900:8908   */\n      dup7\n        /* \"#utility.yul\":8896:8915   */\n      and\n        /* \"#utility.yul\":8889:8894   */\n      dup5\n        /* \"#utility.yul\":8886:8916   */\n      or\n        /* \"#utility.yul\":8876:8916   */\n      swap3\n      pop\n        /* \"#utility.yul\":8605:8922   */\n      pop\n      pop\n        /* \"#utility.yul\":8529:8922   */\n      swap4\n      swap3\n      pop\n      pop\n      pop\n      jump\t// out\n        /* \"#utility.yul\":8928:8988   */\n    tag_69:\n        /* \"#utility.yul\":8956:8959   */\n      0x00\n        /* \"#utility.yul\":8977:8982   */\n      dup2\n        /* \"#utility.yul\":8970:8982   */\n      swap1\n      pop\n        /* \"#utility.yul\":8928:8988   */\n      swap2\n      swap1\n      pop\n      jump\t// out\n        /* \"#utility.yul\":8994:9136   */\n    tag_70:\n        /* \"#utility.yul\":9044:9053   */\n      0x00\n        /* \"#utility.yul\":9077:9130   */\n      tag_176\n        /* \"#utility.yul\":9095:9129   */\n      tag_177\n        /* \"#utility.yul\":9104:9128   */\n      tag_178\n        /* \"#utility.yul\":9122:9127   */\n      dup5\n        /* \"#utility.yul\":9104:9128   */\n      tag_39\n      jump\t// in\n    tag_178:\n        /* \"#utility.yul\":9095:9129   */\n      tag_69\n      jump\t// in\n    tag_177:\n        /* \"#utility.yul\":9077:9130   */\n      tag_39\n      jump\t// in\n    tag_176:\n        /* \"#utility.yul\":9064:9130   */\n      swap1\n      pop\n        /* \"#utility.yul\":8994:9136   */\n      swap2\n      swap1\n      pop\n      jump\t// out\n        /* \"#utility.yul\":9142:9217   */\n    tag_71:\n        /* \"#utility.yul\":9185:9188   */\n      0x00\n        /* \"#utility.yul\":9206:9211   */\n      dup2\n        /* \"#utility.yul\":9199:9211   */\n      swap1\n      pop\n        /* \"#utility.yul\":9142:9217   */\n      swap2\n      swap1\n      pop\n      jump\t// out\n        /* \"#utility.yul\":9223:9492   */\n    tag_72:\n        /* \"#utility.yul\":9333:9372   */\n      tag_181\n        /* \"#utility.yul\":9364:9371   */\n      dup4\n        /* \"#utility.yul\":9333:9372   */\n      tag_70\n      jump\t// in\n    tag_181:\n        /* \"#utility.yul\":9394:9485   */\n      tag_182\n        /* \"#utility.yul\":9443:9484   */\n      tag_183\n        /* \"#utility.yul\":9467:9483   */\n      dup3\n        /* \"#utility.yul\":9443:9484   */\n      tag_71\n      jump\t// in\n    tag_183:\n        /* \"#utility.yul\":9435:9441   */\n      dup5\n        /* \"#utility.yul\":9428:9432   */\n      dup5\n        /* \"#utility.yul\":9422:9433   */\n      sload\n        /* \"#utility.yul\":9394:9485   */\n      tag_68\n      jump\t// in\n    tag_182:\n        /* \"#utility.yul\":9388:9392   */\n      dup3\n        /* \"#utility.yul\":9381:9486   */\n      sstore\n        /* \"#utility.yul\":9299:9492   */\n      pop\n        /* \"#utility.yul\":9223:9492   */\n      pop\n      pop\n      pop\n      jump\t// out\n        /* \"#utility.yul\":9498:9571   */\n    tag_73:\n        /* \"#utility.yul\":9543:9546   */\n      0x00\n        /* \"#utility.yul\":9498:9571   */\n      swap1\n      jump\t// out\n        /* \"#utility.yul\":9577:9766   */\n    tag_74:\n        /* \"#utility.yul\":9654:9686   */\n      tag_186\n      tag_73\n      jump\t// in\n    tag_186:\n        /* \"#utility.yul\":9695:9760   */\n      tag_187\n        /* \"#utility.yul\":9753:9759   */\n      dup2\n        /* \"#utility.yul\":9745:9751   */\n      dup5\n        /* \"#utility.yul\":9739:9743   */\n      dup5\n        /* \"#utility.yul\":9695:9760   */\n      tag_72\n      jump\t// in\n    tag_187:\n        /* \"#utility.yul\":9630:9766   */\n      pop\n        /* \"#utility.yul\":9577:9766   */\n      pop\n      pop\n      jump\t// out\n        /* \"#utility.yul\":9772:9958   */\n    tag_75:\n        /* \"#utility.yul\":9832:9952   */\n    tag_189:\n        /* \"#utility.yul\":9849:9852   */\n      dup2\n        /* \"#utility.yul\":9842:9847   */\n      dup2\n        /* \"#utility.yul\":9839:9853   */\n      lt\n        /* \"#utility.yul\":9832:9952   */\n      iszero\n      tag_191\n      jumpi\n        /* \"#utility.yul\":9903:9942   */\n      tag_192\n        /* \"#utility.yul\":9940:9941   */\n      0x00\n        /* \"#utility.yul\":9933:9938   */\n      dup3\n        /* \"#utility.yul\":9903:9942   */\n      tag_74\n      jump\t// in\n    tag_192:\n        /* \"#utility.yul\":9876:9877   */\n      0x01\n        /* \"#utility.yul\":9869:9874   */\n      dup2\n        /* \"#utility.yul\":9865:9878   */\n      add\n        /* \"#utility.yul\":9856:9878   */\n      swap1\n      pop\n        /* \"#utility.yul\":9832:9952   */\n      jump(tag_189)\n    tag_191:\n        /* \"#utility.yul\":9772:9958   */\n      pop\n      pop\n      jump\t// out\n        /* \"#utility.yul\":9964:10507   */\n    tag_76:\n        /* \"#utility.yul\":10065:10067   */\n      0x1f\n        /* \"#utility.yul\":10060:10063   */\n      dup3\n        /* \"#utility.yul\":10057:10068   */\n      gt\n        /* \"#utility.yul\":10054:10500   */\n      iszero\n      tag_194\n      jumpi\n        /* \"#utility.yul\":10099:10137   */\n      tag_195\n        /* \"#utility.yul\":10131:10136   */\n      dup2\n        /* \"#utility.yul\":10099:10137   */\n      tag_65\n      jump\t// in\n    tag_195:\n        /* \"#utility.yul\":10183:10212   */\n      tag_196\n        /* \"#utility.yul\":10201:10211   */\n      dup5\n        /* \"#utility.yul\":10183:10212   */\n      tag_66\n      jump\t// in\n    tag_196:\n        /* \"#utility.yul\":10173:10181   */\n      dup2\n        /* \"#utility.yul\":10169:10213   */\n      add\n        /* \"#utility.yul\":10366:10368   */\n      0x20\n        /* \"#utility.yul\":10354:10364   */\n      dup6\n        /* \"#utility.yul\":10351:10369   */\n      lt\n        /* \"#utility.yul\":10348:10397   */\n      iszero\n      tag_197\n      jumpi\n        /* \"#utility.yul\":10387:10395   */\n      dup2\n        /* \"#utility.yul\":10372:10395   */\n      swap1\n      pop\n        /* \"#utility.yul\":10348:10397   */\n    tag_197:\n        /* \"#utility.yul\":10410:10490   */\n      tag_198\n        /* \"#utility.yul\":10466:10488   */\n      tag_199\n        /* \"#utility.yul\":10484:10487   */\n      dup6\n        /* \"#utility.yul\":10466:10488   */\n      tag_66\n      jump\t// in\n    tag_199:\n        /* \"#utility.yul\":10456:10464   */\n      dup4\n        /* \"#utility.yul\":10452:10489   */\n      add\n        /* \"#utility.yul\":10439:10450   */\n      dup3\n        /* \"#utility.yul\":10410:10490   */\n      tag_75\n      jump\t// in\n    tag_198:\n        /* \"#utility.yul\":10069:10500   */\n      pop\n      pop\n        /* \"#utility.yul\":10054:10500   */\n    tag_194:\n        /* \"#utility.yul\":9964:10507   */\n      pop\n      pop\n      pop\n      jump\t// out\n        /* \"#utility.yul\":10513:10630   */\n    tag_77:\n        /* \"#utility.yul\":10567:10575   */\n      0x00\n        /* \"#utility.yul\":10617:10622   */\n      dup3\n        /* \"#utility.yul\":10611:10615   */\n      dup3\n        /* \"#utility.yul\":10607:10623   */\n      shr\n        /* \"#utility.yul\":10586:10623   */\n      swap1\n      pop\n        /* \"#utility.yul\":10513:10630   */\n      swap3\n      swap2\n      pop\n      pop\n      jump\t// out\n        /* \"#utility.yul\":10636:10805   */\n    tag_78:\n        /* \"#utility.yul\":10680:10686   */\n      0x00\n        /* \"#utility.yul\":10713:10764   */\n      tag_202\n        /* \"#utility.yul\":10761:10762   */\n      0x00\n        /* \"#utility.yul\":10757:10763   */\n      not\n        /* \"#utility.yul\":10749:10754   */\n      dup5\n        /* \"#utility.yul\":10746:10747   */\n      0x08\n        /* \"#utility.yul\":10742:10755   */\n      mul\n        /* \"#utility.yul\":10713:10764   */\n      tag_77\n      jump\t// in\n    tag_202:\n        /* \"#utility.yul\":10709:10765   */\n      not\n        /* \"#utility.yul\":10794:10798   */\n      dup1\n        /* \"#utility.yul\":10788:10792   */\n      dup4\n        /* \"#utility.yul\":10784:10799   */\n      and\n        /* \"#utility.yul\":10774:10799   */\n      swap2\n      pop\n        /* \"#utility.yul\":10687:10805   */\n      pop\n        /* \"#utility.yul\":10636:10805   */\n      swap3\n      swap2\n      pop\n      pop\n      jump\t// out\n        /* \"#utility.yul\":10810:11105   */\n    tag_79:\n        /* \"#utility.yul\":10886:10890   */\n      0x00\n        /* \"#utility.yul\":11032:11061   */\n      tag_204\n        /* \"#utility.yul\":11057:11060   */\n      dup4\n        /* \"#utility.yul\":11051:11055   */\n      dup4\n        /* \"#utility.yul\":11032:11061   */\n      tag_78\n      jump\t// in\n    tag_204:\n        /* \"#utility.yul\":11024:11061   */\n      swap2\n      pop\n        /* \"#utility.yul\":11094:11097   */\n      dup3\n        /* \"#utility.yul\":11091:11092   */\n      0x02\n        /* \"#utility.yul\":11087:11098   */\n      mul\n        /* \"#utility.yul\":11081:11085   */\n      dup3\n        /* \"#utility.yul\":11078:11099   */\n      or\n        /* \"#utility.yul\":11070:11099   */\n      swap1\n      pop\n        /* \"#utility.yul\":10810:11105   */\n      swap3\n      swap2\n      pop\n      pop\n      jump\t// out\n        /* \"#utility.yul\":11110:12505   */\n    tag_27:\n        /* \"#utility.yul\":11227:11264   */\n      tag_206\n        /* \"#utility.yul\":11260:11263   */\n      dup3\n        /* \"#utility.yul\":11227:11264   */\n      tag_55\n      jump\t// in\n    tag_206:\n        /* \"#utility.yul\":11329:11347   */\n      0xffffffffffffffff\n        /* \"#utility.yul\":11321:11327   */\n      dup2\n        /* \"#utility.yul\":11318:11348   */\n      gt\n        /* \"#utility.yul\":11315:11371   */\n      iszero\n      tag_207\n      jumpi\n        /* \"#utility.yul\":11351:11369   */\n      tag_208\n      tag_47\n      jump\t// in\n    tag_208:\n        /* \"#utility.yul\":11315:11371   */\n    tag_207:\n        /* \"#utility.yul\":11395:11433   */\n      tag_209\n        /* \"#utility.yul\":11427:11431   */\n      dup3\n        /* \"#utility.yul\":11421:11432   */\n      sload\n        /* \"#utility.yul\":11395:11433   */\n      tag_31\n      jump\t// in\n    tag_209:\n        /* \"#utility.yul\":11480:11547   */\n      tag_210\n        /* \"#utility.yul\":11540:11546   */\n      dup3\n        /* \"#utility.yul\":11532:11538   */\n      dup3\n        /* \"#utility.yul\":11526:11530   */\n      dup6\n        /* \"#utility.yul\":11480:11547   */\n      tag_76\n      jump\t// in\n    tag_210:\n        /* \"#utility.yul\":11574:11575   */\n      0x00\n        /* \"#utility.yul\":11598:11602   */\n      0x20\n        /* \"#utility.yul\":11585:11602   */\n      swap1\n      pop\n        /* \"#utility.yul\":11630:11632   */\n      0x1f\n        /* \"#utility.yul\":11622:11628   */\n      dup4\n        /* \"#utility.yul\":11619:11633   */\n      gt\n        /* \"#utility.yul\":11647:11648   */\n      0x01\n        /* \"#utility.yul\":11642:12260   */\n      dup2\n      eq\n      tag_212\n      jumpi\n        /* \"#utility.yul\":12304:12305   */\n      0x00\n        /* \"#utility.yul\":12321:12327   */\n      dup5\n        /* \"#utility.yul\":12318:12395   */\n      iszero\n      tag_213\n      jumpi\n        /* \"#utility.yul\":12370:12379   */\n      dup3\n        /* \"#utility.yul\":12365:12368   */\n      dup8\n        /* \"#utility.yul\":12361:12380   */\n      add\n        /* \"#utility.yul\":12355:12381   */\n      mload\n        /* \"#utility.yul\":12346:12381   */\n      swap1\n      pop\n        /* \"#utility.yul\":12318:12395   */\n    tag_213:\n        /* \"#utility.yul\":12421:12488   */\n      tag_214\n        /* \"#utility.yul\":12481:12487   */\n      dup6\n        /* \"#utility.yul\":12474:12479   */\n      dup3\n        /* \"#utility.yul\":12421:12488   */\n      tag_79\n      jump\t// in\n    tag_214:\n        /* \"#utility.yul\":12415:12419   */\n      dup7\n        /* \"#utility.yul\":12408:12489   */\n      sstore\n        /* \"#utility.yul\":12277:12499   */\n      pop\n        /* \"#utility.yul\":11612:12499   */\n      jump(tag_211)\n        /* \"#utility.yul\":11642:12260   */\n    tag_212:\n        /* \"#utility.yul\":11694:11698   */\n      0x1f\n        /* \"#utility.yul\":11690:11699   */\n      not\n        /* \"#utility.yul\":11682:11688   */\n      dup5\n        /* \"#utility.yul\":11678:11700   */\n      and\n        /* \"#utility.yul\":11728:11765   */\n      tag_215\n        /* \"#utility.yul\":11760:11764   */\n      dup7\n        /* \"#utility.yul\":11728:11765   */\n      tag_65\n      jump\t// in\n    tag_215:\n        /* \"#utility.yul\":11787:11788   */\n      0x00\n        /* \"#utility.yul\":11801:12009   */\n    tag_216:\n        /* \"#utility.yul\":11815:11822   */\n      dup3\n        /* \"#utility.yul\":11812:11813   */\n      dup2\n        /* \"#utility.yul\":11809:11823   */\n      lt\n        /* \"#utility.yul\":11801:12009   */\n      iszero\n      tag_218\n      jumpi\n        /* \"#utility.yul\":11894:11903   */\n      dup5\n        /* \"#utility.yul\":11889:11892   */\n      dup10\n        /* \"#utility.yul\":11885:11904   */\n      add\n        /* \"#utility.yul\":11879:11905   */\n      mload\n        /* \"#utility.yul\":11871:11877   */\n      dup3\n        /* \"#utility.yul\":11864:11906   */\n      sstore\n        /* \"#utility.yul\":11945:11946   */\n      0x01\n        /* \"#utility.yul\":11937:11943   */\n      dup3\n        /* \"#utility.yul\":11933:11947   */\n      add\n        /* \"#utility.yul\":11923:11947   */\n      swap2\n      pop\n        /* \"#utility.yul\":11992:11994   */\n      0x20\n        /* \"#utility.yul\":11981:11990   */\n      dup6\n        /* \"#utility.yul\":11977:11995   */\n      add\n        /* \"#utility.yul\":11964:11995   */\n      swap5\n      pop\n        /* \"#utility.yul\":11838:11842   */\n      0x20\n        /* \"#utility.yul\":11835:11836   */\n      dup2\n        /* \"#utility.yul\":11831:11843   */\n      add\n        /* \"#utility.yul\":11826:11843   */\n      swap1\n      pop\n        /* \"#utility.yul\":11801:12009   */\n      jump(tag_216)\n    tag_218:\n        /* \"#utility.yul\":12037:12043   */\n      dup7\n        /* \"#utility.yul\":12028:12035   */\n      dup4\n        /* \"#utility.yul\":12025:12044   */\n      lt\n        /* \"#utility.yul\":12022:12201   */\n      iszero\n      tag_219\n      jumpi\n        /* \"#utility.yul\":12095:12104   */\n      dup5\n        /* \"#utility.yul\":12090:12093   */\n      dup10\n        /* \"#utility.yul\":12086:12105   */\n      add\n        /* \"#utility.yul\":12080:12106   */\n      mload\n        /* \"#utility.yul\":12138:12186   */\n      tag_220\n        /* \"#utility.yul\":12180:12184   */\n      0x1f\n        /* \"#utility.yul\":12172:12178   */\n      dup10\n        /* \"#utility.yul\":12168:12185   */\n      and\n        /* \"#utility.yul\":12157:12166   */\n      dup3\n        /* \"#utility.yul\":12138:12186   */\n      tag_78\n      jump\t// in\n    tag_220:\n        /* \"#utility.yul\":12130:12136   */\n      dup4\n        /* \"#utility.yul\":12123:12187   */\n      sstore\n        /* \"#utility.yul\":12045:12201   */\n      pop\n        /* \"#utility.yul\":12022:12201   */\n    tag_219:\n        /* \"#utility.yul\":12247:12248   */\n      0x01\n        /* \"#utility.yul\":12243:12244   */\n      0x02\n        /* \"#utility.yul\":12235:12241   */\n      dup9\n        /* \"#utility.yul\":12231:12245   */\n      mul\n        /* \"#utility.yul\":12227:12249   */\n      add\n        /* \"#utility.yul\":12221:12225   */\n      dup9\n        /* \"#utility.yul\":12214:12250   */\n      sstore\n        /* \"#utility.yul\":11649:12260   */\n      pop\n      pop\n      pop\n        /* \"#utility.yul\":11612:12499   */\n    tag_211:\n      pop\n        /* \"#utility.yul\":11202:12505   */\n      pop\n      pop\n      pop\n        /* \"#utility.yul\":11110:12505   */\n      pop\n      pop\n      jump\t// out\n        /* \"#utility.yul\":12511:13044   */\n    tag_29:\n        /* \"#utility.yul\":12680:12684   */\n      0x00\n        /* \"#utility.yul\":12718:12720   */\n      0x60\n        /* \"#utility.yul\":12707:12716   */\n      dup3\n        /* \"#utility.yul\":12703:12721   */\n      add\n        /* \"#utility.yul\":12695:12721   */\n      swap1\n      pop\n        /* \"#utility.yul\":12767:12776   */\n      dup2\n        /* \"#utility.yul\":12761:12765   */\n      dup2\n        /* \"#utility.yul\":12757:12777   */\n      sub\n        /* \"#utility.yul\":12753:12754   */\n      0x00\n        /* \"#utility.yul\":12742:12751   */\n      dup4\n        /* \"#utility.yul\":12738:12755   */\n      add\n        /* \"#utility.yul\":12731:12778   */\n      mstore\n        /* \"#utility.yul\":12795:12873   */\n      tag_222\n        /* \"#utility.yul\":12868:12872   */\n      dup2\n        /* \"#utility.yul\":12859:12865   */\n      dup7\n        /* \"#utility.yul\":12795:12873   */\n      tag_58\n      jump\t// in\n    tag_222:\n        /* \"#utility.yul\":12787:12873   */\n      swap1\n      pop\n        /* \"#utility.yul\":12883:12955   */\n      tag_223\n        /* \"#utility.yul\":12951:12953   */\n      0x20\n        /* \"#utility.yul\":12940:12949   */\n      dup4\n        /* \"#utility.yul\":12936:12954   */\n      add\n        /* \"#utility.yul\":12927:12933   */\n      dup6\n        /* \"#utility.yul\":12883:12955   */\n      tag_54\n      jump\t// in\n    tag_223:\n        /* \"#utility.yul\":12965:13037   */\n      tag_224\n        /* \"#utility.yul\":13033:13035   */\n      0x40\n        /* \"#utility.yul\":13022:13031   */\n      dup4\n        /* \"#utility.yul\":13018:13036   */\n      add\n        /* \"#utility.yul\":13009:13015   */\n      dup5\n        /* \"#utility.yul\":12965:13037   */\n      tag_61\n      jump\t// in\n    tag_224:\n        /* \"#utility.yul\":12511:13044   */\n      swap5\n      swap4\n      pop\n      pop\n      pop\n      pop\n      jump\t// out\n\n    auxdata: 0xa2646970667358221220ce29575b5b3f5daffff878d2271ef9979e6a96639e3ac704b2afb9259f11d6a064736f6c63430008160033\n}\n",
				"bytecode": {
					"linkReferences": {},
					"object": "608060405234801561000f575f80fd5b50610a8a8061001d5f395ff3fe608060405234801561000f575f80fd5b506004361061003f575f3560e01c8063412b46e414610043578063aecf5efd14610073578063fca5e61e1461008f575b5f80fd5b61005d6004803603810190610058919061039b565b6100c3565b60405161006a91906103e0565b60405180910390f35b61008d60048036038101906100889190610535565b6100ec565b005b6100a960048036038101906100a4919061039b565b610274565b6040516100ba959493929190610669565b60405180910390f35b5f805f8381526020019081526020015f2060030160149054906101000a900460ff169050919050565b5f808481526020019081526020015f2060030160149054906101000a900460ff161561014d576040517f08c379a000000000000000000000000000000000000000000000000000000000815260040161014490610731565b60405180910390fd5b5f6040518060a001604052808581526020018481526020018381526020013373ffffffffffffffffffffffffffffffffffffffff168152602001600115158152509050805f808681526020019081526020015f205f820151815f015560208201518160010190816101be9190610949565b50604082015181600201556060820151816003015f6101000a81548173ffffffffffffffffffffffffffffffffffffffff021916908373ffffffffffffffffffffffffffffffffffffffff16021790555060808201518160030160146101000a81548160ff021916908315150217905550905050837f09c2d004856187b64755ea1e296c13e718698037c4d5e5fd4aa5933c0b332f5684843360405161026693929190610a18565b60405180910390a250505050565b5f602052805f5260405f205f91509050805f0154908060010180546102989061077c565b80601f01602080910402602001604051908101604052809291908181526020018280546102c49061077c565b801561030f5780601f106102e65761010080835404028352916020019161030f565b820191905f5260205f20905b8154815290600101906020018083116102f257829003601f168201915b505050505090806002015490806003015f9054906101000a900473ffffffffffffffffffffffffffffffffffffffff16908060030160149054906101000a900460ff16905085565b5f604051905090565b5f80fd5b5f80fd5b5f819050919050565b61037a81610368565b8114610384575f80fd5b50565b5f8135905061039581610371565b92915050565b5f602082840312156103b0576103af610360565b5b5f6103bd84828501610387565b91505092915050565b5f8115159050919050565b6103da816103c6565b82525050565b5f6020820190506103f35f8301846103d1565b92915050565b5f80fd5b5f80fd5b5f601f19601f8301169050919050565b7f4e487b71000000000000000000000000000000000000000000000000000000005f52604160045260245ffd5b61044782610401565b810181811067ffffffffffffffff8211171561046657610465610411565b5b80604052505050565b5f610478610357565b9050610484828261043e565b919050565b5f67ffffffffffffffff8211156104a3576104a2610411565b5b6104ac82610401565b9050602081019050919050565b828183375f83830152505050565b5f6104d96104d484610489565b61046f565b9050828152602081018484840111156104f5576104f46103fd565b5b6105008482856104b9565b509392505050565b5f82601f83011261051c5761051b6103f9565b5b813561052c8482602086016104c7565b91505092915050565b5f805f6060848603121561054c5761054b610360565b5b5f61055986828701610387565b935050602084013567ffffffffffffffff81111561057a57610579610364565b5b61058686828701610508565b925050604061059786828701610387565b9150509250925092565b6105aa81610368565b82525050565b5f81519050919050565b5f82825260208201905092915050565b5f5b838110156105e75780820151818401526020810190506105cc565b5f8484015250505050565b5f6105fc826105b0565b61060681856105ba565b93506106168185602086016105ca565b61061f81610401565b840191505092915050565b5f73ffffffffffffffffffffffffffffffffffffffff82169050919050565b5f6106538261062a565b9050919050565b61066381610649565b82525050565b5f60a08201905061067c5f8301886105a1565b818103602083015261068e81876105f2565b905061069d60408301866105a1565b6106aa606083018561065a565b6106b760808301846103d1565b9695505050505050565b7f4472756720776974682074686973206261746368206e756d62657220616c72655f8201527f6164792072656769737465726564000000000000000000000000000000000000602082015250565b5f61071b602e836105ba565b9150610726826106c1565b604082019050919050565b5f6020820190508181035f8301526107488161070f565b9050919050565b7f4e487b71000000000000000000000000000000000000000000000000000000005f52602260045260245ffd5b5f600282049050600182168061079357607f821691505b6020821081036107a6576107a561074f565b5b50919050565b5f819050815f5260205f209050919050565b5f6020601f8301049050919050565b5f82821b905092915050565b5f600883026108087fffffffffffffffffffffffffffffffffffffffffffffffffffffffffffffffff826107cd565b61081286836107cd565b95508019841693508086168417925050509392505050565b5f819050919050565b5f61084d61084861084384610368565b61082a565b610368565b9050919050565b5f819050919050565b61086683610833565b61087a61087282610854565b8484546107d9565b825550505050565b5f90565b61088e610882565b61089981848461085d565b505050565b5b818110156108bc576108b15f82610886565b60018101905061089f565b5050565b601f821115610901576108d2816107ac565b6108db846107be565b810160208510156108ea578190505b6108fe6108f6856107be565b83018261089e565b50505b505050565b5f82821c905092915050565b5f6109215f1984600802610906565b1980831691505092915050565b5f6109398383610912565b9150826002028217905092915050565b610952826105b0565b67ffffffffffffffff81111561096b5761096a610411565b5b610975825461077c565b6109808282856108c0565b5f60209050601f8311600181146109b1575f841561099f578287015190505b6109a9858261092e565b865550610a10565b601f1984166109bf866107ac565b5f5b828110156109e6578489015182556001820191506020850194506020810190506109c1565b86831015610a0357848901516109ff601f891682610912565b8355505b6001600288020188555050505b505050505050565b5f6060820190508181035f830152610a3081866105f2565b9050610a3f60208301856105a1565b610a4c604083018461065a565b94935050505056fea2646970667358221220ce29575b5b3f5daffff878d2271ef9979e6a96639e3ac704b2afb9259f11d6a064736f6c63430008160033",
					"opcodes": "PUSH1 0x80 PUSH1 0x40 MSTORE CALLVALUE DUP1 ISZERO PUSH2 0xF JUMPI PUSH0 DUP1 REVERT JUMPDEST POP PUSH2 0xA8A DUP1 PUSH2 0x1D PUSH0 CODECOPY PUSH0 RETURN INVALID PUSH1 0x80 PUSH1 0x40 MSTORE CALLVALUE DUP1 ISZERO PUSH2 0xF JUMPI PUSH0 DUP1 REVERT JUMPDEST POP PUSH1 0x4 CALLDATASIZE LT PUSH2 0x3F JUMPI PUSH0 CALLDATALOAD PUSH1 0xE0 SHR DUP1 PUSH4 0x412B46E4 EQ PUSH2 0x43 JUMPI DUP1 PUSH4 0xAECF5EFD EQ PUSH2 0x73 JUMPI DUP1 PUSH4 0xFCA5E61E EQ PUSH2 0x8F JUMPI JUMPDEST PUSH0 DUP1 REVERT JUMPDEST PUSH2 0x5D PUSH1 0x4 DUP1 CALLDATASIZE SUB DUP2 ADD SWAP1 PUSH2 0x58 SWAP2 SWAP1 PUSH2 0x39B JUMP JUMPDEST PUSH2 0xC3 JUMP JUMPDEST PUSH1 0x40 MLOAD PUSH2 0x6A SWAP2 SWAP1 PUSH2 0x3E0 JUMP JUMPDEST PUSH1 0x40 MLOAD DUP1 SWAP2 SUB SWAP1 RETURN JUMPDEST PUSH2 0x8D PUSH1 0x4 DUP1 CALLDATASIZE SUB DUP2 ADD SWAP1 PUSH2 0x88 SWAP2 SWAP1 PUSH2 0x535 JUMP JUMPDEST PUSH2 0xEC JUMP JUMPDEST STOP JUMPDEST PUSH2 0xA9 PUSH1 0x4 DUP1 CALLDATASIZE SUB DUP2 ADD SWAP1 PUSH2 0xA4 SWAP2 SWAP1 PUSH2 0x39B JUMP JUMPDEST PUSH2 0x274 JUMP JUMPDEST PUSH1 0x40 MLOAD PUSH2 0xBA SWAP6 SWAP5 SWAP4 SWAP3 SWAP2 SWAP1 PUSH2 0x669 JUMP JUMPDEST PUSH1 0x40 MLOAD DUP1 SWAP2 SUB SWAP1 RETURN JUMPDEST PUSH0 DUP1 PUSH0 DUP4 DUP2 MSTORE PUSH1 0x20 ADD SWAP1 DUP2 MSTORE PUSH1 0x20 ADD PUSH0 KECCAK256 PUSH1 0x3 ADD PUSH1 0x14 SWAP1 SLOAD SWAP1 PUSH2 0x100 EXP SWAP1 DIV PUSH1 0xFF AND SWAP1 POP SWAP2 SWAP1 POP JUMP JUMPDEST PUSH0 DUP1 DUP5 DUP2 MSTORE PUSH1 0x20 ADD SWAP1 DUP2 MSTORE PUSH1 0x20 ADD PUSH0 KECCAK256 PUSH1 0x3 ADD PUSH1 0x14 SWAP1 SLOAD SWAP1 PUSH2 0x100 EXP SWAP1 DIV PUSH1 0xFF AND ISZERO PUSH2 0x14D JUMPI PUSH1 0x40 MLOAD PUSH32 0x8C379A000000000000000000000000000000000000000000000000000000000 DUP2 MSTORE PUSH1 0x4 ADD PUSH2 0x144 SWAP1 PUSH2 0x731 JUMP JUMPDEST PUSH1 0x40 MLOAD DUP1 SWAP2 SUB SWAP1 REVERT JUMPDEST PUSH0 PUSH1 0x40 MLOAD DUP1 PUSH1 0xA0 ADD PUSH1 0x40 MSTORE DUP1 DUP6 DUP2 MSTORE PUSH1 0x20 ADD DUP5 DUP2 MSTORE PUSH1 0x20 ADD DUP4 DUP2 MSTORE PUSH1 0x20 ADD CALLER PUSH20 0xFFFFFFFFFFFFFFFFFFFFFFFFFFFFFFFFFFFFFFFF AND DUP2 MSTORE PUSH1 0x20 ADD PUSH1 0x1 ISZERO ISZERO DUP2 MSTORE POP SWAP1 POP DUP1 PUSH0 DUP1 DUP7 DUP2 MSTORE PUSH1 0x20 ADD SWAP1 DUP2 MSTORE PUSH1 0x20 ADD PUSH0 KECCAK256 PUSH0 DUP3 ADD MLOAD DUP2 PUSH0 ADD SSTORE PUSH1 0x20 DUP3 ADD MLOAD DUP2 PUSH1 0x1 ADD SWAP1 DUP2 PUSH2 0x1BE SWAP2 SWAP1 PUSH2 0x949 JUMP JUMPDEST POP PUSH1 0x40 DUP3 ADD MLOAD DUP2 PUSH1 0x2 ADD SSTORE PUSH1 0x60 DUP3 ADD MLOAD DUP2 PUSH1 0x3 ADD PUSH0 PUSH2 0x100 EXP DUP2 SLOAD DUP2 PUSH20 0xFFFFFFFFFFFFFFFFFFFFFFFFFFFFFFFFFFFFFFFF MUL NOT AND SWAP1 DUP4 PUSH20 0xFFFFFFFFFFFFFFFFFFFFFFFFFFFFFFFFFFFFFFFF AND MUL OR SWAP1 SSTORE POP PUSH1 0x80 DUP3 ADD MLOAD DUP2 PUSH1 0x3 ADD PUSH1 0x14 PUSH2 0x100 EXP DUP2 SLOAD DUP2 PUSH1 0xFF MUL NOT AND SWAP1 DUP4 ISZERO ISZERO MUL OR SWAP1 SSTORE POP SWAP1 POP POP DUP4 PUSH32 0x9C2D004856187B64755EA1E296C13E718698037C4D5E5FD4AA5933C0B332F56 DUP5 DUP5 CALLER PUSH1 0x40 MLOAD PUSH2 0x266 SWAP4 SWAP3 SWAP2 SWAP1 PUSH2 0xA18 JUMP JUMPDEST PUSH1 0x40 MLOAD DUP1 SWAP2 SUB SWAP1 LOG2 POP POP POP POP JUMP JUMPDEST PUSH0 PUSH1 0x20 MSTORE DUP1 PUSH0 MSTORE PUSH1 0x40 PUSH0 KECCAK256 PUSH0 SWAP2 POP SWAP1 POP DUP1 PUSH0 ADD SLOAD SWAP1 DUP1 PUSH1 0x1 ADD DUP1 SLOAD PUSH2 0x298 SWAP1 PUSH2 0x77C JUMP JUMPDEST DUP1 PUSH1 0x1F ADD PUSH1 0x20 DUP1 SWAP2 DIV MUL PUSH1 0x20 ADD PUSH1 0x40 MLOAD SWAP1 DUP2 ADD PUSH1 0x40 MSTORE DUP1 SWAP3 SWAP2 SWAP1 DUP2 DUP2 MSTORE PUSH1 0x20 ADD DUP3 DUP1 SLOAD PUSH2 0x2C4 SWAP1 PUSH2 0x77C JUMP JUMPDEST DUP1 ISZERO PUSH2 0x30F JUMPI DUP1 PUSH1 0x1F LT PUSH2 0x2E6 JUMPI PUSH2 0x100 DUP1 DUP4 SLOAD DIV MUL DUP4 MSTORE SWAP2 PUSH1 0x20 ADD SWAP2 PUSH2 0x30F JUMP JUMPDEST DUP3 ADD SWAP2 SWAP1 PUSH0 MSTORE PUSH1 0x20 PUSH0 KECCAK256 SWAP1 JUMPDEST DUP2 SLOAD DUP2 MSTORE SWAP1 PUSH1 0x1 ADD SWAP1 PUSH1 0x20 ADD DUP1 DUP4 GT PUSH2 0x2F2 JUMPI DUP3 SWAP1 SUB PUSH1 0x1F AND DUP3 ADD SWAP2 JUMPDEST POP POP POP POP POP SWAP1 DUP1 PUSH1 0x2 ADD SLOAD SWAP1 DUP1 PUSH1 0x3 ADD PUSH0 SWAP1 SLOAD SWAP1 PUSH2 0x100 EXP SWAP1 DIV PUSH20 0xFFFFFFFFFFFFFFFFFFFFFFFFFFFFFFFFFFFFFFFF AND SWAP1 DUP1 PUSH1 0x3 ADD PUSH1 0x14 SWAP1 SLOAD SWAP1 PUSH2 0x100 EXP SWAP1 DIV PUSH1 0xFF AND SWAP1 POP DUP6 JUMP JUMPDEST PUSH0 PUSH1 0x40 MLOAD SWAP1 POP SWAP1 JUMP JUMPDEST PUSH0 DUP1 REVERT JUMPDEST PUSH0 DUP1 REVERT JUMPDEST PUSH0 DUP2 SWAP1 POP SWAP2 SWAP1 POP JUMP JUMPDEST PUSH2 0x37A DUP2 PUSH2 0x368 JUMP JUMPDEST DUP2 EQ PUSH2 0x384 JUMPI PUSH0 DUP1 REVERT JUMPDEST POP JUMP JUMPDEST PUSH0 DUP2 CALLDATALOAD SWAP1 POP PUSH2 0x395 DUP2 PUSH2 0x371 JUMP JUMPDEST SWAP3 SWAP2 POP POP JUMP JUMPDEST PUSH0 PUSH1 0x20 DUP3 DUP5 SUB SLT ISZERO PUSH2 0x3B0 JUMPI PUSH2 0x3AF PUSH2 0x360 JUMP JUMPDEST JUMPDEST PUSH0 PUSH2 0x3BD DUP5 DUP3 DUP6 ADD PUSH2 0x387 JUMP JUMPDEST SWAP2 POP POP SWAP3 SWAP2 POP POP JUMP JUMPDEST PUSH0 DUP2 ISZERO ISZERO SWAP1 POP SWAP2 SWAP1 POP JUMP JUMPDEST PUSH2 0x3DA DUP2 PUSH2 0x3C6 JUMP JUMPDEST DUP3 MSTORE POP POP JUMP JUMPDEST PUSH0 PUSH1 0x20 DUP3 ADD SWAP1 POP PUSH2 0x3F3 PUSH0 DUP4 ADD DUP5 PUSH2 0x3D1 JUMP JUMPDEST SWAP3 SWAP2 POP POP JUMP JUMPDEST PUSH0 DUP1 REVERT JUMPDEST PUSH0 DUP1 REVERT JUMPDEST PUSH0 PUSH1 0x1F NOT PUSH1 0x1F DUP4 ADD AND SWAP1 POP SWAP2 SWAP1 POP JUMP JUMPDEST PUSH32 0x4E487B7100000000000000000000000000000000000000000000000000000000 PUSH0 MSTORE PUSH1 0x41 PUSH1 0x4 MSTORE PUSH1 0x24 PUSH0 REVERT JUMPDEST PUSH2 0x447 DUP3 PUSH2 0x401 JUMP JUMPDEST DUP2 ADD DUP2 DUP2 LT PUSH8 0xFFFFFFFFFFFFFFFF DUP3 GT OR ISZERO PUSH2 0x466 JUMPI PUSH2 0x465 PUSH2 0x411 JUMP JUMPDEST JUMPDEST DUP1 PUSH1 0x40 MSTORE POP POP POP JUMP JUMPDEST PUSH0 PUSH2 0x478 PUSH2 0x357 JUMP JUMPDEST SWAP1 POP PUSH2 0x484 DUP3 DUP3 PUSH2 0x43E JUMP JUMPDEST SWAP2 SWAP1 POP JUMP JUMPDEST PUSH0 PUSH8 0xFFFFFFFFFFFFFFFF DUP3 GT ISZERO PUSH2 0x4A3 JUMPI PUSH2 0x4A2 PUSH2 0x411 JUMP JUMPDEST JUMPDEST PUSH2 0x4AC DUP3 PUSH2 0x401 JUMP JUMPDEST SWAP1 POP PUSH1 0x20 DUP2 ADD SWAP1 POP SWAP2 SWAP1 POP JUMP JUMPDEST DUP3 DUP2 DUP4 CALLDATACOPY PUSH0 DUP4 DUP4 ADD MSTORE POP POP POP JUMP JUMPDEST PUSH0 PUSH2 0x4D9 PUSH2 0x4D4 DUP5 PUSH2 0x489 JUMP JUMPDEST PUSH2 0x46F JUMP JUMPDEST SWAP1 POP DUP3 DUP2 MSTORE PUSH1 0x20 DUP2 ADD DUP5 DUP5 DUP5 ADD GT ISZERO PUSH2 0x4F5 JUMPI PUSH2 0x4F4 PUSH2 0x3FD JUMP JUMPDEST JUMPDEST PUSH2 0x500 DUP5 DUP3 DUP6 PUSH2 0x4B9 JUMP JUMPDEST POP SWAP4 SWAP3 POP POP POP JUMP JUMPDEST PUSH0 DUP3 PUSH1 0x1F DUP4 ADD SLT PUSH2 0x51C JUMPI PUSH2 0x51B PUSH2 0x3F9 JUMP JUMPDEST JUMPDEST DUP2 CALLDATALOAD PUSH2 0x52C DUP5 DUP3 PUSH1 0x20 DUP7 ADD PUSH2 0x4C7 JUMP JUMPDEST SWAP2 POP POP SWAP3 SWAP2 POP POP JUMP JUMPDEST PUSH0 DUP1 PUSH0 PUSH1 0x60 DUP5 DUP7 SUB SLT ISZERO PUSH2 0x54C JUMPI PUSH2 0x54B PUSH2 0x360 JUMP JUMPDEST JUMPDEST PUSH0 PUSH2 0x559 DUP7 DUP3 DUP8 ADD PUSH2 0x387 JUMP JUMPDEST SWAP4 POP POP PUSH1 0x20 DUP5 ADD CALLDATALOAD PUSH8 0xFFFFFFFFFFFFFFFF DUP2 GT ISZERO PUSH2 0x57A JUMPI PUSH2 0x579 PUSH2 0x364 JUMP JUMPDEST JUMPDEST PUSH2 0x586 DUP7 DUP3 DUP8 ADD PUSH2 0x508 JUMP JUMPDEST SWAP3 POP POP PUSH1 0x40 PUSH2 0x597 DUP7 DUP3 DUP8 ADD PUSH2 0x387 JUMP JUMPDEST SWAP2 POP POP SWAP3 POP SWAP3 POP SWAP3 JUMP JUMPDEST PUSH2 0x5AA DUP2 PUSH2 0x368 JUMP JUMPDEST DUP3 MSTORE POP POP JUMP JUMPDEST PUSH0 DUP2 MLOAD SWAP1 POP SWAP2 SWAP1 POP JUMP JUMPDEST PUSH0 DUP3 DUP3 MSTORE PUSH1 0x20 DUP3 ADD SWAP1 POP SWAP3 SWAP2 POP POP JUMP JUMPDEST PUSH0 JUMPDEST DUP4 DUP2 LT ISZERO PUSH2 0x5E7 JUMPI DUP1 DUP3 ADD MLOAD DUP2 DUP5 ADD MSTORE PUSH1 0x20 DUP2 ADD SWAP1 POP PUSH2 0x5CC JUMP JUMPDEST PUSH0 DUP5 DUP5 ADD MSTORE POP POP POP POP JUMP JUMPDEST PUSH0 PUSH2 0x5FC DUP3 PUSH2 0x5B0 JUMP JUMPDEST PUSH2 0x606 DUP2 DUP6 PUSH2 0x5BA JUMP JUMPDEST SWAP4 POP PUSH2 0x616 DUP2 DUP6 PUSH1 0x20 DUP7 ADD PUSH2 0x5CA JUMP JUMPDEST PUSH2 0x61F DUP2 PUSH2 0x401 JUMP JUMPDEST DUP5 ADD SWAP2 POP POP SWAP3 SWAP2 POP POP JUMP JUMPDEST PUSH0 PUSH20 0xFFFFFFFFFFFFFFFFFFFFFFFFFFFFFFFFFFFFFFFF DUP3 AND SWAP1 POP SWAP2 SWAP1 POP JUMP JUMPDEST PUSH0 PUSH2 0x653 DUP3 PUSH2 0x62A JUMP JUMPDEST SWAP1 POP SWAP2 SWAP1 POP JUMP JUMPDEST PUSH2 0x663 DUP2 PUSH2 0x649 JUMP JUMPDEST DUP3 MSTORE POP POP JUMP JUMPDEST PUSH0 PUSH1 0xA0 DUP3 ADD SWAP1 POP PUSH2 0x67C PUSH0 DUP4 ADD DUP9 PUSH2 0x5A1 JUMP JUMPDEST DUP2 DUP2 SUB PUSH1 0x20 DUP4 ADD MSTORE PUSH2 0x68E DUP2 DUP8 PUSH2 0x5F2 JUMP JUMPDEST SWAP1 POP PUSH2 0x69D PUSH1 0x40 DUP4 ADD DUP7 PUSH2 0x5A1 JUMP JUMPDEST PUSH2 0x6AA PUSH1 0x60 DUP4 ADD DUP6 PUSH2 0x65A JUMP JUMPDEST PUSH2 0x6B7 PUSH1 0x80 DUP4 ADD DUP5 PUSH2 0x3D1 JUMP JUMPDEST SWAP7 SWAP6 POP POP POP POP POP POP JUMP JUMPDEST PUSH32 0x4472756720776974682074686973206261746368206E756D62657220616C7265 PUSH0 DUP3 ADD MSTORE PUSH32 0x6164792072656769737465726564000000000000000000000000000000000000 PUSH1 0x20 DUP3 ADD MSTORE POP JUMP JUMPDEST PUSH0 PUSH2 0x71B PUSH1 0x2E DUP4 PUSH2 0x5BA JUMP JUMPDEST SWAP2 POP PUSH2 0x726 DUP3 PUSH2 0x6C1 JUMP JUMPDEST PUSH1 0x40 DUP3 ADD SWAP1 POP SWAP2 SWAP1 POP JUMP JUMPDEST PUSH0 PUSH1 0x20 DUP3 ADD SWAP1 POP DUP2 DUP2 SUB PUSH0 DUP4 ADD MSTORE PUSH2 0x748 DUP2 PUSH2 0x70F JUMP JUMPDEST SWAP1 POP SWAP2 SWAP1 POP JUMP JUMPDEST PUSH32 0x4E487B7100000000000000000000000000000000000000000000000000000000 PUSH0 MSTORE PUSH1 0x22 PUSH1 0x4 MSTORE PUSH1 0x24 PUSH0 REVERT JUMPDEST PUSH0 PUSH1 0x2 DUP3 DIV SWAP1 POP PUSH1 0x1 DUP3 AND DUP1 PUSH2 0x793 JUMPI PUSH1 0x7F DUP3 AND SWAP2 POP JUMPDEST PUSH1 0x20 DUP3 LT DUP2 SUB PUSH2 0x7A6 JUMPI PUSH2 0x7A5 PUSH2 0x74F JUMP JUMPDEST JUMPDEST POP SWAP2 SWAP1 POP JUMP JUMPDEST PUSH0 DUP2 SWAP1 POP DUP2 PUSH0 MSTORE PUSH1 0x20 PUSH0 KECCAK256 SWAP1 POP SWAP2 SWAP1 POP JUMP JUMPDEST PUSH0 PUSH1 0x20 PUSH1 0x1F DUP4 ADD DIV SWAP1 POP SWAP2 SWAP1 POP JUMP JUMPDEST PUSH0 DUP3 DUP3 SHL SWAP1 POP SWAP3 SWAP2 POP POP JUMP JUMPDEST PUSH0 PUSH1 0x8 DUP4 MUL PUSH2 0x808 PUSH32 0xFFFFFFFFFFFFFFFFFFFFFFFFFFFFFFFFFFFFFFFFFFFFFFFFFFFFFFFFFFFFFFFF DUP3 PUSH2 0x7CD JUMP JUMPDEST PUSH2 0x812 DUP7 DUP4 PUSH2 0x7CD JUMP JUMPDEST SWAP6 POP DUP1 NOT DUP5 AND SWAP4 POP DUP1 DUP7 AND DUP5 OR SWAP3 POP POP POP SWAP4 SWAP3 POP POP POP JUMP JUMPDEST PUSH0 DUP2 SWAP1 POP SWAP2 SWAP1 POP JUMP JUMPDEST PUSH0 PUSH2 0x84D PUSH2 0x848 PUSH2 0x843 DUP5 PUSH2 0x368 JUMP JUMPDEST PUSH2 0x82A JUMP JUMPDEST PUSH2 0x368 JUMP JUMPDEST SWAP1 POP SWAP2 SWAP1 POP JUMP JUMPDEST PUSH0 DUP2 SWAP1 POP SWAP2 SWAP1 POP JUMP JUMPDEST PUSH2 0x866 DUP4 PUSH2 0x833 JUMP JUMPDEST PUSH2 0x87A PUSH2 0x872 DUP3 PUSH2 0x854 JUMP JUMPDEST DUP5 DUP5 SLOAD PUSH2 0x7D9 JUMP JUMPDEST DUP3 SSTORE POP POP POP POP JUMP JUMPDEST PUSH0 SWAP1 JUMP JUMPDEST PUSH2 0x88E PUSH2 0x882 JUMP JUMPDEST PUSH2 0x899 DUP2 DUP5 DUP5 PUSH2 0x85D JUMP JUMPDEST POP POP POP JUMP JUMPDEST JUMPDEST DUP2 DUP2 LT ISZERO PUSH2 0x8BC JUMPI PUSH2 0x8B1 PUSH0 DUP3 PUSH2 0x886 JUMP JUMPDEST PUSH1 0x1 DUP2 ADD SWAP1 POP PUSH2 0x89F JUMP JUMPDEST POP POP JUMP JUMPDEST PUSH1 0x1F DUP3 GT ISZERO PUSH2 0x901 JUMPI PUSH2 0x8D2 DUP2 PUSH2 0x7AC JUMP JUMPDEST PUSH2 0x8DB DUP5 PUSH2 0x7BE JUMP JUMPDEST DUP2 ADD PUSH1 0x20 DUP6 LT ISZERO PUSH2 0x8EA JUMPI DUP2 SWAP1 POP JUMPDEST PUSH2 0x8FE PUSH2 0x8F6 DUP6 PUSH2 0x7BE JUMP JUMPDEST DUP4 ADD DUP3 PUSH2 0x89E JUMP JUMPDEST POP POP JUMPDEST POP POP POP JUMP JUMPDEST PUSH0 DUP3 DUP3 SHR SWAP1 POP SWAP3 SWAP2 POP POP JUMP JUMPDEST PUSH0 PUSH2 0x921 PUSH0 NOT DUP5 PUSH1 0x8 MUL PUSH2 0x906 JUMP JUMPDEST NOT DUP1 DUP4 AND SWAP2 POP POP SWAP3 SWAP2 POP POP JUMP JUMPDEST PUSH0 PUSH2 0x939 DUP4 DUP4 PUSH2 0x912 JUMP JUMPDEST SWAP2 POP DUP3 PUSH1 0x2 MUL DUP3 OR SWAP1 POP SWAP3 SWAP2 POP POP JUMP JUMPDEST PUSH2 0x952 DUP3 PUSH2 0x5B0 JUMP JUMPDEST PUSH8 0xFFFFFFFFFFFFFFFF DUP2 GT ISZERO PUSH2 0x96B JUMPI PUSH2 0x96A PUSH2 0x411 JUMP JUMPDEST JUMPDEST PUSH2 0x975 DUP3 SLOAD PUSH2 0x77C JUMP JUMPDEST PUSH2 0x980 DUP3 DUP3 DUP6 PUSH2 0x8C0 JUMP JUMPDEST PUSH0 PUSH1 0x20 SWAP1 POP PUSH1 0x1F DUP4 GT PUSH1 0x1 DUP2 EQ PUSH2 0x9B1 JUMPI PUSH0 DUP5 ISZERO PUSH2 0x99F JUMPI DUP3 DUP8 ADD MLOAD SWAP1 POP JUMPDEST PUSH2 0x9A9 DUP6 DUP3 PUSH2 0x92E JUMP JUMPDEST DUP7 SSTORE POP PUSH2 0xA10 JUMP JUMPDEST PUSH1 0x1F NOT DUP5 AND PUSH2 0x9BF DUP7 PUSH2 0x7AC JUMP JUMPDEST PUSH0 JUMPDEST DUP3 DUP2 LT ISZERO PUSH2 0x9E6 JUMPI DUP5 DUP10 ADD MLOAD DUP3 SSTORE PUSH1 0x1 DUP3 ADD SWAP2 POP PUSH1 0x20 DUP6 ADD SWAP5 POP PUSH1 0x20 DUP2 ADD SWAP1 POP PUSH2 0x9C1 JUMP JUMPDEST DUP7 DUP4 LT ISZERO PUSH2 0xA03 JUMPI DUP5 DUP10 ADD MLOAD PUSH2 0x9FF PUSH1 0x1F DUP10 AND DUP3 PUSH2 0x912 JUMP JUMPDEST DUP4 SSTORE POP JUMPDEST PUSH1 0x1 PUSH1 0x2 DUP9 MUL ADD DUP9 SSTORE POP POP POP JUMPDEST POP POP POP POP POP POP JUMP JUMPDEST PUSH0 PUSH1 0x60 DUP3 ADD SWAP1 POP DUP2 DUP2 SUB PUSH0 DUP4 ADD MSTORE PUSH2 0xA30 DUP2 DUP7 PUSH2 0x5F2 JUMP JUMPDEST SWAP1 POP PUSH2 0xA3F PUSH1 0x20 DUP4 ADD DUP6 PUSH2 0x5A1 JUMP JUMPDEST PUSH2 0xA4C PUSH1 0x40 DUP4 ADD DUP5 PUSH2 0x65A JUMP JUMPDEST SWAP5 SWAP4 POP POP POP POP JUMP INVALID LOG2 PUSH5 0x6970667358 0x22 SLT KECCAK256 0xCE 0x29 JUMPI JUMPDEST JUMPDEST EXTCODEHASH 0x5D 0xAF SELFDESTRUCT 0xF8 PUSH25 0xD2271EF9979E6A96639E3AC704B2AFB9259F11D6A064736F6C PUSH4 0x43000816 STOP CALLER "
				},
				"gasEstimates": {
					"creation": {
						"codeDepositCost": "539600",
						"executionCost": "573",
						"totalCost": "540173"
					},
					"external": {
						"drugs(uint256)": "infinite",
						"registerDrug(uint256,string,uint256)": "infinite",
						"verifyDrug(uint256)": "2845"
					}
				},
				"methodIdentifiers": {
					"drugs(uint256)": "fca5e61e",
					"registerDrug(uint256,string,uint256)": "aecf5efd",
					"verifyDrug(uint256)": "412b46e4"
				}
			},
			"storageLayout": {
				"storage": [
					{
						"astId": 17,
						"contract": "CounterfeitDrugDetection.sol:CounterfeitDrugDetection",
						"label": "drugs",
						"offset": 0,
						"slot": "0",
						"type": "t_mapping(t_uint256,t_struct(Drug)12_storage)"
					}
				],
				"types": {
					"t_address": {
						"encoding": "inplace",
						"label": "address",
						"numberOfBytes": "20"
					},
					"t_bool": {
						"encoding": "inplace",
						"label": "bool",
						"numberOfBytes": "1"
					},
					"t_mapping(t_uint256,t_struct(Drug)12_storage)": {
						"encoding": "mapping",
						"key": "t_uint256",
						"label": "mapping(uint256 => struct CounterfeitDrugDetection.Drug)",
						"numberOfBytes": "32",
						"value": "t_struct(Drug)12_storage"
					},
					"t_string_storage": {
						"encoding": "bytes",
						"label": "string",
						"numberOfBytes": "32"
					},
					"t_struct(Drug)12_storage": {
						"encoding": "inplace",
						"label": "struct CounterfeitDrugDetection.Drug",
						"members": [
							{
								"astId": 3,
								"contract": "CounterfeitDrugDetection.sol:CounterfeitDrugDetection",
								"label": "batchNumber",
								"offset": 0,
								"slot": "0",
								"type": "t_uint256"
							},
							{
								"astId": 5,
								"contract": "CounterfeitDrugDetection.sol:CounterfeitDrugDetection",
								"label": "name",
								"offset": 0,
								"slot": "1",
								"type": "t_string_storage"
							},
							{
								"astId": 7,
								"contract": "CounterfeitDrugDetection.sol:CounterfeitDrugDetection",
								"label": "manufacturingDate",
								"offset": 0,
								"slot": "2",
								"type": "t_uint256"
							},
							{
								"astId": 9,
								"contract": "CounterfeitDrugDetection.sol:CounterfeitDrugDetection",
								"label": "manufacturer",
								"offset": 0,
								"slot": "3",
								"type": "t_address"
							},
							{
								"astId": 11,
								"contract": "CounterfeitDrugDetection.sol:CounterfeitDrugDetection",
								"label": "isRegistered",
								"offset": 20,
								"slot": "3",
								"type": "t_bool"
							}
						],
						"numberOfBytes": "128"
					},
					"t_uint256": {
						"encoding": "inplace",
						"label": "uint256",
						"numberOfBytes": "32"
					}
				}
			},
			"userdoc": {
				"kind": "user",
				"methods": {},
				"version": 1
			}
		}
	}
}